{
  "_format": "hh-sol-artifact-1",
  "contractName": "CharacterNFTManager",
  "sourceName": "contracts/erc721/CharacterNFTManager.sol",
  "abi": [
    {
      "inputs": [],
      "name": "AccessControlBadConfirmation",
      "type": "error"
    },
    {
      "inputs": [
        {
          "internalType": "address",
          "name": "account",
          "type": "address"
        },
        {
          "internalType": "bytes32",
          "name": "neededRole",
          "type": "bytes32"
        }
      ],
      "name": "AccessControlUnauthorizedAccount",
      "type": "error"
    },
    {
      "inputs": [],
      "name": "EnforcedPause",
      "type": "error"
    },
    {
      "inputs": [],
      "name": "ExpectedPause",
      "type": "error"
    },
    {
      "inputs": [
        {
          "internalType": "uint256",
          "name": "pricePerMint",
          "type": "uint256"
        },
        {
          "internalType": "uint256",
          "name": "amount",
          "type": "uint256"
        }
      ],
      "name": "InsufficientFunds",
      "type": "error"
    },
    {
      "inputs": [],
      "name": "InvalidCharacterClass",
      "type": "error"
    },
    {
      "inputs": [],
      "name": "InvalidInitialization",
      "type": "error"
    },
    {
      "inputs": [],
      "name": "InvalidValues",
      "type": "error"
    },
    {
      "inputs": [],
      "name": "NotInitializing",
      "type": "error"
    },
    {
      "inputs": [],
      "name": "ReentrancyGuardReentrantCall",
      "type": "error"
    },
    {
      "anonymous": false,
      "inputs": [
        {
          "indexed": false,
          "internalType": "uint64",
          "name": "version",
          "type": "uint64"
        }
      ],
      "name": "Initialized",
      "type": "event"
    },
    {
      "anonymous": false,
      "inputs": [
        {
          "indexed": false,
          "internalType": "address",
          "name": "account",
          "type": "address"
        }
      ],
      "name": "Paused",
      "type": "event"
    },
    {
      "anonymous": false,
      "inputs": [
        {
          "indexed": true,
          "internalType": "bytes32",
          "name": "role",
          "type": "bytes32"
        },
        {
          "indexed": true,
          "internalType": "bytes32",
          "name": "previousAdminRole",
          "type": "bytes32"
        },
        {
          "indexed": true,
          "internalType": "bytes32",
          "name": "newAdminRole",
          "type": "bytes32"
        }
      ],
      "name": "RoleAdminChanged",
      "type": "event"
    },
    {
      "anonymous": false,
      "inputs": [
        {
          "indexed": true,
          "internalType": "bytes32",
          "name": "role",
          "type": "bytes32"
        },
        {
          "indexed": true,
          "internalType": "address",
          "name": "account",
          "type": "address"
        },
        {
          "indexed": true,
          "internalType": "address",
          "name": "sender",
          "type": "address"
        }
      ],
      "name": "RoleGranted",
      "type": "event"
    },
    {
      "anonymous": false,
      "inputs": [
        {
          "indexed": true,
          "internalType": "bytes32",
          "name": "role",
          "type": "bytes32"
        },
        {
          "indexed": true,
          "internalType": "address",
          "name": "account",
          "type": "address"
        },
        {
          "indexed": true,
          "internalType": "address",
          "name": "sender",
          "type": "address"
        }
      ],
      "name": "RoleRevoked",
      "type": "event"
    },
    {
      "anonymous": false,
      "inputs": [
        {
          "indexed": false,
          "internalType": "address",
          "name": "account",
          "type": "address"
        }
      ],
      "name": "Unpaused",
      "type": "event"
    },
    {
      "inputs": [],
      "name": "ADMIN_ROLE",
      "outputs": [
        {
          "internalType": "bytes32",
          "name": "",
          "type": "bytes32"
        }
      ],
      "stateMutability": "view",
      "type": "function"
    },
    {
      "inputs": [],
      "name": "DEFAULT_ADMIN_ROLE",
      "outputs": [
        {
          "internalType": "bytes32",
          "name": "",
          "type": "bytes32"
        }
      ],
      "stateMutability": "view",
      "type": "function"
    },
    {
      "inputs": [],
      "name": "MINTER_ROLE",
      "outputs": [
        {
          "internalType": "bytes32",
          "name": "",
          "type": "bytes32"
        }
      ],
      "stateMutability": "view",
      "type": "function"
    },
    {
      "inputs": [],
      "name": "OWNER_ROLE",
      "outputs": [
        {
          "internalType": "bytes32",
          "name": "",
          "type": "bytes32"
        }
      ],
      "stateMutability": "view",
      "type": "function"
    },
    {
      "inputs": [],
      "name": "PAUSER_ROLE",
      "outputs": [
        {
          "internalType": "bytes32",
          "name": "",
          "type": "bytes32"
        }
      ],
      "stateMutability": "view",
      "type": "function"
    },
    {
      "inputs": [],
      "name": "UTILITY_ROLE",
      "outputs": [
        {
          "internalType": "bytes32",
          "name": "",
          "type": "bytes32"
        }
      ],
      "stateMutability": "view",
      "type": "function"
    },
    {
      "inputs": [],
      "name": "characterNFT",
      "outputs": [
        {
          "internalType": "address",
          "name": "",
          "type": "address"
        }
      ],
      "stateMutability": "view",
      "type": "function"
    },
    {
      "inputs": [
        {
          "internalType": "bytes32",
          "name": "role",
          "type": "bytes32"
        }
      ],
      "name": "getRoleAdmin",
      "outputs": [
        {
          "internalType": "bytes32",
          "name": "",
          "type": "bytes32"
        }
      ],
      "stateMutability": "view",
      "type": "function"
    },
    {
      "inputs": [
        {
          "internalType": "bytes32",
          "name": "role",
          "type": "bytes32"
        },
        {
          "internalType": "address",
          "name": "account",
          "type": "address"
        }
      ],
      "name": "grantRole",
      "outputs": [],
      "stateMutability": "nonpayable",
      "type": "function"
    },
    {
      "inputs": [
        {
          "internalType": "bytes32",
          "name": "role",
          "type": "bytes32"
        },
        {
          "internalType": "address",
          "name": "account",
          "type": "address"
        }
      ],
      "name": "hasRole",
      "outputs": [
        {
          "internalType": "bool",
          "name": "",
          "type": "bool"
        }
      ],
      "stateMutability": "view",
      "type": "function"
    },
    {
      "inputs": [
        {
          "internalType": "address",
          "name": "initialOwner",
          "type": "address"
        }
      ],
      "name": "initialize",
      "outputs": [],
      "stateMutability": "nonpayable",
      "type": "function"
    },
    {
      "inputs": [
        {
          "internalType": "uint256[]",
          "name": "amounts",
          "type": "uint256[]"
        },
        {
          "internalType": "address[]",
          "name": "toAddresses",
          "type": "address[]"
        },
        {
          "internalType": "enum CharacterNFTManager.CharacterClass[]",
          "name": "charTypes",
          "type": "uint8[]"
        }
      ],
      "name": "mintBatch",
      "outputs": [],
      "stateMutability": "nonpayable",
      "type": "function"
    },
    {
      "inputs": [
        {
          "internalType": "uint256",
          "name": "amount",
          "type": "uint256"
        },
        {
          "internalType": "address",
          "name": "to",
          "type": "address"
        },
        {
          "internalType": "enum CharacterNFTManager.CharacterClass",
          "name": "charType",
          "type": "uint8"
        }
      ],
      "name": "mintCharacterPrivate",
      "outputs": [],
      "stateMutability": "nonpayable",
      "type": "function"
    },
    {
      "inputs": [
        {
          "internalType": "uint256",
          "name": "amount",
          "type": "uint256"
        },
        {
          "internalType": "enum CharacterNFTManager.CharacterClass",
          "name": "charType",
          "type": "uint8"
        }
      ],
      "name": "mintCharacterPublic",
      "outputs": [],
      "stateMutability": "payable",
      "type": "function"
    },
    {
      "inputs": [],
      "name": "pause",
      "outputs": [],
      "stateMutability": "nonpayable",
      "type": "function"
    },
    {
      "inputs": [],
      "name": "paused",
      "outputs": [
        {
          "internalType": "bool",
          "name": "",
          "type": "bool"
        }
      ],
      "stateMutability": "view",
      "type": "function"
    },
    {
      "inputs": [],
      "name": "pricePerMint",
      "outputs": [
        {
          "internalType": "uint256",
          "name": "",
          "type": "uint256"
        }
      ],
      "stateMutability": "view",
      "type": "function"
    },
    {
      "inputs": [
        {
          "internalType": "bytes32",
          "name": "role",
          "type": "bytes32"
        },
        {
          "internalType": "address",
          "name": "callerConfirmation",
          "type": "address"
        }
      ],
      "name": "renounceRole",
      "outputs": [],
      "stateMutability": "nonpayable",
      "type": "function"
    },
    {
      "inputs": [
        {
          "internalType": "bytes32",
          "name": "role",
          "type": "bytes32"
        },
        {
          "internalType": "address",
          "name": "account",
          "type": "address"
        }
      ],
      "name": "revokeRole",
      "outputs": [],
      "stateMutability": "nonpayable",
      "type": "function"
    },
    {
      "inputs": [
        {
          "internalType": "address",
          "name": "_characterNFT",
          "type": "address"
        }
      ],
      "name": "setCharacterNFT",
      "outputs": [],
      "stateMutability": "nonpayable",
      "type": "function"
    },
    {
      "inputs": [
        {
          "internalType": "uint256",
          "name": "_pricePerMint",
          "type": "uint256"
        }
      ],
      "name": "setPricePerMint",
      "outputs": [],
      "stateMutability": "nonpayable",
      "type": "function"
    },
    {
      "inputs": [
        {
          "internalType": "bytes4",
          "name": "interfaceId",
          "type": "bytes4"
        }
      ],
      "name": "supportsInterface",
      "outputs": [
        {
          "internalType": "bool",
          "name": "",
          "type": "bool"
        }
      ],
      "stateMutability": "view",
      "type": "function"
    },
    {
      "inputs": [],
      "name": "tokenIdCounter",
      "outputs": [
        {
          "internalType": "uint256",
          "name": "",
          "type": "uint256"
        }
      ],
      "stateMutability": "view",
      "type": "function"
    },
    {
      "inputs": [
        {
          "internalType": "uint256",
          "name": "",
          "type": "uint256"
        }
      ],
      "name": "tokenIdToCharacterClass",
      "outputs": [
        {
          "internalType": "enum CharacterNFTManager.CharacterClass",
          "name": "",
          "type": "uint8"
        }
      ],
      "stateMutability": "view",
      "type": "function"
    },
    {
      "inputs": [],
      "name": "unpause",
      "outputs": [],
      "stateMutability": "nonpayable",
      "type": "function"
    },
    {
      "inputs": [],
      "name": "withdraw",
      "outputs": [],
      "stateMutability": "nonpayable",
      "type": "function"
    }
  ],
  "bytecode": "0x608060405234801561001057600080fd5b50611384806100206000396000f3fe6080604052600436106101815760003560e01c80638f296759116100d1578063d049963e1161008a578063e524145b11610064578063e524145b14610472578063e58378bb14610485578063e63ab1e9146104a7578063f7a763c4146104c957600080fd5b8063d049963e14610410578063d539139314610430578063d547741f1461045257600080fd5b80638f2967591461035b57806391d148541461038f57806398bdf6f5146103af578063a217fddf146103c5578063c4d66de8146103da578063c5610a29146103fa57600080fd5b80633ccfd60b1161013e5780635c975abb116101185780635c975abb146102cd5780637174326a146102f257806375b238fc146103125780638456cb591461034657600080fd5b80633ccfd60b146102835780633f4ba83a146102985780635c75cadb146102ad57600080fd5b806301466bc01461018657806301ffc9a7146101a8578063248a9ca3146101dd5780632f2ff15d1461020b57806336568abe1461022b578063384d10ee1461024b575b600080fd5b34801561019257600080fd5b506101a66101a1366004610ff8565b610506565b005b3480156101b457600080fd5b506101c86101c3366004611011565b610524565b60405190151581526020015b60405180910390f35b3480156101e957600080fd5b506101fd6101f8366004610ff8565b61055b565b6040519081526020016101d4565b34801561021757600080fd5b506101a661022636600461105e565b61057d565b34801561023757600080fd5b506101a661024636600461105e565b61059f565b34801561025757600080fd5b5060355461026b906001600160a01b031681565b6040516001600160a01b0390911681526020016101d4565b34801561028f57600080fd5b506101a66105d7565b3480156102a457600080fd5b506101a661061f565b3480156102b957600080fd5b506101a66102c836600461108a565b610642565b3480156102d957600080fd5b5060008051602061132f8339815191525460ff166101c8565b3480156102fe57600080fd5b506101a661030d3660046110f1565b61067d565b34801561031e57600080fd5b506101fd7fa49807205ce4d355092ef5a8a18f56e8913cf4a201fbe287825b095693c2177581565b34801561035257600080fd5b506101a6610758565b34801561036757600080fd5b506101fd7f35af5b5a3fb4c88a8cb5e26e8a68a53cc8f6cafcc4000a1db1ae5753e25a168e81565b34801561039b57600080fd5b506101c86103aa36600461105e565b610778565b3480156103bb57600080fd5b506101fd60325481565b3480156103d157600080fd5b506101fd600081565b3480156103e657600080fd5b506101a66103f536600461108a565b6107b0565b34801561040657600080fd5b506101fd60345481565b34801561041c57600080fd5b506101a661042b36600461119a565b6108c0565b34801561043c57600080fd5b506101fd6000805160206112ef83398151915281565b34801561045e57600080fd5b506101a661046d36600461105e565b6108e3565b6101a66104803660046111d6565b6108ff565b34801561049157600080fd5b506101fd6000805160206112af83398151915281565b3480156104b357600080fd5b506101fd6000805160206112cf83398151915281565b3480156104d557600080fd5b506104f96104e4366004610ff8565b60336020526000908152604090205460ff1681565b6040516101d4919061120f565b6000805160206112af83398151915261051e81610a97565b50603455565b60006001600160e01b03198216637965db0b60e01b148061055557506301ffc9a760e01b6001600160e01b03198316145b92915050565b600090815260008051602061130f833981519152602052604090206001015490565b6105868261055b565b61058f81610a97565b6105998383610aa1565b50505050565b6001600160a01b03811633146105c85760405163334bd91960e11b815260040160405180910390fd5b6105d28282610b46565b505050565b6000805160206112af8339815191526105ef81610a97565b60405133904780156108fc02916000818181858888f1935050505015801561061b573d6000803e3d6000fd5b5050565b6000805160206112cf83398151915261063781610a97565b61063f610bc2565b50565b6000805160206112af83398151915261065a81610a97565b50603580546001600160a01b0319166001600160a01b0392909216919091179055565b6000805160206112ef83398151915261069581610a97565b85841415806106a45750858214155b156106c25760405163516e361d60e11b815260040160405180910390fd5b60005b8681101561074e5761073c8888838181106106e2576106e2611237565b905060200201358787848181106106fb576106fb611237565b9050602002016020810190610710919061108a565b86868581811061072257610722611237565b9050602002016020810190610737919061124d565b610c22565b806107468161127e565b9150506106c5565b5050505050505050565b6000805160206112cf83398151915261077081610a97565b61063f610d3d565b600091825260008051602061130f833981519152602090815260408084206001600160a01b0393909316845291905290205460ff1690565b7ff0c57e16840df040f15088dc2f81fe391c3923bec73e23a9662efc9c229c6a008054600160401b810460ff16159067ffffffffffffffff166000811580156107f65750825b905060008267ffffffffffffffff1660011480156108135750303b155b905081158015610821575080155b1561083f5760405163f92ee8a960e01b815260040160405180910390fd5b845467ffffffffffffffff19166001178555831561086957845460ff60401b1916600160401b1785555b61087286610d86565b83156108b857845460ff60401b19168555604051600181527fc7f505b2f371ae2175ee4913f4499e1f2633a7b5936321eed1cdaeb6115181d29060200160405180910390a15b505050505050565b6000805160206112ef8339815191526108d881610a97565b610599848484610c22565b6108ec8261055b565b6108f581610a97565b6105998383610b46565b610907610e52565b61090f610e85565b6000816007811115610923576109236111f9565b0361094157604051632adf37a360e11b815260040160405180910390fd5b816000036109625760405163516e361d60e11b815260040160405180910390fd5b816034546109709190611297565b3410156109a25760345460405162fae2d560e21b81526004810191909152602481018390526044015b60405180910390fd5b60005b82811015610a6d57603280549060006109bd8361127e565b90915550506032546000818152603360205260409020805484919060ff191660018360078111156109f0576109f06111f9565b02179055506035546040516394bf804d60e01b8152600481018390523360248201526001600160a01b03909116906394bf804d90604401600060405180830381600087803b158015610a4157600080fd5b505af1158015610a55573d6000803e3d6000fd5b50505050508080610a659061127e565b9150506109a5565b5061061b60017f9b779b17422d0df92223018b32b4d1fa46e071723d6817e2486d003becc55f0055565b61063f8133610ef5565b600060008051602061130f833981519152610abc8484610778565b610b3c576000848152602082815260408083206001600160a01b03871684529091529020805460ff19166001179055610af23390565b6001600160a01b0316836001600160a01b0316857f2f8788117e7eff1d82e926ec794901d17c78024a50270940304540a733656f0d60405160405180910390a46001915050610555565b6000915050610555565b600060008051602061130f833981519152610b618484610778565b15610b3c576000848152602082815260408083206001600160a01b0387168085529252808320805460ff1916905551339287917ff6391f5c32d9c69d2a47ea670b442974b53935d1edc7fd64eb21e047a839171b9190a46001915050610555565b610bca610f2e565b60008051602061132f833981519152805460ff191681557f5db9ee0a495bf2e6ff9c91a7834c1ba4fdd244a5e8aa4e537bd38aeae4b073aa335b6040516001600160a01b03909116815260200160405180910390a150565b6000816007811115610c3657610c366111f9565b1480610c40575082155b80610c5257506001600160a01b038216155b15610c705760405163516e361d60e11b815260040160405180910390fd5b60005b838110156105995760328054906000610c8b8361127e565b90915550506032546000818152603360205260409020805484919060ff19166001836007811115610cbe57610cbe6111f9565b02179055506035546040516394bf804d60e01b8152600481018390526001600160a01b038681166024830152909116906394bf804d90604401600060405180830381600087803b158015610d1157600080fd5b505af1158015610d25573d6000803e3d6000fd5b50505050508080610d359061127e565b915050610c73565b610d45610e52565b60008051602061132f833981519152805460ff191660011781557f62e78cea01bee320cd4e420270b5ea74000d11b0c9f74754ebdbfc544b05a25833610c04565b610d8e610f5e565b610d96610fa7565b610d9e610fb7565b610da6610fbf565b610db1600082610aa1565b50610dca6000805160206112cf83398151915282610aa1565b50610de36000805160206112af83398151915282610aa1565b50610dfc6000805160206112ef83398151915282610aa1565b50610e277fa49807205ce4d355092ef5a8a18f56e8913cf4a201fbe287825b095693c2177582610aa1565b5061061b7f35af5b5a3fb4c88a8cb5e26e8a68a53cc8f6cafcc4000a1db1ae5753e25a168e82610aa1565b60008051602061132f8339815191525460ff1615610e835760405163d93c066560e01b815260040160405180910390fd5b565b7f9b779b17422d0df92223018b32b4d1fa46e071723d6817e2486d003becc55f00805460011901610ec957604051633ee5aeb560e01b815260040160405180910390fd5b60029055565b60017f9b779b17422d0df92223018b32b4d1fa46e071723d6817e2486d003becc55f0055565b610eff8282610778565b61061b5760405163e2517d3f60e01b81526001600160a01b038216600482015260248101839052604401610999565b60008051602061132f8339815191525460ff16610e8357604051638dfc202b60e01b815260040160405180910390fd5b7ff0c57e16840df040f15088dc2f81fe391c3923bec73e23a9662efc9c229c6a0054600160401b900460ff16610e8357604051631afcd79f60e31b815260040160405180910390fd5b610faf610f5e565b610e83610fcf565b610e83610f5e565b610fc7610f5e565b610e83610ff0565b610fd7610f5e565b60008051602061132f833981519152805460ff19169055565b610ecf610f5e565b60006020828403121561100a57600080fd5b5035919050565b60006020828403121561102357600080fd5b81356001600160e01b03198116811461103b57600080fd5b9392505050565b80356001600160a01b038116811461105957600080fd5b919050565b6000806040838503121561107157600080fd5b8235915061108160208401611042565b90509250929050565b60006020828403121561109c57600080fd5b61103b82611042565b60008083601f8401126110b757600080fd5b50813567ffffffffffffffff8111156110cf57600080fd5b6020830191508360208260051b85010111156110ea57600080fd5b9250929050565b6000806000806000806060878903121561110a57600080fd5b863567ffffffffffffffff8082111561112257600080fd5b61112e8a838b016110a5565b9098509650602089013591508082111561114757600080fd5b6111538a838b016110a5565b9096509450604089013591508082111561116c57600080fd5b5061117989828a016110a5565b979a9699509497509295939492505050565b80356008811061105957600080fd5b6000806000606084860312156111af57600080fd5b833592506111bf60208501611042565b91506111cd6040850161118b565b90509250925092565b600080604083850312156111e957600080fd5b823591506110816020840161118b565b634e487b7160e01b600052602160045260246000fd5b602081016008831061123157634e487b7160e01b600052602160045260246000fd5b91905290565b634e487b7160e01b600052603260045260246000fd5b60006020828403121561125f57600080fd5b61103b8261118b565b634e487b7160e01b600052601160045260246000fd5b60006001820161129057611290611268565b5060010190565b80820281158282048414176105555761055561126856feb19546dff01e856fb3f010c267a7b1c60363cf8a4664e21cc89c26224620214e65d7a28e3265b37a6474929f336521b332c1681b933f6cb9f3376673440d862a9f2df0fed2c77648de5860a4cc508cd0818c85b8b8a1ab4ceeef8d981c8956a602dd7bc7dec4dceedda775e58dd541e08a116c6c53815c0bd028192f7b626800cd5ed15c6e187e77e9aee88184c21f4f2182ab5827cb3b7e07fbedcd63f03300a264697066735822122084b92971efd27a70126fc7b9f1f87bda26058301afffb4bd8220f963f58c3bb264736f6c63430008140033",
  "linkReferences": {},
  "deployedLinkReferences": {}
}