{
  "_format": "hh-sol-artifact-1",
  "contractName": "CharacterNFTTokenURI",
  "sourceName": "contracts/erc721/CharacterNFTTokenURI.sol",
  "abi": [
    {
      "inputs": [],
      "name": "AccessControlBadConfirmation",
      "type": "error"
    },
    {
      "inputs": [
        {
          "internalType": "address",
          "name": "account",
          "type": "address"
        },
        {
          "internalType": "bytes32",
          "name": "neededRole",
          "type": "bytes32"
        }
      ],
      "name": "AccessControlUnauthorizedAccount",
      "type": "error"
    },
    {
      "inputs": [],
      "name": "EnforcedPause",
      "type": "error"
    },
    {
      "inputs": [],
      "name": "ExpectedPause",
      "type": "error"
    },
    {
      "inputs": [],
      "name": "InvalidInitialization",
      "type": "error"
    },
    {
      "inputs": [],
      "name": "InvalidValues",
      "type": "error"
    },
    {
      "inputs": [],
      "name": "NotInitializing",
      "type": "error"
    },
    {
      "inputs": [],
      "name": "ReentrancyGuardReentrantCall",
      "type": "error"
    },
    {
      "anonymous": false,
      "inputs": [
        {
          "indexed": false,
          "internalType": "uint64",
          "name": "version",
          "type": "uint64"
        }
      ],
      "name": "Initialized",
      "type": "event"
    },
    {
      "anonymous": false,
      "inputs": [
        {
          "indexed": false,
          "internalType": "address",
          "name": "account",
          "type": "address"
        }
      ],
      "name": "Paused",
      "type": "event"
    },
    {
      "anonymous": false,
      "inputs": [
        {
          "indexed": true,
          "internalType": "bytes32",
          "name": "role",
          "type": "bytes32"
        },
        {
          "indexed": true,
          "internalType": "bytes32",
          "name": "previousAdminRole",
          "type": "bytes32"
        },
        {
          "indexed": true,
          "internalType": "bytes32",
          "name": "newAdminRole",
          "type": "bytes32"
        }
      ],
      "name": "RoleAdminChanged",
      "type": "event"
    },
    {
      "anonymous": false,
      "inputs": [
        {
          "indexed": true,
          "internalType": "bytes32",
          "name": "role",
          "type": "bytes32"
        },
        {
          "indexed": true,
          "internalType": "address",
          "name": "account",
          "type": "address"
        },
        {
          "indexed": true,
          "internalType": "address",
          "name": "sender",
          "type": "address"
        }
      ],
      "name": "RoleGranted",
      "type": "event"
    },
    {
      "anonymous": false,
      "inputs": [
        {
          "indexed": true,
          "internalType": "bytes32",
          "name": "role",
          "type": "bytes32"
        },
        {
          "indexed": true,
          "internalType": "address",
          "name": "account",
          "type": "address"
        },
        {
          "indexed": true,
          "internalType": "address",
          "name": "sender",
          "type": "address"
        }
      ],
      "name": "RoleRevoked",
      "type": "event"
    },
    {
      "anonymous": false,
      "inputs": [
        {
          "indexed": false,
          "internalType": "address",
          "name": "account",
          "type": "address"
        }
      ],
      "name": "Unpaused",
      "type": "event"
    },
    {
      "inputs": [],
      "name": "ADMIN_ROLE",
      "outputs": [
        {
          "internalType": "bytes32",
          "name": "",
          "type": "bytes32"
        }
      ],
      "stateMutability": "view",
      "type": "function"
    },
    {
      "inputs": [],
      "name": "DEFAULT_ADMIN_ROLE",
      "outputs": [
        {
          "internalType": "bytes32",
          "name": "",
          "type": "bytes32"
        }
      ],
      "stateMutability": "view",
      "type": "function"
    },
    {
      "inputs": [],
      "name": "MINTER_ROLE",
      "outputs": [
        {
          "internalType": "bytes32",
          "name": "",
          "type": "bytes32"
        }
      ],
      "stateMutability": "view",
      "type": "function"
    },
    {
      "inputs": [],
      "name": "OWNER_ROLE",
      "outputs": [
        {
          "internalType": "bytes32",
          "name": "",
          "type": "bytes32"
        }
      ],
      "stateMutability": "view",
      "type": "function"
    },
    {
      "inputs": [],
      "name": "PAUSER_ROLE",
      "outputs": [
        {
          "internalType": "bytes32",
          "name": "",
          "type": "bytes32"
        }
      ],
      "stateMutability": "view",
      "type": "function"
    },
    {
      "inputs": [],
      "name": "UTILITY_ROLE",
      "outputs": [
        {
          "internalType": "bytes32",
          "name": "",
          "type": "bytes32"
        }
      ],
      "stateMutability": "view",
      "type": "function"
    },
    {
      "inputs": [],
      "name": "characterNFT",
      "outputs": [
        {
          "internalType": "address",
          "name": "",
          "type": "address"
        }
      ],
      "stateMutability": "view",
      "type": "function"
    },
    {
      "inputs": [
        {
          "internalType": "bytes32",
          "name": "role",
          "type": "bytes32"
        }
      ],
      "name": "getRoleAdmin",
      "outputs": [
        {
          "internalType": "bytes32",
          "name": "",
          "type": "bytes32"
        }
      ],
      "stateMutability": "view",
      "type": "function"
    },
    {
      "inputs": [
        {
          "internalType": "bytes32",
          "name": "role",
          "type": "bytes32"
        },
        {
          "internalType": "address",
          "name": "account",
          "type": "address"
        }
      ],
      "name": "grantRole",
      "outputs": [],
      "stateMutability": "nonpayable",
      "type": "function"
    },
    {
      "inputs": [
        {
          "internalType": "bytes32",
          "name": "role",
          "type": "bytes32"
        },
        {
          "internalType": "address",
          "name": "account",
          "type": "address"
        }
      ],
      "name": "hasRole",
      "outputs": [
        {
          "internalType": "bool",
          "name": "",
          "type": "bool"
        }
      ],
      "stateMutability": "view",
      "type": "function"
    },
    {
      "inputs": [
        {
          "internalType": "address",
          "name": "initialOwner",
          "type": "address"
        }
      ],
      "name": "initialize",
      "outputs": [],
      "stateMutability": "nonpayable",
      "type": "function"
    },
    {
      "inputs": [],
      "name": "levelContractAddress",
      "outputs": [
        {
          "internalType": "address",
          "name": "",
          "type": "address"
        }
      ],
      "stateMutability": "view",
      "type": "function"
    },
    {
      "inputs": [],
      "name": "pause",
      "outputs": [],
      "stateMutability": "nonpayable",
      "type": "function"
    },
    {
      "inputs": [],
      "name": "paused",
      "outputs": [
        {
          "internalType": "bool",
          "name": "",
          "type": "bool"
        }
      ],
      "stateMutability": "view",
      "type": "function"
    },
    {
      "inputs": [
        {
          "internalType": "bytes32",
          "name": "role",
          "type": "bytes32"
        },
        {
          "internalType": "address",
          "name": "callerConfirmation",
          "type": "address"
        }
      ],
      "name": "renounceRole",
      "outputs": [],
      "stateMutability": "nonpayable",
      "type": "function"
    },
    {
      "inputs": [
        {
          "internalType": "bytes32",
          "name": "role",
          "type": "bytes32"
        },
        {
          "internalType": "address",
          "name": "account",
          "type": "address"
        }
      ],
      "name": "revokeRole",
      "outputs": [],
      "stateMutability": "nonpayable",
      "type": "function"
    },
    {
      "inputs": [
        {
          "internalType": "address",
          "name": "_characterNFT",
          "type": "address"
        }
      ],
      "name": "setCharacterNFT",
      "outputs": [],
      "stateMutability": "nonpayable",
      "type": "function"
    },
    {
      "inputs": [
        {
          "internalType": "address",
          "name": "_levelContract",
          "type": "address"
        }
      ],
      "name": "setLevelContract",
      "outputs": [],
      "stateMutability": "nonpayable",
      "type": "function"
    },
    {
      "inputs": [
        {
          "internalType": "bytes4",
          "name": "interfaceId",
          "type": "bytes4"
        }
      ],
      "name": "supportsInterface",
      "outputs": [
        {
          "internalType": "bool",
          "name": "",
          "type": "bool"
        }
      ],
      "stateMutability": "view",
      "type": "function"
    },
    {
      "inputs": [
        {
          "internalType": "uint256",
          "name": "tokenId",
          "type": "uint256"
        }
      ],
      "name": "tokenURI",
      "outputs": [
        {
          "internalType": "string",
          "name": "",
          "type": "string"
        }
      ],
      "stateMutability": "view",
      "type": "function"
    },
    {
      "inputs": [],
      "name": "unpause",
      "outputs": [],
      "stateMutability": "nonpayable",
      "type": "function"
    }
  ],
  "bytecode": "0x608060405234801561001057600080fd5b50611888806100206000396000f3fe608060405234801561001057600080fd5b50600436106101375760003560e01c80638456cb59116100b8578063c87b56dd1161007c578063c87b56dd146102a2578063d5391393146102c2578063d547741f146102e9578063d9741275146102fc578063e58378bb1461030f578063e63ab1e91461032457600080fd5b80638456cb59146102455780638f2967591461024d57806391d1485414610274578063a217fddf14610287578063c4d66de81461028f57600080fd5b80633f4ba83a116100ff5780633f4ba83a146101d85780635adaa492146101e05780635c75cadb146101f35780635c975abb1461020657806375b238fc1461021e57600080fd5b806301ffc9a71461013c578063248a9ca3146101645780632f2ff15d1461018557806336568abe1461019a578063384d10ee146101ad575b600080fd5b61014f61014a366004611252565b610339565b60405190151581526020015b60405180910390f35b610177610172366004611283565b610370565b60405190815260200161015b565b6101986101933660046112b8565b610392565b005b6101986101a83660046112b8565b6103b4565b6032546101c0906001600160a01b031681565b6040516001600160a01b03909116815260200161015b565b6101986103ec565b6101986101ee3660046112e4565b61040f565b6101986102013660046112e4565b61044a565b6000805160206118338339815191525460ff1661014f565b6101777fa49807205ce4d355092ef5a8a18f56e8913cf4a201fbe287825b095693c2177581565b610198610485565b6101777f35af5b5a3fb4c88a8cb5e26e8a68a53cc8f6cafcc4000a1db1ae5753e25a168e81565b61014f6102823660046112b8565b6104a5565b610177600081565b61019861029d3660046112e4565b6104dd565b6102b56102b0366004611283565b6105ed565b60405161015b9190611323565b6101777f9f2df0fed2c77648de5860a4cc508cd0818c85b8b8a1ab4ceeef8d981c8956a681565b6101986102f73660046112b8565b6105f8565b6033546101c0906001600160a01b031681565b61017760008051602061179383398151915281565b6101776000805160206117f383398151915281565b60006001600160e01b03198216637965db0b60e01b148061036a57506301ffc9a760e01b6001600160e01b03198316145b92915050565b6000908152600080516020611813833981519152602052604090206001015490565b61039b82610370565b6103a481610614565b6103ae838361061e565b50505050565b6001600160a01b03811633146103dd5760405163334bd91960e11b815260040160405180910390fd5b6103e782826106c3565b505050565b6000805160206117f383398151915261040481610614565b61040c61073f565b50565b60008051602061179383398151915261042781610614565b50603380546001600160a01b0319166001600160a01b0392909216919091179055565b60008051602061179383398151915261046281610614565b50603280546001600160a01b0319166001600160a01b0392909216919091179055565b6000805160206117f383398151915261049d81610614565b61040c61079f565b6000918252600080516020611813833981519152602090815260408084206001600160a01b0393909316845291905290205460ff1690565b7ff0c57e16840df040f15088dc2f81fe391c3923bec73e23a9662efc9c229c6a008054600160401b810460ff16159067ffffffffffffffff166000811580156105235750825b905060008267ffffffffffffffff1660011480156105405750303b155b90508115801561054e575080155b1561056c5760405163f92ee8a960e01b815260040160405180910390fd5b845467ffffffffffffffff19166001178555831561059657845460ff60401b1916600160401b1785555b61059f866107e8565b83156105e557845460ff60401b19168555604051600181527fc7f505b2f371ae2175ee4913f4499e1f2633a7b5936321eed1cdaeb6115181d29060200160405180910390a15b505050505050565b606061036a826108ca565b61060182610370565b61060a81610614565b6103ae83836106c3565b61040c8133610e08565b600060008051602061181383398151915261063984846104a5565b6106b9576000848152602082815260408083206001600160a01b03871684529091529020805460ff1916600117905561066f3390565b6001600160a01b0316836001600160a01b0316857f2f8788117e7eff1d82e926ec794901d17c78024a50270940304540a733656f0d60405160405180910390a4600191505061036a565b600091505061036a565b60006000805160206118138339815191526106de84846104a5565b156106b9576000848152602082815260408083206001600160a01b0387168085529252808320805460ff1916905551339287917ff6391f5c32d9c69d2a47ea670b442974b53935d1edc7fd64eb21e047a839171b9190a4600191505061036a565b610747610e45565b600080516020611833833981519152805460ff191681557f5db9ee0a495bf2e6ff9c91a7834c1ba4fdd244a5e8aa4e537bd38aeae4b073aa335b6040516001600160a01b03909116815260200160405180910390a150565b6107a7610e77565b600080516020611833833981519152805460ff191660011781557f62e78cea01bee320cd4e420270b5ea74000d11b0c9f74754ebdbfc544b05a25833610781565b6107f0610ea8565b6107f8610ef1565b610800610f01565b610808610f09565b61081360008261061e565b5061082c6000805160206117f38339815191528261061e565b506108456000805160206117938339815191528261061e565b506108707f9f2df0fed2c77648de5860a4cc508cd0818c85b8b8a1ab4ceeef8d981c8956a68261061e565b5061089b7fa49807205ce4d355092ef5a8a18f56e8913cf4a201fbe287825b095693c217758261061e565b506108c67f35af5b5a3fb4c88a8cb5e26e8a68a53cc8f6cafcc4000a1db1ae5753e25a168e8261061e565b5050565b60408051602080820183526000825282518084018452600f81526e43686172616374657220436c61737360881b918101919091526032549251633ddfbd8b60e01b81526004810185905260609361097b92916001600160a01b0390911690633ddfbd8b90602401600060405180830381865afa15801561094e573d6000803e3d6000fd5b505050506040513d6000823e601f3d908101601f19168201604052610976919081019061136c565b610f19565b60405160200161098b9190611419565b60408051808303601f1901815290829052603354633404591760e21b8352600483018690529092506000916001600160a01b039091169063d011645c90602401602060405180830381865afa1580156109e8573d6000803e3d6000fd5b505050506040513d601f19601f82011682018060405250810190610a0c919061143e565b60335460405163c995a3b360e01b8152600481018790529192506000916001600160a01b039091169063c995a3b390602401602060405180830381865afa158015610a5b573d6000803e3d6000fd5b505050506040513d601f19601f82011682018060405250810190610a7f919061143e565b6040805160028082526060820190925291925060009190816020015b604080518082019091526060815260006020820152815260200190600190039081610a9b5750506040805160808101825260059181019182526413195d995b60da1b6060820152908152602081018590528151919250908290600090610b0357610b03611457565b6020026020010181905250604051806040016040528060405180604001604052806002815260200161058760f41b81525081526020018381525081600181518110610b5057610b50611457565b602002602001018190525060005b8151811015610c355760018251610b759190611483565b8103610bea5784610bc3838381518110610b9157610b91611457565b602002602001015160000151610976858581518110610bb257610bb2611457565b602002602001015160200151610f45565b604051602001610bd4929190611496565b6040516020818303038152906040529450610c23565b84610c00838381518110610b9157610b91611457565b604051602001610c119291906114c5565b60405160208183030381529060405294505b80610c2d81611500565b915050610b5e565b5060325460405163e725f87760e01b8152600481018890526000916001600160a01b03169063e725f87790602401600060405180830381865afa158015610c80573d6000803e3d6000fd5b505050506040513d6000823e601f3d908101601f19168201604052610ca8919081019061136c565b603254604051630637973b60e31b8152600481018a90526001600160a01b03909116906331bcb9d890602401600060405180830381865afa158015610cf1573d6000803e3d6000fd5b505050506040513d6000823e601f3d908101601f19168201604052610d19919081019061136c565b603254604051632d53785160e01b8152600481018b90526001600160a01b0390911690632d53785190602401600060405180830381865afa158015610d62573d6000803e3d6000fd5b505050506040513d6000823e601f3d908101601f19168201604052610d8a919081019061136c565b604051602001610d9c93929190611519565b604051602081830303815290604052905060008186604051602001610dc292919061161e565b6040516020818303038152906040529050610ddc81610fd8565b604051602001610dec919061168d565b6040516020818303038152906040529650505050505050919050565b610e1282826104a5565b6108c65760405163e2517d3f60e01b81526001600160a01b03821660048201526024810183905260440160405180910390fd5b6000805160206118338339815191525460ff16610e7557604051638dfc202b60e01b815260040160405180910390fd5b565b6000805160206118338339815191525460ff1615610e755760405163d93c066560e01b815260040160405180910390fd5b7ff0c57e16840df040f15088dc2f81fe391c3923bec73e23a9662efc9c229c6a0054600160401b900460ff16610e7557604051631afcd79f60e31b815260040160405180910390fd5b610ef9610ea8565b610e7561112b565b610e75610ea8565b610f11610ea8565b610e7561114c565b60608282604051602001610f2e9291906116d2565b604051602081830303815290604052905092915050565b60606000610f528361117a565b600101905060008167ffffffffffffffff811115610f7257610f72611356565b6040519080825280601f01601f191660200182016040528015610f9c576020820181803683370190505b5090508181016020015b600019016f181899199a1a9b1b9c1cb0b131b232b360811b600a86061a8153600a8504945084610fa657509392505050565b60608151600003610ff757505060408051602081019091526000815290565b60006040518060600160405280604081526020016117b360409139905060006003845160026110269190611746565b6110309190611759565b61103b90600461177b565b67ffffffffffffffff81111561105357611053611356565b6040519080825280601f01601f19166020018201604052801561107d576020820181803683370190505b509050600182016020820185865187015b808210156110e9576003820191508151603f8160121c168501518453600184019350603f81600c1c168501518453600184019350603f8160061c168501518453600184019350603f811685015184535060018301925061108e565b5050600386510660018114611105576002811461111857611120565b603d6001830353603d6002830353611120565b603d60018303535b509195945050505050565b611133610ea8565b600080516020611833833981519152805460ff19169055565b611154610ea8565b60017f9b779b17422d0df92223018b32b4d1fa46e071723d6817e2486d003becc55f0055565b60008072184f03e93ff9f4daa797ed6e38ed64bf6a1f0160401b83106111b95772184f03e93ff9f4daa797ed6e38ed64bf6a1f0160401b830492506040015b6d04ee2d6d415b85acef810000000083106111e5576d04ee2d6d415b85acef8100000000830492506020015b662386f26fc10000831061120357662386f26fc10000830492506010015b6305f5e100831061121b576305f5e100830492506008015b612710831061122f57612710830492506004015b60648310611241576064830492506002015b600a831061036a5760010192915050565b60006020828403121561126457600080fd5b81356001600160e01b03198116811461127c57600080fd5b9392505050565b60006020828403121561129557600080fd5b5035919050565b80356001600160a01b03811681146112b357600080fd5b919050565b600080604083850312156112cb57600080fd5b823591506112db6020840161129c565b90509250929050565b6000602082840312156112f657600080fd5b61127c8261129c565b60005b8381101561131a578181015183820152602001611302565b50506000910152565b60208152600082518060208401526113428160408501602087016112ff565b601f01601f19169190910160400192915050565b634e487b7160e01b600052604160045260246000fd5b60006020828403121561137e57600080fd5b815167ffffffffffffffff8082111561139657600080fd5b818401915084601f8301126113aa57600080fd5b8151818111156113bc576113bc611356565b604051601f8201601f19908116603f011681019083821181831017156113e4576113e4611356565b816040528281528760208487010111156113fd57600080fd5b61140e8360208301602088016112ff565b979650505050505050565b6000825161142b8184602087016112ff565b600b60fa1b920191825250600101919050565b60006020828403121561145057600080fd5b5051919050565b634e487b7160e01b600052603260045260246000fd5b634e487b7160e01b600052601160045260246000fd5b8181038181111561036a5761036a61146d565b600083516114a88184602088016112ff565b8351908301906114bc8183602088016112ff565b01949350505050565b600083516114d78184602088016112ff565b8351908301906114eb8183602088016112ff565b600b60fa1b9101908152600101949350505050565b6000600182016115125761151261146d565b5060010190565b67113730b6b2911d1160c11b8152835160009061153d8160088501602089016112ff565b61088b60f21b60089184019182018190526e113232b9b1b934b83a34b7b7111d1160891b600a8301528551611579816019850160208a016112ff565b60199201918201819052681134b6b0b3b2911d1160b91b601b83015284516115a88160248501602089016112ff565b60249201918201526f1132bc3a32b93730b62fbab936111d1160811b602682015261160a603682017f68747470733a2f2f646961626c6f2e66616e646f6d2e636f6d2f77696b692f448152676961626c6f5f494960c01b602082015260280190565b601160f91b81526001019695505050505050565b607b60f81b81526000835161163a8160018501602088016112ff565b600b60fa1b6001918401918201526d2261747472696275746573223a5b60901b600282015283516116728160108401602088016112ff565b615d7d60f01b60109290910191820152601201949350505050565b7f646174613a6170706c69636174696f6e2f6a736f6e3b6261736536342c0000008152600082516116c581601d8501602087016112ff565b91909101601d0192915050565b6f3d913a3930b4ba2fba3cb832911d101160811b815282516000906116fe8160108501602088016112ff565b6c111610113b30b63ab2911d101160991b601091840191820152835161172b81601d8401602088016112ff565b61227d60f01b601d9290910191820152601f01949350505050565b8082018082111561036a5761036a61146d565b60008261177657634e487b7160e01b600052601260045260246000fd5b500490565b808202811582820484141761036a5761036a61146d56feb19546dff01e856fb3f010c267a7b1c60363cf8a4664e21cc89c26224620214e4142434445464748494a4b4c4d4e4f505152535455565758595a6162636465666768696a6b6c6d6e6f707172737475767778797a303132333435363738392b2f65d7a28e3265b37a6474929f336521b332c1681b933f6cb9f3376673440d862a02dd7bc7dec4dceedda775e58dd541e08a116c6c53815c0bd028192f7b626800cd5ed15c6e187e77e9aee88184c21f4f2182ab5827cb3b7e07fbedcd63f03300a26469706673582212207c0574b691df93093d8dbed397a6922b4292dc3cd2dec5f10f1d59b5733e557464736f6c63430008140033",
  "linkReferences": {},
  "deployedLinkReferences": {}
}