{
  "_format": "hh-sol-artifact-1",
  "contractName": "ItemNFTTokenURI",
  "sourceName": "contracts/erc1155/ItemNFTTokenURI.sol",
  "abi": [
    {
      "inputs": [],
      "name": "AccessControlBadConfirmation",
      "type": "error"
    },
    {
      "inputs": [
        {
          "internalType": "address",
          "name": "account",
          "type": "address"
        },
        {
          "internalType": "bytes32",
          "name": "neededRole",
          "type": "bytes32"
        }
      ],
      "name": "AccessControlUnauthorizedAccount",
      "type": "error"
    },
    {
      "inputs": [],
      "name": "EnforcedPause",
      "type": "error"
    },
    {
      "inputs": [],
      "name": "ExpectedPause",
      "type": "error"
    },
    {
      "inputs": [],
      "name": "InvalidInitialization",
      "type": "error"
    },
    {
      "inputs": [],
      "name": "InvalidValues",
      "type": "error"
    },
    {
      "inputs": [],
      "name": "NotInitializing",
      "type": "error"
    },
    {
      "inputs": [],
      "name": "ReentrancyGuardReentrantCall",
      "type": "error"
    },
    {
      "anonymous": false,
      "inputs": [
        {
          "indexed": false,
          "internalType": "uint64",
          "name": "version",
          "type": "uint64"
        }
      ],
      "name": "Initialized",
      "type": "event"
    },
    {
      "anonymous": false,
      "inputs": [
        {
          "indexed": true,
          "internalType": "uint256",
          "name": "itemId",
          "type": "uint256"
        },
        {
          "components": [
            {
              "internalType": "string",
              "name": "name",
              "type": "string"
            },
            {
              "internalType": "string",
              "name": "description",
              "type": "string"
            },
            {
              "internalType": "string",
              "name": "image",
              "type": "string"
            },
            {
              "internalType": "string",
              "name": "externalUrl",
              "type": "string"
            },
            {
              "internalType": "string",
              "name": "animationUrl",
              "type": "string"
            }
          ],
          "indexed": false,
          "internalType": "struct ItemNFTTokenURI.ItemAttributes",
          "name": "uriData",
          "type": "tuple"
        }
      ],
      "name": "ItemURISet",
      "type": "event"
    },
    {
      "anonymous": false,
      "inputs": [
        {
          "indexed": false,
          "internalType": "address",
          "name": "account",
          "type": "address"
        }
      ],
      "name": "Paused",
      "type": "event"
    },
    {
      "anonymous": false,
      "inputs": [
        {
          "indexed": true,
          "internalType": "bytes32",
          "name": "role",
          "type": "bytes32"
        },
        {
          "indexed": true,
          "internalType": "bytes32",
          "name": "previousAdminRole",
          "type": "bytes32"
        },
        {
          "indexed": true,
          "internalType": "bytes32",
          "name": "newAdminRole",
          "type": "bytes32"
        }
      ],
      "name": "RoleAdminChanged",
      "type": "event"
    },
    {
      "anonymous": false,
      "inputs": [
        {
          "indexed": true,
          "internalType": "bytes32",
          "name": "role",
          "type": "bytes32"
        },
        {
          "indexed": true,
          "internalType": "address",
          "name": "account",
          "type": "address"
        },
        {
          "indexed": true,
          "internalType": "address",
          "name": "sender",
          "type": "address"
        }
      ],
      "name": "RoleGranted",
      "type": "event"
    },
    {
      "anonymous": false,
      "inputs": [
        {
          "indexed": true,
          "internalType": "bytes32",
          "name": "role",
          "type": "bytes32"
        },
        {
          "indexed": true,
          "internalType": "address",
          "name": "account",
          "type": "address"
        },
        {
          "indexed": true,
          "internalType": "address",
          "name": "sender",
          "type": "address"
        }
      ],
      "name": "RoleRevoked",
      "type": "event"
    },
    {
      "anonymous": false,
      "inputs": [
        {
          "indexed": false,
          "internalType": "address",
          "name": "account",
          "type": "address"
        }
      ],
      "name": "Unpaused",
      "type": "event"
    },
    {
      "inputs": [],
      "name": "ADMIN_ROLE",
      "outputs": [
        {
          "internalType": "bytes32",
          "name": "",
          "type": "bytes32"
        }
      ],
      "stateMutability": "view",
      "type": "function"
    },
    {
      "inputs": [],
      "name": "DEFAULT_ADMIN_ROLE",
      "outputs": [
        {
          "internalType": "bytes32",
          "name": "",
          "type": "bytes32"
        }
      ],
      "stateMutability": "view",
      "type": "function"
    },
    {
      "inputs": [],
      "name": "MINTER_ROLE",
      "outputs": [
        {
          "internalType": "bytes32",
          "name": "",
          "type": "bytes32"
        }
      ],
      "stateMutability": "view",
      "type": "function"
    },
    {
      "inputs": [],
      "name": "OWNER_ROLE",
      "outputs": [
        {
          "internalType": "bytes32",
          "name": "",
          "type": "bytes32"
        }
      ],
      "stateMutability": "view",
      "type": "function"
    },
    {
      "inputs": [],
      "name": "PAUSER_ROLE",
      "outputs": [
        {
          "internalType": "bytes32",
          "name": "",
          "type": "bytes32"
        }
      ],
      "stateMutability": "view",
      "type": "function"
    },
    {
      "inputs": [],
      "name": "UTILITY_ROLE",
      "outputs": [
        {
          "internalType": "bytes32",
          "name": "",
          "type": "bytes32"
        }
      ],
      "stateMutability": "view",
      "type": "function"
    },
    {
      "inputs": [
        {
          "internalType": "bytes32",
          "name": "role",
          "type": "bytes32"
        }
      ],
      "name": "getRoleAdmin",
      "outputs": [
        {
          "internalType": "bytes32",
          "name": "",
          "type": "bytes32"
        }
      ],
      "stateMutability": "view",
      "type": "function"
    },
    {
      "inputs": [
        {
          "internalType": "bytes32",
          "name": "role",
          "type": "bytes32"
        },
        {
          "internalType": "address",
          "name": "account",
          "type": "address"
        }
      ],
      "name": "grantRole",
      "outputs": [],
      "stateMutability": "nonpayable",
      "type": "function"
    },
    {
      "inputs": [
        {
          "internalType": "bytes32",
          "name": "role",
          "type": "bytes32"
        },
        {
          "internalType": "address",
          "name": "account",
          "type": "address"
        }
      ],
      "name": "hasRole",
      "outputs": [
        {
          "internalType": "bool",
          "name": "",
          "type": "bool"
        }
      ],
      "stateMutability": "view",
      "type": "function"
    },
    {
      "inputs": [
        {
          "internalType": "address",
          "name": "initialOwner",
          "type": "address"
        }
      ],
      "name": "initialize",
      "outputs": [],
      "stateMutability": "nonpayable",
      "type": "function"
    },
    {
      "inputs": [
        {
          "internalType": "uint256",
          "name": "",
          "type": "uint256"
        }
      ],
      "name": "itemIdToURI",
      "outputs": [
        {
          "internalType": "string",
          "name": "name",
          "type": "string"
        },
        {
          "internalType": "string",
          "name": "description",
          "type": "string"
        },
        {
          "internalType": "string",
          "name": "image",
          "type": "string"
        },
        {
          "internalType": "string",
          "name": "externalUrl",
          "type": "string"
        },
        {
          "internalType": "string",
          "name": "animationUrl",
          "type": "string"
        }
      ],
      "stateMutability": "view",
      "type": "function"
    },
    {
      "inputs": [],
      "name": "pause",
      "outputs": [],
      "stateMutability": "nonpayable",
      "type": "function"
    },
    {
      "inputs": [],
      "name": "paused",
      "outputs": [
        {
          "internalType": "bool",
          "name": "",
          "type": "bool"
        }
      ],
      "stateMutability": "view",
      "type": "function"
    },
    {
      "inputs": [
        {
          "internalType": "bytes32",
          "name": "role",
          "type": "bytes32"
        },
        {
          "internalType": "address",
          "name": "callerConfirmation",
          "type": "address"
        }
      ],
      "name": "renounceRole",
      "outputs": [],
      "stateMutability": "nonpayable",
      "type": "function"
    },
    {
      "inputs": [
        {
          "internalType": "bytes32",
          "name": "role",
          "type": "bytes32"
        },
        {
          "internalType": "address",
          "name": "account",
          "type": "address"
        }
      ],
      "name": "revokeRole",
      "outputs": [],
      "stateMutability": "nonpayable",
      "type": "function"
    },
    {
      "inputs": [
        {
          "internalType": "uint256",
          "name": "itemId",
          "type": "uint256"
        },
        {
          "components": [
            {
              "internalType": "string",
              "name": "name",
              "type": "string"
            },
            {
              "internalType": "string",
              "name": "description",
              "type": "string"
            },
            {
              "internalType": "string",
              "name": "image",
              "type": "string"
            },
            {
              "internalType": "string",
              "name": "externalUrl",
              "type": "string"
            },
            {
              "internalType": "string",
              "name": "animationUrl",
              "type": "string"
            }
          ],
          "internalType": "struct ItemNFTTokenURI.ItemAttributes",
          "name": "itemAttributes",
          "type": "tuple"
        }
      ],
      "name": "setItemAttributes",
      "outputs": [],
      "stateMutability": "nonpayable",
      "type": "function"
    },
    {
      "inputs": [
        {
          "internalType": "bytes4",
          "name": "interfaceId",
          "type": "bytes4"
        }
      ],
      "name": "supportsInterface",
      "outputs": [
        {
          "internalType": "bool",
          "name": "",
          "type": "bool"
        }
      ],
      "stateMutability": "view",
      "type": "function"
    },
    {
      "inputs": [],
      "name": "unpause",
      "outputs": [],
      "stateMutability": "nonpayable",
      "type": "function"
    },
    {
      "inputs": [
        {
          "internalType": "uint256",
          "name": "tokenId",
          "type": "uint256"
        }
      ],
      "name": "uri",
      "outputs": [
        {
          "internalType": "string",
          "name": "",
          "type": "string"
        }
      ],
      "stateMutability": "view",
      "type": "function"
    }
  ],
  "bytecode": "0x608060405234801561001057600080fd5b50611c5d806100206000396000f3fe608060405234801561001057600080fd5b50600436106101215760003560e01c80638456cb59116100ad578063d4e1106511610071578063d4e110651461026e578063d539139314610292578063d547741f146102b9578063e58378bb146102cc578063e63ab1e9146102f357600080fd5b80638456cb59146102115780638f2967591461021957806391d1485414610240578063a217fddf14610253578063c4d66de81461025b57600080fd5b806336568abe116100f457806336568abe146101a45780633f4ba83a146101b75780635029dc5b146101bf5780635c975abb146101d257806375b238fc146101ea57600080fd5b806301ffc9a7146101265780630e89341c1461014e578063248a9ca31461016e5780632f2ff15d1461018f575b600080fd5b6101396101343660046113f8565b610308565b60405190151581526020015b60405180910390f35b61016161015c366004611429565b61033f565b6040516101459190611492565b61018161017c366004611429565b61034a565b604051908152602001610145565b6101a261019d3660046114c1565b61036c565b005b6101a26101b23660046114c1565b61038e565b6101a26103c6565b6101a26101cd3660046115b9565b6103e9565b600080516020611c088339815191525460ff16610139565b6101817fa49807205ce4d355092ef5a8a18f56e8913cf4a201fbe287825b095693c2177581565b6101a26104c7565b6101817f35af5b5a3fb4c88a8cb5e26e8a68a53cc8f6cafcc4000a1db1ae5753e25a168e81565b61013961024e3660046114c1565b6104e7565b610181600081565b6101a26102693660046116c2565b61051f565b61028161027c366004611429565b61062f565b6040516101459594939291906116dd565b6101817f9f2df0fed2c77648de5860a4cc508cd0818c85b8b8a1ab4ceeef8d981c8956a681565b6101a26102c73660046114c1565b610905565b6101817fb19546dff01e856fb3f010c267a7b1c60363cf8a4664e21cc89c26224620214e81565b610181600080516020611bc883398151915281565b60006001600160e01b03198216637965db0b60e01b148061033957506301ffc9a760e01b6001600160e01b03198316145b92915050565b606061033982610921565b6000908152600080516020611be8833981519152602052604090206001015490565b6103758261034a565b61037e81610e1a565b6103888383610e24565b50505050565b6001600160a01b03811633146103b75760405163334bd91960e11b815260040160405180910390fd5b6103c18282610ec9565b505050565b600080516020611bc88339815191526103de81610e1a565b6103e6610f45565b50565b7fa49807205ce4d355092ef5a8a18f56e8913cf4a201fbe287825b095693c2177561041381610e1a565b60008381526032602052604090208251839190819061043290826117ca565b506020820151600182019061044790826117ca565b506040820151600282019061045c90826117ca565b506060820151600382019061047190826117ca565b506080820151600482019061048690826117ca565b50905050827f57616a1b5a443c169345e60ba13c45019ab222b297290ed453ab5e0dba5de99d836040516104ba919061188a565b60405180910390a2505050565b600080516020611bc88339815191526104df81610e1a565b6103e6610fa5565b6000918252600080516020611be8833981519152602090815260408084206001600160a01b0393909316845291905290205460ff1690565b7ff0c57e16840df040f15088dc2f81fe391c3923bec73e23a9662efc9c229c6a008054600160401b810460ff16159067ffffffffffffffff166000811580156105655750825b905060008267ffffffffffffffff1660011480156105825750303b155b905081158015610590575080155b156105ae5760405163f92ee8a960e01b815260040160405180910390fd5b845467ffffffffffffffff1916600117855583156105d857845460ff60401b1916600160401b1785555b6105e186610fee565b831561062757845460ff60401b19168555604051600181527fc7f505b2f371ae2175ee4913f4499e1f2633a7b5936321eed1cdaeb6115181d29060200160405180910390a15b505050505050565b60326020526000908152604090208054819061064a9061174a565b80601f01602080910402602001604051908101604052809291908181526020018280546106769061174a565b80156106c35780601f10610698576101008083540402835291602001916106c3565b820191906000526020600020905b8154815290600101906020018083116106a657829003601f168201915b5050505050908060010180546106d89061174a565b80601f01602080910402602001604051908101604052809291908181526020018280546107049061174a565b80156107515780601f1061072657610100808354040283529160200191610751565b820191906000526020600020905b81548152906001019060200180831161073457829003601f168201915b5050505050908060020180546107669061174a565b80601f01602080910402602001604051908101604052809291908181526020018280546107929061174a565b80156107df5780601f106107b4576101008083540402835291602001916107df565b820191906000526020600020905b8154815290600101906020018083116107c257829003601f168201915b5050505050908060030180546107f49061174a565b80601f01602080910402602001604051908101604052809291908181526020018280546108209061174a565b801561086d5780601f106108425761010080835404028352916020019161086d565b820191906000526020600020905b81548152906001019060200180831161085057829003601f168201915b5050505050908060040180546108829061174a565b80601f01602080910402602001604051908101604052809291908181526020018280546108ae9061174a565b80156108fb5780601f106108d0576101008083540402835291602001916108fb565b820191906000526020600020905b8154815290600101906020018083116108de57829003601f168201915b5050505050905085565b61090e8261034a565b61091781610e1a565b6103888383610ec9565b604080516020808201835260008083528481526032909152828120835160a0810190945280546060949190829082906109599061174a565b80601f01602080910402602001604051908101604052809291908181526020018280546109859061174a565b80156109d25780601f106109a7576101008083540402835291602001916109d2565b820191906000526020600020905b8154815290600101906020018083116109b557829003601f168201915b505050505081526020016001820180546109eb9061174a565b80601f0160208091040260200160405190810160405280929190818152602001828054610a179061174a565b8015610a645780601f10610a3957610100808354040283529160200191610a64565b820191906000526020600020905b815481529060010190602001808311610a4757829003601f168201915b50505050508152602001600282018054610a7d9061174a565b80601f0160208091040260200160405190810160405280929190818152602001828054610aa99061174a565b8015610af65780601f10610acb57610100808354040283529160200191610af6565b820191906000526020600020905b815481529060010190602001808311610ad957829003601f168201915b50505050508152602001600382018054610b0f9061174a565b80601f0160208091040260200160405190810160405280929190818152602001828054610b3b9061174a565b8015610b885780601f10610b5d57610100808354040283529160200191610b88565b820191906000526020600020905b815481529060010190602001808311610b6b57829003601f168201915b50505050508152602001600482018054610ba19061174a565b80601f0160208091040260200160405190810160405280929190818152602001828054610bcd9061174a565b8015610c1a5780601f10610bef57610100808354040283529160200191610c1a565b820191906000526020600020905b815481529060010190602001808311610bfd57829003601f168201915b505050505081525050905081610c52604051806040016040528060048152602001636e616d6560e01b815250836000015160006110e2565b604051602001610c63929190611925565b604051602081830303815290604052915081610ca86040518060400160405280600b81526020016a3232b9b1b934b83a34b7b760a91b815250836020015160006110e2565b604051602001610cb9929190611925565b60408051601f1981840301815282820182526005835264696d61676560d81b6020840152908301519093508391610cf19160006110e2565b604051602001610d02929190611925565b60408051601f19818403018152828201909152600c82526b195e1d195c9b985b17dd5c9b60a21b602083015260608301519093508391610d439160006110e2565b604051602001610d54929190611925565b60408051601f19818403018152828201909152600d82526c185b9a5b585d1a5bdb97dd5c9b609a1b602083015260808301519093508391610d969160016110e2565b604051602001610da7929190611925565b60405160208183030381529060405291506000610dee8260000151836040015185604051602001610dda93929190611954565b604051602081830303815290604052611145565b905080604051602001610e019190611a57565b6040516020818303038152906040529350505050919050565b6103e68133611298565b6000600080516020611be8833981519152610e3f84846104e7565b610ebf576000848152602082815260408083206001600160a01b03871684529091529020805460ff19166001179055610e753390565b6001600160a01b0316836001600160a01b0316857f2f8788117e7eff1d82e926ec794901d17c78024a50270940304540a733656f0d60405160405180910390a46001915050610339565b6000915050610339565b6000600080516020611be8833981519152610ee484846104e7565b15610ebf576000848152602082815260408083206001600160a01b0387168085529252808320805460ff1916905551339287917ff6391f5c32d9c69d2a47ea670b442974b53935d1edc7fd64eb21e047a839171b9190a46001915050610339565b610f4d6112d5565b600080516020611c08833981519152805460ff191681557f5db9ee0a495bf2e6ff9c91a7834c1ba4fdd244a5e8aa4e537bd38aeae4b073aa335b6040516001600160a01b03909116815260200160405180910390a150565b610fad611307565b600080516020611c08833981519152805460ff191660011781557f62e78cea01bee320cd4e420270b5ea74000d11b0c9f74754ebdbfc544b05a25833610f87565b610ff6611338565b610ffe611381565b611006611391565b61100e611399565b611019600082610e24565b50611032600080516020611bc883398151915282610e24565b5061105d7fb19546dff01e856fb3f010c267a7b1c60363cf8a4664e21cc89c26224620214e82610e24565b506110887f9f2df0fed2c77648de5860a4cc508cd0818c85b8b8a1ab4ceeef8d981c8956a682610e24565b506110b37fa49807205ce4d355092ef5a8a18f56e8913cf4a201fbe287825b095693c2177582610e24565b506110de7f35af5b5a3fb4c88a8cb5e26e8a68a53cc8f6cafcc4000a1db1ae5753e25a168e82610e24565b5050565b606083838361110a57604051806040016040528060018152602001600b60fa1b81525061111b565b604051806020016040528060008152505b60405160200161112d93929190611a9c565b60405160208183030381529060405290509392505050565b6060815160000361116457505060408051602081019091526000815290565b6000604051806060016040528060408152602001611b8860409139905060006003845160026111939190611b3b565b61119d9190611b4e565b6111a8906004611b70565b67ffffffffffffffff8111156111c0576111c06114ed565b6040519080825280601f01601f1916602001820160405280156111ea576020820181803683370190505b509050600182016020820185865187015b80821015611256576003820191508151603f8160121c168501518453600184019350603f81600c1c168501518453600184019350603f8160061c168501518453600184019350603f81168501518453506001830192506111fb565b505060038651066001811461127257600281146112855761128d565b603d6001830353603d600283035361128d565b603d60018303535b509195945050505050565b6112a282826104e7565b6110de5760405163e2517d3f60e01b81526001600160a01b03821660048201526024810183905260440160405180910390fd5b600080516020611c088339815191525460ff1661130557604051638dfc202b60e01b815260040160405180910390fd5b565b600080516020611c088339815191525460ff16156113055760405163d93c066560e01b815260040160405180910390fd5b7ff0c57e16840df040f15088dc2f81fe391c3923bec73e23a9662efc9c229c6a0054600160401b900460ff1661130557604051631afcd79f60e31b815260040160405180910390fd5b611389611338565b6113056113a9565b611305611338565b6113a1611338565b6113056113ca565b6113b1611338565b600080516020611c08833981519152805460ff19169055565b6113d2611338565b60017f9b779b17422d0df92223018b32b4d1fa46e071723d6817e2486d003becc55f0055565b60006020828403121561140a57600080fd5b81356001600160e01b03198116811461142257600080fd5b9392505050565b60006020828403121561143b57600080fd5b5035919050565b60005b8381101561145d578181015183820152602001611445565b50506000910152565b6000815180845261147e816020860160208601611442565b601f01601f19169290920160200192915050565b6020815260006114226020830184611466565b80356001600160a01b03811681146114bc57600080fd5b919050565b600080604083850312156114d457600080fd5b823591506114e4602084016114a5565b90509250929050565b634e487b7160e01b600052604160045260246000fd5b60405160a0810167ffffffffffffffff81118282101715611526576115266114ed565b60405290565b600082601f83011261153d57600080fd5b813567ffffffffffffffff80821115611558576115586114ed565b604051601f8301601f19908116603f01168101908282118183101715611580576115806114ed565b8160405283815286602085880101111561159957600080fd5b836020870160208301376000602085830101528094505050505092915050565b600080604083850312156115cc57600080fd5b82359150602083013567ffffffffffffffff808211156115eb57600080fd5b9084019060a082870312156115ff57600080fd5b611607611503565b82358281111561161657600080fd5b6116228882860161152c565b82525060208301358281111561163757600080fd5b6116438882860161152c565b60208301525060408301358281111561165b57600080fd5b6116678882860161152c565b60408301525060608301358281111561167f57600080fd5b61168b8882860161152c565b6060830152506080830135828111156116a357600080fd5b6116af8882860161152c565b6080830152508093505050509250929050565b6000602082840312156116d457600080fd5b611422826114a5565b60a0815260006116f060a0830188611466565b82810360208401526117028188611466565b905082810360408401526117168187611466565b9050828103606084015261172a8186611466565b9050828103608084015261173e8185611466565b98975050505050505050565b600181811c9082168061175e57607f821691505b60208210810361177e57634e487b7160e01b600052602260045260246000fd5b50919050565b601f8211156103c157600081815260208120601f850160051c810160208610156117ab5750805b601f850160051c820191505b81811015610627578281556001016117b7565b815167ffffffffffffffff8111156117e4576117e46114ed565b6117f8816117f2845461174a565b84611784565b602080601f83116001811461182d57600084156118155750858301515b600019600386901b1c1916600185901b178555610627565b600085815260208120601f198616915b8281101561185c5788860151825594840194600190910190840161183d565b508582101561187a5787850151600019600388901b60f8161c191681555b5050505050600190811b01905550565b602081526000825160a060208401526118a660c0840182611466565b90506020840151601f19808584030160408601526118c48383611466565b925060408601519150808584030160608601526118e18383611466565b925060608601519150808584030160808601526118fe8383611466565b925060808601519150808584030160a08601525061191c8282611466565b95945050505050565b60008351611937818460208801611442565b83519083019061194b818360208801611442565b01949350505050565b693d913730b6b2911d101160b11b8152835160009061197a81600a850160208901611442565b6b11161134b6b0b3b2911d101160a11b600a9184019182015284516119a6816016840160208901611442565b61088b60f21b601692909101918201527f226465736372697074696f6e223a202244324974656d206973206120636f6c6c60188201527f656374696f6e206f66206974656d732066726f6d207468652067616d6520446960388201527f61626c6f2032222c202261747472696275746573223a205b000000000000000060588201528351611a3b816070840160208801611442565b615d7d60f01b6070929091019182015260720195945050505050565b7f646174613a6170706c69636174696f6e2f6a736f6e3b6261736536342c000000815260008251611a8f81601d850160208701611442565b91909101601d0192915050565b6f3d913a3930b4ba2fba3cb832911d101160811b81528351600090611ac8816010850160208901611442565b6c111610113b30b63ab2911d101160991b6010918401918201528451611af581601d840160208901611442565b61227d60f01b601d92909101918201528351611b1881601f840160208801611442565b01601f0195945050505050565b634e487b7160e01b600052601160045260246000fd5b8082018082111561033957610339611b25565b600082611b6b57634e487b7160e01b600052601260045260246000fd5b500490565b808202811582820484141761033957610339611b2556fe4142434445464748494a4b4c4d4e4f505152535455565758595a6162636465666768696a6b6c6d6e6f707172737475767778797a303132333435363738392b2f65d7a28e3265b37a6474929f336521b332c1681b933f6cb9f3376673440d862a02dd7bc7dec4dceedda775e58dd541e08a116c6c53815c0bd028192f7b626800cd5ed15c6e187e77e9aee88184c21f4f2182ab5827cb3b7e07fbedcd63f03300a2646970667358221220175cc4bdaa4082de8de5faf402f8cde2485c03002daac901e55a760cee51837464736f6c63430008140033",
  "linkReferences": {},
  "deployedLinkReferences": {}
}