{"contracts/erc721/CharacterNFTManager.sol":{"CharacterNFTManager":{"abi":[{"inputs":[],"name":"AccessControlBadConfirmation","type":"error"},{"inputs":[{"internalType":"address","name":"account","type":"address"},{"internalType":"bytes32","name":"neededRole","type":"bytes32"}],"name":"AccessControlUnauthorizedAccount","type":"error"},{"inputs":[],"name":"EnforcedPause","type":"error"},{"inputs":[],"name":"ExpectedPause","type":"error"},{"inputs":[{"internalType":"uint256","name":"pricePerMint","type":"uint256"},{"internalType":"uint256","name":"amount","type":"uint256"}],"name":"InsufficientFunds","type":"error"},{"inputs":[],"name":"InvalidCharacterClass","type":"error"},{"inputs":[],"name":"InvalidInitialization","type":"error"},{"inputs":[],"name":"InvalidValues","type":"error"},{"inputs":[],"name":"NotInitializing","type":"error"},{"inputs":[],"name":"ReentrancyGuardReentrantCall","type":"error"},{"anonymous":false,"inputs":[{"indexed":false,"internalType":"uint64","name":"version","type":"uint64"}],"name":"Initialized","type":"event"},{"anonymous":false,"inputs":[{"indexed":false,"internalType":"address","name":"account","type":"address"}],"name":"Paused","type":"event"},{"anonymous":false,"inputs":[{"indexed":true,"internalType":"bytes32","name":"role","type":"bytes32"},{"indexed":true,"internalType":"bytes32","name":"previousAdminRole","type":"bytes32"},{"indexed":true,"internalType":"bytes32","name":"newAdminRole","type":"bytes32"}],"name":"RoleAdminChanged","type":"event"},{"anonymous":false,"inputs":[{"indexed":true,"internalType":"bytes32","name":"role","type":"bytes32"},{"indexed":true,"internalType":"address","name":"account","type":"address"},{"indexed":true,"internalType":"address","name":"sender","type":"address"}],"name":"RoleGranted","type":"event"},{"anonymous":false,"inputs":[{"indexed":true,"internalType":"bytes32","name":"role","type":"bytes32"},{"indexed":true,"internalType":"address","name":"account","type":"address"},{"indexed":true,"internalType":"address","name":"sender","type":"address"}],"name":"RoleRevoked","type":"event"},{"anonymous":false,"inputs":[{"indexed":false,"internalType":"address","name":"account","type":"address"}],"name":"Unpaused","type":"event"},{"inputs":[],"name":"ADMIN_ROLE","outputs":[{"internalType":"bytes32","name":"","type":"bytes32"}],"stateMutability":"view","type":"function"},{"inputs":[],"name":"DEFAULT_ADMIN_ROLE","outputs":[{"internalType":"bytes32","name":"","type":"bytes32"}],"stateMutability":"view","type":"function"},{"inputs":[],"name":"MINTER_ROLE","outputs":[{"internalType":"bytes32","name":"","type":"bytes32"}],"stateMutability":"view","type":"function"},{"inputs":[],"name":"OWNER_ROLE","outputs":[{"internalType":"bytes32","name":"","type":"bytes32"}],"stateMutability":"view","type":"function"},{"inputs":[],"name":"PAUSER_ROLE","outputs":[{"internalType":"bytes32","name":"","type":"bytes32"}],"stateMutability":"view","type":"function"},{"inputs":[],"name":"UTILITY_ROLE","outputs":[{"internalType":"bytes32","name":"","type":"bytes32"}],"stateMutability":"view","type":"function"},{"inputs":[],"name":"characterNFT","outputs":[{"internalType":"address","name":"","type":"address"}],"stateMutability":"view","type":"function"},{"inputs":[{"internalType":"bytes32","name":"role","type":"bytes32"}],"name":"getRoleAdmin","outputs":[{"internalType":"bytes32","name":"","type":"bytes32"}],"stateMutability":"view","type":"function"},{"inputs":[{"internalType":"bytes32","name":"role","type":"bytes32"},{"internalType":"address","name":"account","type":"address"}],"name":"grantRole","outputs":[],"stateMutability":"nonpayable","type":"function"},{"inputs":[{"internalType":"bytes32","name":"role","type":"bytes32"},{"internalType":"address","name":"account","type":"address"}],"name":"hasRole","outputs":[{"internalType":"bool","name":"","type":"bool"}],"stateMutability":"view","type":"function"},{"inputs":[{"internalType":"address","name":"initialOwner","type":"address"}],"name":"initialize","outputs":[],"stateMutability":"nonpayable","type":"function"},{"inputs":[{"internalType":"uint256[]","name":"amounts","type":"uint256[]"},{"internalType":"address[]","name":"toAddresses","type":"address[]"},{"internalType":"enum CharacterNFTManager.CharacterClass[]","name":"charTypes","type":"uint8[]"}],"name":"mintBatch","outputs":[],"stateMutability":"nonpayable","type":"function"},{"inputs":[{"internalType":"uint256","name":"amount","type":"uint256"},{"internalType":"address","name":"to","type":"address"},{"internalType":"enum CharacterNFTManager.CharacterClass","name":"charType","type":"uint8"}],"name":"mintCharacterPrivate","outputs":[],"stateMutability":"nonpayable","type":"function"},{"inputs":[{"internalType":"uint256","name":"amount","type":"uint256"},{"internalType":"enum CharacterNFTManager.CharacterClass","name":"charType","type":"uint8"}],"name":"mintCharacterPublic","outputs":[],"stateMutability":"payable","type":"function"},{"inputs":[],"name":"pause","outputs":[],"stateMutability":"nonpayable","type":"function"},{"inputs":[],"name":"paused","outputs":[{"internalType":"bool","name":"","type":"bool"}],"stateMutability":"view","type":"function"},{"inputs":[],"name":"pricePerMint","outputs":[{"internalType":"uint256","name":"","type":"uint256"}],"stateMutability":"view","type":"function"},{"inputs":[{"internalType":"bytes32","name":"role","type":"bytes32"},{"internalType":"address","name":"callerConfirmation","type":"address"}],"name":"renounceRole","outputs":[],"stateMutability":"nonpayable","type":"function"},{"inputs":[{"internalType":"bytes32","name":"role","type":"bytes32"},{"internalType":"address","name":"account","type":"address"}],"name":"revokeRole","outputs":[],"stateMutability":"nonpayable","type":"function"},{"inputs":[{"internalType":"address","name":"_characterNFT","type":"address"}],"name":"setCharacterNFT","outputs":[],"stateMutability":"nonpayable","type":"function"},{"inputs":[{"internalType":"uint256","name":"_pricePerMint","type":"uint256"}],"name":"setPricePerMint","outputs":[],"stateMutability":"nonpayable","type":"function"},{"inputs":[{"internalType":"bytes4","name":"interfaceId","type":"bytes4"}],"name":"supportsInterface","outputs":[{"internalType":"bool","name":"","type":"bool"}],"stateMutability":"view","type":"function"},{"inputs":[],"name":"tokenIdCounter","outputs":[{"internalType":"uint256","name":"","type":"uint256"}],"stateMutability":"view","type":"function"},{"inputs":[{"internalType":"uint256","name":"","type":"uint256"}],"name":"tokenIdToCharacterClass","outputs":[{"internalType":"enum CharacterNFTManager.CharacterClass","name":"","type":"uint8"}],"stateMutability":"view","type":"function"},{"inputs":[],"name":"unpause","outputs":[],"stateMutability":"nonpayable","type":"function"},{"inputs":[],"name":"withdraw","outputs":[],"stateMutability":"nonpayable","type":"function"}],"devdoc":{"errors":{"AccessControlBadConfirmation()":[{"details":"The caller of a function is not the expected one. NOTE: Don't confuse with {AccessControlUnauthorizedAccount}."}],"AccessControlUnauthorizedAccount(address,bytes32)":[{"details":"The `account` is missing a role."}],"EnforcedPause()":[{"details":"The operation failed because the contract is paused."}],"ExpectedPause()":[{"details":"The operation failed because the contract is not paused."}],"InvalidInitialization()":[{"details":"The contract is already initialized."}],"NotInitializing()":[{"details":"The contract is not initializing."}],"ReentrancyGuardReentrantCall()":[{"details":"Unauthorized reentrant call."}]},"events":{"Initialized(uint64)":{"details":"Triggered when the contract has been initialized or reinitialized."},"Paused(address)":{"details":"Emitted when the pause is triggered by `account`."},"RoleAdminChanged(bytes32,bytes32,bytes32)":{"details":"Emitted when `newAdminRole` is set as ``role``'s admin role, replacing `previousAdminRole` `DEFAULT_ADMIN_ROLE` is the starting admin for all roles, despite {RoleAdminChanged} not being emitted signaling this."},"RoleGranted(bytes32,address,address)":{"details":"Emitted when `account` is granted `role`. `sender` is the account that originated the contract call, an admin role bearer except when using {AccessControl-_setupRole}."},"RoleRevoked(bytes32,address,address)":{"details":"Emitted when `account` is revoked `role`. `sender` is the account that originated the contract call:   - if using `revokeRole`, it is the admin role bearer   - if using `renounceRole`, it is the role bearer (i.e. `account`)"},"Unpaused(address)":{"details":"Emitted when the pause is lifted by `account`."}},"kind":"dev","methods":{"getRoleAdmin(bytes32)":{"details":"Returns the admin role that controls `role`. See {grantRole} and {revokeRole}. To change a role's admin, use {_setRoleAdmin}."},"grantRole(bytes32,address)":{"details":"Grants `role` to `account`. If `account` had not been already granted `role`, emits a {RoleGranted} event. Requirements: - the caller must have ``role``'s admin role. May emit a {RoleGranted} event."},"hasRole(bytes32,address)":{"details":"Returns `true` if `account` has been granted `role`."},"mintBatch(uint256[],address[],uint8[])":{"details":"Mint a batch of character NFTs, only for owner use, no payment required"},"mintCharacterPrivate(uint256,address,uint8)":{"details":"Mint a character NFT, only for MINTER use, no payment required"},"mintCharacterPublic(uint256,uint8)":{"details":"Mint a character NFT, open for public use, requires payment"},"paused()":{"details":"Returns true if the contract is paused, and false otherwise."},"renounceRole(bytes32,address)":{"details":"Revokes `role` from the calling account. Roles are often managed via {grantRole} and {revokeRole}: this function's purpose is to provide a mechanism for accounts to lose their privileges if they are compromised (such as when a trusted device is misplaced). If the calling account had been revoked `role`, emits a {RoleRevoked} event. Requirements: - the caller must be `callerConfirmation`. May emit a {RoleRevoked} event."},"revokeRole(bytes32,address)":{"details":"Revokes `role` from `account`. If `account` had been granted `role`, emits a {RoleRevoked} event. Requirements: - the caller must have ``role``'s admin role. May emit a {RoleRevoked} event."},"setCharacterNFT(address)":{"details":"Set the address of the CharacterNFT contract"},"setPricePerMint(uint256)":{"details":"Set the price per mint"},"supportsInterface(bytes4)":{"details":"See {IERC165-supportsInterface}."},"withdraw()":{"details":"Withdraw the contract balance"}},"version":1},"evm":{"bytecode":{"linkReferences":{},"object":"608060405234801561001057600080fd5b50611384806100206000396000f3fe6080604052600436106101815760003560e01c80638f296759116100d1578063d049963e1161008a578063e524145b11610064578063e524145b14610472578063e58378bb14610485578063e63ab1e9146104a7578063f7a763c4146104c957600080fd5b8063d049963e14610410578063d539139314610430578063d547741f1461045257600080fd5b80638f2967591461035b57806391d148541461038f57806398bdf6f5146103af578063a217fddf146103c5578063c4d66de8146103da578063c5610a29146103fa57600080fd5b80633ccfd60b1161013e5780635c975abb116101185780635c975abb146102cd5780637174326a146102f257806375b238fc146103125780638456cb591461034657600080fd5b80633ccfd60b146102835780633f4ba83a146102985780635c75cadb146102ad57600080fd5b806301466bc01461018657806301ffc9a7146101a8578063248a9ca3146101dd5780632f2ff15d1461020b57806336568abe1461022b578063384d10ee1461024b575b600080fd5b34801561019257600080fd5b506101a66101a1366004610ff8565b610506565b005b3480156101b457600080fd5b506101c86101c3366004611011565b610524565b60405190151581526020015b60405180910390f35b3480156101e957600080fd5b506101fd6101f8366004610ff8565b61055b565b6040519081526020016101d4565b34801561021757600080fd5b506101a661022636600461105e565b61057d565b34801561023757600080fd5b506101a661024636600461105e565b61059f565b34801561025757600080fd5b5060355461026b906001600160a01b031681565b6040516001600160a01b0390911681526020016101d4565b34801561028f57600080fd5b506101a66105d7565b3480156102a457600080fd5b506101a661061f565b3480156102b957600080fd5b506101a66102c836600461108a565b610642565b3480156102d957600080fd5b5060008051602061132f8339815191525460ff166101c8565b3480156102fe57600080fd5b506101a661030d3660046110f1565b61067d565b34801561031e57600080fd5b506101fd7fa49807205ce4d355092ef5a8a18f56e8913cf4a201fbe287825b095693c2177581565b34801561035257600080fd5b506101a6610758565b34801561036757600080fd5b506101fd7f35af5b5a3fb4c88a8cb5e26e8a68a53cc8f6cafcc4000a1db1ae5753e25a168e81565b34801561039b57600080fd5b506101c86103aa36600461105e565b610778565b3480156103bb57600080fd5b506101fd60325481565b3480156103d157600080fd5b506101fd600081565b3480156103e657600080fd5b506101a66103f536600461108a565b6107b0565b34801561040657600080fd5b506101fd60345481565b34801561041c57600080fd5b506101a661042b36600461119a565b6108c0565b34801561043c57600080fd5b506101fd6000805160206112ef83398151915281565b34801561045e57600080fd5b506101a661046d36600461105e565b6108e3565b6101a66104803660046111d6565b6108ff565b34801561049157600080fd5b506101fd6000805160206112af83398151915281565b3480156104b357600080fd5b506101fd6000805160206112cf83398151915281565b3480156104d557600080fd5b506104f96104e4366004610ff8565b60336020526000908152604090205460ff1681565b6040516101d4919061120f565b6000805160206112af83398151915261051e81610a97565b50603455565b60006001600160e01b03198216637965db0b60e01b148061055557506301ffc9a760e01b6001600160e01b03198316145b92915050565b600090815260008051602061130f833981519152602052604090206001015490565b6105868261055b565b61058f81610a97565b6105998383610aa1565b50505050565b6001600160a01b03811633146105c85760405163334bd91960e11b815260040160405180910390fd5b6105d28282610b46565b505050565b6000805160206112af8339815191526105ef81610a97565b60405133904780156108fc02916000818181858888f1935050505015801561061b573d6000803e3d6000fd5b5050565b6000805160206112cf83398151915261063781610a97565b61063f610bc2565b50565b6000805160206112af83398151915261065a81610a97565b50603580546001600160a01b0319166001600160a01b0392909216919091179055565b6000805160206112ef83398151915261069581610a97565b85841415806106a45750858214155b156106c25760405163516e361d60e11b815260040160405180910390fd5b60005b8681101561074e5761073c8888838181106106e2576106e2611237565b905060200201358787848181106106fb576106fb611237565b9050602002016020810190610710919061108a565b86868581811061072257610722611237565b9050602002016020810190610737919061124d565b610c22565b806107468161127e565b9150506106c5565b5050505050505050565b6000805160206112cf83398151915261077081610a97565b61063f610d3d565b600091825260008051602061130f833981519152602090815260408084206001600160a01b0393909316845291905290205460ff1690565b7ff0c57e16840df040f15088dc2f81fe391c3923bec73e23a9662efc9c229c6a008054600160401b810460ff16159067ffffffffffffffff166000811580156107f65750825b905060008267ffffffffffffffff1660011480156108135750303b155b905081158015610821575080155b1561083f5760405163f92ee8a960e01b815260040160405180910390fd5b845467ffffffffffffffff19166001178555831561086957845460ff60401b1916600160401b1785555b61087286610d86565b83156108b857845460ff60401b19168555604051600181527fc7f505b2f371ae2175ee4913f4499e1f2633a7b5936321eed1cdaeb6115181d29060200160405180910390a15b505050505050565b6000805160206112ef8339815191526108d881610a97565b610599848484610c22565b6108ec8261055b565b6108f581610a97565b6105998383610b46565b610907610e52565b61090f610e85565b6000816007811115610923576109236111f9565b0361094157604051632adf37a360e11b815260040160405180910390fd5b816000036109625760405163516e361d60e11b815260040160405180910390fd5b816034546109709190611297565b3410156109a25760345460405162fae2d560e21b81526004810191909152602481018390526044015b60405180910390fd5b60005b82811015610a6d57603280549060006109bd8361127e565b90915550506032546000818152603360205260409020805484919060ff191660018360078111156109f0576109f06111f9565b02179055506035546040516394bf804d60e01b8152600481018390523360248201526001600160a01b03909116906394bf804d90604401600060405180830381600087803b158015610a4157600080fd5b505af1158015610a55573d6000803e3d6000fd5b50505050508080610a659061127e565b9150506109a5565b5061061b60017f9b779b17422d0df92223018b32b4d1fa46e071723d6817e2486d003becc55f0055565b61063f8133610ef5565b600060008051602061130f833981519152610abc8484610778565b610b3c576000848152602082815260408083206001600160a01b03871684529091529020805460ff19166001179055610af23390565b6001600160a01b0316836001600160a01b0316857f2f8788117e7eff1d82e926ec794901d17c78024a50270940304540a733656f0d60405160405180910390a46001915050610555565b6000915050610555565b600060008051602061130f833981519152610b618484610778565b15610b3c576000848152602082815260408083206001600160a01b0387168085529252808320805460ff1916905551339287917ff6391f5c32d9c69d2a47ea670b442974b53935d1edc7fd64eb21e047a839171b9190a46001915050610555565b610bca610f2e565b60008051602061132f833981519152805460ff191681557f5db9ee0a495bf2e6ff9c91a7834c1ba4fdd244a5e8aa4e537bd38aeae4b073aa335b6040516001600160a01b03909116815260200160405180910390a150565b6000816007811115610c3657610c366111f9565b1480610c40575082155b80610c5257506001600160a01b038216155b15610c705760405163516e361d60e11b815260040160405180910390fd5b60005b838110156105995760328054906000610c8b8361127e565b90915550506032546000818152603360205260409020805484919060ff19166001836007811115610cbe57610cbe6111f9565b02179055506035546040516394bf804d60e01b8152600481018390526001600160a01b038681166024830152909116906394bf804d90604401600060405180830381600087803b158015610d1157600080fd5b505af1158015610d25573d6000803e3d6000fd5b50505050508080610d359061127e565b915050610c73565b610d45610e52565b60008051602061132f833981519152805460ff191660011781557f62e78cea01bee320cd4e420270b5ea74000d11b0c9f74754ebdbfc544b05a25833610c04565b610d8e610f5e565b610d96610fa7565b610d9e610fb7565b610da6610fbf565b610db1600082610aa1565b50610dca6000805160206112cf83398151915282610aa1565b50610de36000805160206112af83398151915282610aa1565b50610dfc6000805160206112ef83398151915282610aa1565b50610e277fa49807205ce4d355092ef5a8a18f56e8913cf4a201fbe287825b095693c2177582610aa1565b5061061b7f35af5b5a3fb4c88a8cb5e26e8a68a53cc8f6cafcc4000a1db1ae5753e25a168e82610aa1565b60008051602061132f8339815191525460ff1615610e835760405163d93c066560e01b815260040160405180910390fd5b565b7f9b779b17422d0df92223018b32b4d1fa46e071723d6817e2486d003becc55f00805460011901610ec957604051633ee5aeb560e01b815260040160405180910390fd5b60029055565b60017f9b779b17422d0df92223018b32b4d1fa46e071723d6817e2486d003becc55f0055565b610eff8282610778565b61061b5760405163e2517d3f60e01b81526001600160a01b038216600482015260248101839052604401610999565b60008051602061132f8339815191525460ff16610e8357604051638dfc202b60e01b815260040160405180910390fd5b7ff0c57e16840df040f15088dc2f81fe391c3923bec73e23a9662efc9c229c6a0054600160401b900460ff16610e8357604051631afcd79f60e31b815260040160405180910390fd5b610faf610f5e565b610e83610fcf565b610e83610f5e565b610fc7610f5e565b610e83610ff0565b610fd7610f5e565b60008051602061132f833981519152805460ff19169055565b610ecf610f5e565b60006020828403121561100a57600080fd5b5035919050565b60006020828403121561102357600080fd5b81356001600160e01b03198116811461103b57600080fd5b9392505050565b80356001600160a01b038116811461105957600080fd5b919050565b6000806040838503121561107157600080fd5b8235915061108160208401611042565b90509250929050565b60006020828403121561109c57600080fd5b61103b82611042565b60008083601f8401126110b757600080fd5b50813567ffffffffffffffff8111156110cf57600080fd5b6020830191508360208260051b85010111156110ea57600080fd5b9250929050565b6000806000806000806060878903121561110a57600080fd5b863567ffffffffffffffff8082111561112257600080fd5b61112e8a838b016110a5565b9098509650602089013591508082111561114757600080fd5b6111538a838b016110a5565b9096509450604089013591508082111561116c57600080fd5b5061117989828a016110a5565b979a9699509497509295939492505050565b80356008811061105957600080fd5b6000806000606084860312156111af57600080fd5b833592506111bf60208501611042565b91506111cd6040850161118b565b90509250925092565b600080604083850312156111e957600080fd5b823591506110816020840161118b565b634e487b7160e01b600052602160045260246000fd5b602081016008831061123157634e487b7160e01b600052602160045260246000fd5b91905290565b634e487b7160e01b600052603260045260246000fd5b60006020828403121561125f57600080fd5b61103b8261118b565b634e487b7160e01b600052601160045260246000fd5b60006001820161129057611290611268565b5060010190565b80820281158282048414176105555761055561126856feb19546dff01e856fb3f010c267a7b1c60363cf8a4664e21cc89c26224620214e65d7a28e3265b37a6474929f336521b332c1681b933f6cb9f3376673440d862a9f2df0fed2c77648de5860a4cc508cd0818c85b8b8a1ab4ceeef8d981c8956a602dd7bc7dec4dceedda775e58dd541e08a116c6c53815c0bd028192f7b626800cd5ed15c6e187e77e9aee88184c21f4f2182ab5827cb3b7e07fbedcd63f03300a2646970667358221220c3a9d25ecd95de97f573439b4e9844f0c4ec3cbf8148dad1bf685a12d7fd78e164736f6c63430008140033","opcodes":"PUSH1 0x80 PUSH1 0x40 MSTORE CALLVALUE DUP1 ISZERO PUSH2 0x10 JUMPI PUSH1 0x0 DUP1 REVERT JUMPDEST POP PUSH2 0x1384 DUP1 PUSH2 0x20 PUSH1 0x0 CODECOPY PUSH1 0x0 RETURN INVALID PUSH1 0x80 PUSH1 0x40 MSTORE PUSH1 0x4 CALLDATASIZE LT PUSH2 0x181 JUMPI PUSH1 0x0 CALLDATALOAD PUSH1 0xE0 SHR DUP1 PUSH4 0x8F296759 GT PUSH2 0xD1 JUMPI DUP1 PUSH4 0xD049963E GT PUSH2 0x8A JUMPI DUP1 PUSH4 0xE524145B GT PUSH2 0x64 JUMPI DUP1 PUSH4 0xE524145B EQ PUSH2 0x472 JUMPI DUP1 PUSH4 0xE58378BB EQ PUSH2 0x485 JUMPI DUP1 PUSH4 0xE63AB1E9 EQ PUSH2 0x4A7 JUMPI DUP1 PUSH4 0xF7A763C4 EQ PUSH2 0x4C9 JUMPI PUSH1 0x0 DUP1 REVERT JUMPDEST DUP1 PUSH4 0xD049963E EQ PUSH2 0x410 JUMPI DUP1 PUSH4 0xD5391393 EQ PUSH2 0x430 JUMPI DUP1 PUSH4 0xD547741F EQ PUSH2 0x452 JUMPI PUSH1 0x0 DUP1 REVERT JUMPDEST DUP1 PUSH4 0x8F296759 EQ PUSH2 0x35B JUMPI DUP1 PUSH4 0x91D14854 EQ PUSH2 0x38F JUMPI DUP1 PUSH4 0x98BDF6F5 EQ PUSH2 0x3AF JUMPI DUP1 PUSH4 0xA217FDDF EQ PUSH2 0x3C5 JUMPI DUP1 PUSH4 0xC4D66DE8 EQ PUSH2 0x3DA JUMPI DUP1 PUSH4 0xC5610A29 EQ PUSH2 0x3FA JUMPI PUSH1 0x0 DUP1 REVERT JUMPDEST DUP1 PUSH4 0x3CCFD60B GT PUSH2 0x13E JUMPI DUP1 PUSH4 0x5C975ABB GT PUSH2 0x118 JUMPI DUP1 PUSH4 0x5C975ABB EQ PUSH2 0x2CD JUMPI DUP1 PUSH4 0x7174326A EQ PUSH2 0x2F2 JUMPI DUP1 PUSH4 0x75B238FC EQ PUSH2 0x312 JUMPI DUP1 PUSH4 0x8456CB59 EQ PUSH2 0x346 JUMPI PUSH1 0x0 DUP1 REVERT JUMPDEST DUP1 PUSH4 0x3CCFD60B EQ PUSH2 0x283 JUMPI DUP1 PUSH4 0x3F4BA83A EQ PUSH2 0x298 JUMPI DUP1 PUSH4 0x5C75CADB EQ PUSH2 0x2AD JUMPI PUSH1 0x0 DUP1 REVERT JUMPDEST DUP1 PUSH4 0x1466BC0 EQ PUSH2 0x186 JUMPI DUP1 PUSH4 0x1FFC9A7 EQ PUSH2 0x1A8 JUMPI DUP1 PUSH4 0x248A9CA3 EQ PUSH2 0x1DD JUMPI DUP1 PUSH4 0x2F2FF15D EQ PUSH2 0x20B JUMPI DUP1 PUSH4 0x36568ABE EQ PUSH2 0x22B JUMPI DUP1 PUSH4 0x384D10EE EQ PUSH2 0x24B JUMPI JUMPDEST PUSH1 0x0 DUP1 REVERT JUMPDEST CALLVALUE DUP1 ISZERO PUSH2 0x192 JUMPI PUSH1 0x0 DUP1 REVERT JUMPDEST POP PUSH2 0x1A6 PUSH2 0x1A1 CALLDATASIZE PUSH1 0x4 PUSH2 0xFF8 JUMP JUMPDEST PUSH2 0x506 JUMP JUMPDEST STOP JUMPDEST CALLVALUE DUP1 ISZERO PUSH2 0x1B4 JUMPI PUSH1 0x0 DUP1 REVERT JUMPDEST POP PUSH2 0x1C8 PUSH2 0x1C3 CALLDATASIZE PUSH1 0x4 PUSH2 0x1011 JUMP JUMPDEST PUSH2 0x524 JUMP JUMPDEST PUSH1 0x40 MLOAD SWAP1 ISZERO ISZERO DUP2 MSTORE PUSH1 0x20 ADD JUMPDEST PUSH1 0x40 MLOAD DUP1 SWAP2 SUB SWAP1 RETURN JUMPDEST CALLVALUE DUP1 ISZERO PUSH2 0x1E9 JUMPI PUSH1 0x0 DUP1 REVERT JUMPDEST POP PUSH2 0x1FD PUSH2 0x1F8 CALLDATASIZE PUSH1 0x4 PUSH2 0xFF8 JUMP JUMPDEST PUSH2 0x55B JUMP JUMPDEST PUSH1 0x40 MLOAD SWAP1 DUP2 MSTORE PUSH1 0x20 ADD PUSH2 0x1D4 JUMP JUMPDEST CALLVALUE DUP1 ISZERO PUSH2 0x217 JUMPI PUSH1 0x0 DUP1 REVERT JUMPDEST POP PUSH2 0x1A6 PUSH2 0x226 CALLDATASIZE PUSH1 0x4 PUSH2 0x105E JUMP JUMPDEST PUSH2 0x57D JUMP JUMPDEST CALLVALUE DUP1 ISZERO PUSH2 0x237 JUMPI PUSH1 0x0 DUP1 REVERT JUMPDEST POP PUSH2 0x1A6 PUSH2 0x246 CALLDATASIZE PUSH1 0x4 PUSH2 0x105E JUMP JUMPDEST PUSH2 0x59F JUMP JUMPDEST CALLVALUE DUP1 ISZERO PUSH2 0x257 JUMPI PUSH1 0x0 DUP1 REVERT JUMPDEST POP PUSH1 0x35 SLOAD PUSH2 0x26B SWAP1 PUSH1 0x1 PUSH1 0x1 PUSH1 0xA0 SHL SUB AND DUP2 JUMP JUMPDEST PUSH1 0x40 MLOAD PUSH1 0x1 PUSH1 0x1 PUSH1 0xA0 SHL SUB SWAP1 SWAP2 AND DUP2 MSTORE PUSH1 0x20 ADD PUSH2 0x1D4 JUMP JUMPDEST CALLVALUE DUP1 ISZERO PUSH2 0x28F JUMPI PUSH1 0x0 DUP1 REVERT JUMPDEST POP PUSH2 0x1A6 PUSH2 0x5D7 JUMP JUMPDEST CALLVALUE DUP1 ISZERO PUSH2 0x2A4 JUMPI PUSH1 0x0 DUP1 REVERT JUMPDEST POP PUSH2 0x1A6 PUSH2 0x61F JUMP JUMPDEST CALLVALUE DUP1 ISZERO PUSH2 0x2B9 JUMPI PUSH1 0x0 DUP1 REVERT JUMPDEST POP PUSH2 0x1A6 PUSH2 0x2C8 CALLDATASIZE PUSH1 0x4 PUSH2 0x108A JUMP JUMPDEST PUSH2 0x642 JUMP JUMPDEST CALLVALUE DUP1 ISZERO PUSH2 0x2D9 JUMPI PUSH1 0x0 DUP1 REVERT JUMPDEST POP PUSH1 0x0 DUP1 MLOAD PUSH1 0x20 PUSH2 0x132F DUP4 CODECOPY DUP2 MLOAD SWAP2 MSTORE SLOAD PUSH1 0xFF AND PUSH2 0x1C8 JUMP JUMPDEST CALLVALUE DUP1 ISZERO PUSH2 0x2FE JUMPI PUSH1 0x0 DUP1 REVERT JUMPDEST POP PUSH2 0x1A6 PUSH2 0x30D CALLDATASIZE PUSH1 0x4 PUSH2 0x10F1 JUMP JUMPDEST PUSH2 0x67D JUMP JUMPDEST CALLVALUE DUP1 ISZERO PUSH2 0x31E JUMPI PUSH1 0x0 DUP1 REVERT JUMPDEST POP PUSH2 0x1FD PUSH32 0xA49807205CE4D355092EF5A8A18F56E8913CF4A201FBE287825B095693C21775 DUP2 JUMP JUMPDEST CALLVALUE DUP1 ISZERO PUSH2 0x352 JUMPI PUSH1 0x0 DUP1 REVERT JUMPDEST POP PUSH2 0x1A6 PUSH2 0x758 JUMP JUMPDEST CALLVALUE DUP1 ISZERO PUSH2 0x367 JUMPI PUSH1 0x0 DUP1 REVERT JUMPDEST POP PUSH2 0x1FD PUSH32 0x35AF5B5A3FB4C88A8CB5E26E8A68A53CC8F6CAFCC4000A1DB1AE5753E25A168E DUP2 JUMP JUMPDEST CALLVALUE DUP1 ISZERO PUSH2 0x39B JUMPI PUSH1 0x0 DUP1 REVERT JUMPDEST POP PUSH2 0x1C8 PUSH2 0x3AA CALLDATASIZE PUSH1 0x4 PUSH2 0x105E JUMP JUMPDEST PUSH2 0x778 JUMP JUMPDEST CALLVALUE DUP1 ISZERO PUSH2 0x3BB JUMPI PUSH1 0x0 DUP1 REVERT JUMPDEST POP PUSH2 0x1FD PUSH1 0x32 SLOAD DUP2 JUMP JUMPDEST CALLVALUE DUP1 ISZERO PUSH2 0x3D1 JUMPI PUSH1 0x0 DUP1 REVERT JUMPDEST POP PUSH2 0x1FD PUSH1 0x0 DUP2 JUMP JUMPDEST CALLVALUE DUP1 ISZERO PUSH2 0x3E6 JUMPI PUSH1 0x0 DUP1 REVERT JUMPDEST POP PUSH2 0x1A6 PUSH2 0x3F5 CALLDATASIZE PUSH1 0x4 PUSH2 0x108A JUMP JUMPDEST PUSH2 0x7B0 JUMP JUMPDEST CALLVALUE DUP1 ISZERO PUSH2 0x406 JUMPI PUSH1 0x0 DUP1 REVERT JUMPDEST POP PUSH2 0x1FD PUSH1 0x34 SLOAD DUP2 JUMP JUMPDEST CALLVALUE DUP1 ISZERO PUSH2 0x41C JUMPI PUSH1 0x0 DUP1 REVERT JUMPDEST POP PUSH2 0x1A6 PUSH2 0x42B CALLDATASIZE PUSH1 0x4 PUSH2 0x119A JUMP JUMPDEST PUSH2 0x8C0 JUMP JUMPDEST CALLVALUE DUP1 ISZERO PUSH2 0x43C JUMPI PUSH1 0x0 DUP1 REVERT JUMPDEST POP PUSH2 0x1FD PUSH1 0x0 DUP1 MLOAD PUSH1 0x20 PUSH2 0x12EF DUP4 CODECOPY DUP2 MLOAD SWAP2 MSTORE DUP2 JUMP JUMPDEST CALLVALUE DUP1 ISZERO PUSH2 0x45E JUMPI PUSH1 0x0 DUP1 REVERT JUMPDEST POP PUSH2 0x1A6 PUSH2 0x46D CALLDATASIZE PUSH1 0x4 PUSH2 0x105E JUMP JUMPDEST PUSH2 0x8E3 JUMP JUMPDEST PUSH2 0x1A6 PUSH2 0x480 CALLDATASIZE PUSH1 0x4 PUSH2 0x11D6 JUMP JUMPDEST PUSH2 0x8FF JUMP JUMPDEST CALLVALUE DUP1 ISZERO PUSH2 0x491 JUMPI PUSH1 0x0 DUP1 REVERT JUMPDEST POP PUSH2 0x1FD PUSH1 0x0 DUP1 MLOAD PUSH1 0x20 PUSH2 0x12AF DUP4 CODECOPY DUP2 MLOAD SWAP2 MSTORE DUP2 JUMP JUMPDEST CALLVALUE DUP1 ISZERO PUSH2 0x4B3 JUMPI PUSH1 0x0 DUP1 REVERT JUMPDEST POP PUSH2 0x1FD PUSH1 0x0 DUP1 MLOAD PUSH1 0x20 PUSH2 0x12CF DUP4 CODECOPY DUP2 MLOAD SWAP2 MSTORE DUP2 JUMP JUMPDEST CALLVALUE DUP1 ISZERO PUSH2 0x4D5 JUMPI PUSH1 0x0 DUP1 REVERT JUMPDEST POP PUSH2 0x4F9 PUSH2 0x4E4 CALLDATASIZE PUSH1 0x4 PUSH2 0xFF8 JUMP JUMPDEST PUSH1 0x33 PUSH1 0x20 MSTORE PUSH1 0x0 SWAP1 DUP2 MSTORE PUSH1 0x40 SWAP1 KECCAK256 SLOAD PUSH1 0xFF AND DUP2 JUMP JUMPDEST PUSH1 0x40 MLOAD PUSH2 0x1D4 SWAP2 SWAP1 PUSH2 0x120F JUMP JUMPDEST PUSH1 0x0 DUP1 MLOAD PUSH1 0x20 PUSH2 0x12AF DUP4 CODECOPY DUP2 MLOAD SWAP2 MSTORE PUSH2 0x51E DUP2 PUSH2 0xA97 JUMP JUMPDEST POP PUSH1 0x34 SSTORE JUMP JUMPDEST PUSH1 0x0 PUSH1 0x1 PUSH1 0x1 PUSH1 0xE0 SHL SUB NOT DUP3 AND PUSH4 0x7965DB0B PUSH1 0xE0 SHL EQ DUP1 PUSH2 0x555 JUMPI POP PUSH4 0x1FFC9A7 PUSH1 0xE0 SHL PUSH1 0x1 PUSH1 0x1 PUSH1 0xE0 SHL SUB NOT DUP4 AND EQ JUMPDEST SWAP3 SWAP2 POP POP JUMP JUMPDEST PUSH1 0x0 SWAP1 DUP2 MSTORE PUSH1 0x0 DUP1 MLOAD PUSH1 0x20 PUSH2 0x130F DUP4 CODECOPY DUP2 MLOAD SWAP2 MSTORE PUSH1 0x20 MSTORE PUSH1 0x40 SWAP1 KECCAK256 PUSH1 0x1 ADD SLOAD SWAP1 JUMP JUMPDEST PUSH2 0x586 DUP3 PUSH2 0x55B JUMP JUMPDEST PUSH2 0x58F DUP2 PUSH2 0xA97 JUMP JUMPDEST PUSH2 0x599 DUP4 DUP4 PUSH2 0xAA1 JUMP JUMPDEST POP POP POP POP JUMP JUMPDEST PUSH1 0x1 PUSH1 0x1 PUSH1 0xA0 SHL SUB DUP2 AND CALLER EQ PUSH2 0x5C8 JUMPI PUSH1 0x40 MLOAD PUSH4 0x334BD919 PUSH1 0xE1 SHL DUP2 MSTORE PUSH1 0x4 ADD PUSH1 0x40 MLOAD DUP1 SWAP2 SUB SWAP1 REVERT JUMPDEST PUSH2 0x5D2 DUP3 DUP3 PUSH2 0xB46 JUMP JUMPDEST POP POP POP JUMP JUMPDEST PUSH1 0x0 DUP1 MLOAD PUSH1 0x20 PUSH2 0x12AF DUP4 CODECOPY DUP2 MLOAD SWAP2 MSTORE PUSH2 0x5EF DUP2 PUSH2 0xA97 JUMP JUMPDEST PUSH1 0x40 MLOAD CALLER SWAP1 SELFBALANCE DUP1 ISZERO PUSH2 0x8FC MUL SWAP2 PUSH1 0x0 DUP2 DUP2 DUP2 DUP6 DUP9 DUP9 CALL SWAP4 POP POP POP POP ISZERO DUP1 ISZERO PUSH2 0x61B JUMPI RETURNDATASIZE PUSH1 0x0 DUP1 RETURNDATACOPY RETURNDATASIZE PUSH1 0x0 REVERT JUMPDEST POP POP JUMP JUMPDEST PUSH1 0x0 DUP1 MLOAD PUSH1 0x20 PUSH2 0x12CF DUP4 CODECOPY DUP2 MLOAD SWAP2 MSTORE PUSH2 0x637 DUP2 PUSH2 0xA97 JUMP JUMPDEST PUSH2 0x63F PUSH2 0xBC2 JUMP JUMPDEST POP JUMP JUMPDEST PUSH1 0x0 DUP1 MLOAD PUSH1 0x20 PUSH2 0x12AF DUP4 CODECOPY DUP2 MLOAD SWAP2 MSTORE PUSH2 0x65A DUP2 PUSH2 0xA97 JUMP JUMPDEST POP PUSH1 0x35 DUP1 SLOAD PUSH1 0x1 PUSH1 0x1 PUSH1 0xA0 SHL SUB NOT AND PUSH1 0x1 PUSH1 0x1 PUSH1 0xA0 SHL SUB SWAP3 SWAP1 SWAP3 AND SWAP2 SWAP1 SWAP2 OR SWAP1 SSTORE JUMP JUMPDEST PUSH1 0x0 DUP1 MLOAD PUSH1 0x20 PUSH2 0x12EF DUP4 CODECOPY DUP2 MLOAD SWAP2 MSTORE PUSH2 0x695 DUP2 PUSH2 0xA97 JUMP JUMPDEST DUP6 DUP5 EQ ISZERO DUP1 PUSH2 0x6A4 JUMPI POP DUP6 DUP3 EQ ISZERO JUMPDEST ISZERO PUSH2 0x6C2 JUMPI PUSH1 0x40 MLOAD PUSH4 0x516E361D PUSH1 0xE1 SHL DUP2 MSTORE PUSH1 0x4 ADD PUSH1 0x40 MLOAD DUP1 SWAP2 SUB SWAP1 REVERT JUMPDEST PUSH1 0x0 JUMPDEST DUP7 DUP2 LT ISZERO PUSH2 0x74E JUMPI PUSH2 0x73C DUP9 DUP9 DUP4 DUP2 DUP2 LT PUSH2 0x6E2 JUMPI PUSH2 0x6E2 PUSH2 0x1237 JUMP JUMPDEST SWAP1 POP PUSH1 0x20 MUL ADD CALLDATALOAD DUP8 DUP8 DUP5 DUP2 DUP2 LT PUSH2 0x6FB JUMPI PUSH2 0x6FB PUSH2 0x1237 JUMP JUMPDEST SWAP1 POP PUSH1 0x20 MUL ADD PUSH1 0x20 DUP2 ADD SWAP1 PUSH2 0x710 SWAP2 SWAP1 PUSH2 0x108A JUMP JUMPDEST DUP7 DUP7 DUP6 DUP2 DUP2 LT PUSH2 0x722 JUMPI PUSH2 0x722 PUSH2 0x1237 JUMP JUMPDEST SWAP1 POP PUSH1 0x20 MUL ADD PUSH1 0x20 DUP2 ADD SWAP1 PUSH2 0x737 SWAP2 SWAP1 PUSH2 0x124D JUMP JUMPDEST PUSH2 0xC22 JUMP JUMPDEST DUP1 PUSH2 0x746 DUP2 PUSH2 0x127E JUMP JUMPDEST SWAP2 POP POP PUSH2 0x6C5 JUMP JUMPDEST POP POP POP POP POP POP POP POP JUMP JUMPDEST PUSH1 0x0 DUP1 MLOAD PUSH1 0x20 PUSH2 0x12CF DUP4 CODECOPY DUP2 MLOAD SWAP2 MSTORE PUSH2 0x770 DUP2 PUSH2 0xA97 JUMP JUMPDEST PUSH2 0x63F PUSH2 0xD3D JUMP JUMPDEST PUSH1 0x0 SWAP2 DUP3 MSTORE PUSH1 0x0 DUP1 MLOAD PUSH1 0x20 PUSH2 0x130F DUP4 CODECOPY DUP2 MLOAD SWAP2 MSTORE PUSH1 0x20 SWAP1 DUP2 MSTORE PUSH1 0x40 DUP1 DUP5 KECCAK256 PUSH1 0x1 PUSH1 0x1 PUSH1 0xA0 SHL SUB SWAP4 SWAP1 SWAP4 AND DUP5 MSTORE SWAP2 SWAP1 MSTORE SWAP1 KECCAK256 SLOAD PUSH1 0xFF AND SWAP1 JUMP JUMPDEST PUSH32 0xF0C57E16840DF040F15088DC2F81FE391C3923BEC73E23A9662EFC9C229C6A00 DUP1 SLOAD PUSH1 0x1 PUSH1 0x40 SHL DUP2 DIV PUSH1 0xFF AND ISZERO SWAP1 PUSH8 0xFFFFFFFFFFFFFFFF AND PUSH1 0x0 DUP2 ISZERO DUP1 ISZERO PUSH2 0x7F6 JUMPI POP DUP3 JUMPDEST SWAP1 POP PUSH1 0x0 DUP3 PUSH8 0xFFFFFFFFFFFFFFFF AND PUSH1 0x1 EQ DUP1 ISZERO PUSH2 0x813 JUMPI POP ADDRESS EXTCODESIZE ISZERO JUMPDEST SWAP1 POP DUP2 ISZERO DUP1 ISZERO PUSH2 0x821 JUMPI POP DUP1 ISZERO JUMPDEST ISZERO PUSH2 0x83F JUMPI PUSH1 0x40 MLOAD PUSH4 0xF92EE8A9 PUSH1 0xE0 SHL DUP2 MSTORE PUSH1 0x4 ADD PUSH1 0x40 MLOAD DUP1 SWAP2 SUB SWAP1 REVERT JUMPDEST DUP5 SLOAD PUSH8 0xFFFFFFFFFFFFFFFF NOT AND PUSH1 0x1 OR DUP6 SSTORE DUP4 ISZERO PUSH2 0x869 JUMPI DUP5 SLOAD PUSH1 0xFF PUSH1 0x40 SHL NOT AND PUSH1 0x1 PUSH1 0x40 SHL OR DUP6 SSTORE JUMPDEST PUSH2 0x872 DUP7 PUSH2 0xD86 JUMP JUMPDEST DUP4 ISZERO PUSH2 0x8B8 JUMPI DUP5 SLOAD PUSH1 0xFF PUSH1 0x40 SHL NOT AND DUP6 SSTORE PUSH1 0x40 MLOAD PUSH1 0x1 DUP2 MSTORE PUSH32 0xC7F505B2F371AE2175EE4913F4499E1F2633A7B5936321EED1CDAEB6115181D2 SWAP1 PUSH1 0x20 ADD PUSH1 0x40 MLOAD DUP1 SWAP2 SUB SWAP1 LOG1 JUMPDEST POP POP POP POP POP POP JUMP JUMPDEST PUSH1 0x0 DUP1 MLOAD PUSH1 0x20 PUSH2 0x12EF DUP4 CODECOPY DUP2 MLOAD SWAP2 MSTORE PUSH2 0x8D8 DUP2 PUSH2 0xA97 JUMP JUMPDEST PUSH2 0x599 DUP5 DUP5 DUP5 PUSH2 0xC22 JUMP JUMPDEST PUSH2 0x8EC DUP3 PUSH2 0x55B JUMP JUMPDEST PUSH2 0x8F5 DUP2 PUSH2 0xA97 JUMP JUMPDEST PUSH2 0x599 DUP4 DUP4 PUSH2 0xB46 JUMP JUMPDEST PUSH2 0x907 PUSH2 0xE52 JUMP JUMPDEST PUSH2 0x90F PUSH2 0xE85 JUMP JUMPDEST PUSH1 0x0 DUP2 PUSH1 0x7 DUP2 GT ISZERO PUSH2 0x923 JUMPI PUSH2 0x923 PUSH2 0x11F9 JUMP JUMPDEST SUB PUSH2 0x941 JUMPI PUSH1 0x40 MLOAD PUSH4 0x2ADF37A3 PUSH1 0xE1 SHL DUP2 MSTORE PUSH1 0x4 ADD PUSH1 0x40 MLOAD DUP1 SWAP2 SUB SWAP1 REVERT JUMPDEST DUP2 PUSH1 0x0 SUB PUSH2 0x962 JUMPI PUSH1 0x40 MLOAD PUSH4 0x516E361D PUSH1 0xE1 SHL DUP2 MSTORE PUSH1 0x4 ADD PUSH1 0x40 MLOAD DUP1 SWAP2 SUB SWAP1 REVERT JUMPDEST DUP2 PUSH1 0x34 SLOAD PUSH2 0x970 SWAP2 SWAP1 PUSH2 0x1297 JUMP JUMPDEST CALLVALUE LT ISZERO PUSH2 0x9A2 JUMPI PUSH1 0x34 SLOAD PUSH1 0x40 MLOAD PUSH3 0xFAE2D5 PUSH1 0xE2 SHL DUP2 MSTORE PUSH1 0x4 DUP2 ADD SWAP2 SWAP1 SWAP2 MSTORE PUSH1 0x24 DUP2 ADD DUP4 SWAP1 MSTORE PUSH1 0x44 ADD JUMPDEST PUSH1 0x40 MLOAD DUP1 SWAP2 SUB SWAP1 REVERT JUMPDEST PUSH1 0x0 JUMPDEST DUP3 DUP2 LT ISZERO PUSH2 0xA6D JUMPI PUSH1 0x32 DUP1 SLOAD SWAP1 PUSH1 0x0 PUSH2 0x9BD DUP4 PUSH2 0x127E JUMP JUMPDEST SWAP1 SWAP2 SSTORE POP POP PUSH1 0x32 SLOAD PUSH1 0x0 DUP2 DUP2 MSTORE PUSH1 0x33 PUSH1 0x20 MSTORE PUSH1 0x40 SWAP1 KECCAK256 DUP1 SLOAD DUP5 SWAP2 SWAP1 PUSH1 0xFF NOT AND PUSH1 0x1 DUP4 PUSH1 0x7 DUP2 GT ISZERO PUSH2 0x9F0 JUMPI PUSH2 0x9F0 PUSH2 0x11F9 JUMP JUMPDEST MUL OR SWAP1 SSTORE POP PUSH1 0x35 SLOAD PUSH1 0x40 MLOAD PUSH4 0x94BF804D PUSH1 0xE0 SHL DUP2 MSTORE PUSH1 0x4 DUP2 ADD DUP4 SWAP1 MSTORE CALLER PUSH1 0x24 DUP3 ADD MSTORE PUSH1 0x1 PUSH1 0x1 PUSH1 0xA0 SHL SUB SWAP1 SWAP2 AND SWAP1 PUSH4 0x94BF804D SWAP1 PUSH1 0x44 ADD PUSH1 0x0 PUSH1 0x40 MLOAD DUP1 DUP4 SUB DUP2 PUSH1 0x0 DUP8 DUP1 EXTCODESIZE ISZERO DUP1 ISZERO PUSH2 0xA41 JUMPI PUSH1 0x0 DUP1 REVERT JUMPDEST POP GAS CALL ISZERO DUP1 ISZERO PUSH2 0xA55 JUMPI RETURNDATASIZE PUSH1 0x0 DUP1 RETURNDATACOPY RETURNDATASIZE PUSH1 0x0 REVERT JUMPDEST POP POP POP POP POP DUP1 DUP1 PUSH2 0xA65 SWAP1 PUSH2 0x127E JUMP JUMPDEST SWAP2 POP POP PUSH2 0x9A5 JUMP JUMPDEST POP PUSH2 0x61B PUSH1 0x1 PUSH32 0x9B779B17422D0DF92223018B32B4D1FA46E071723D6817E2486D003BECC55F00 SSTORE JUMP JUMPDEST PUSH2 0x63F DUP2 CALLER PUSH2 0xEF5 JUMP JUMPDEST PUSH1 0x0 PUSH1 0x0 DUP1 MLOAD PUSH1 0x20 PUSH2 0x130F DUP4 CODECOPY DUP2 MLOAD SWAP2 MSTORE PUSH2 0xABC DUP5 DUP5 PUSH2 0x778 JUMP JUMPDEST PUSH2 0xB3C JUMPI PUSH1 0x0 DUP5 DUP2 MSTORE PUSH1 0x20 DUP3 DUP2 MSTORE PUSH1 0x40 DUP1 DUP4 KECCAK256 PUSH1 0x1 PUSH1 0x1 PUSH1 0xA0 SHL SUB DUP8 AND DUP5 MSTORE SWAP1 SWAP2 MSTORE SWAP1 KECCAK256 DUP1 SLOAD PUSH1 0xFF NOT AND PUSH1 0x1 OR SWAP1 SSTORE PUSH2 0xAF2 CALLER SWAP1 JUMP JUMPDEST PUSH1 0x1 PUSH1 0x1 PUSH1 0xA0 SHL SUB AND DUP4 PUSH1 0x1 PUSH1 0x1 PUSH1 0xA0 SHL SUB AND DUP6 PUSH32 0x2F8788117E7EFF1D82E926EC794901D17C78024A50270940304540A733656F0D PUSH1 0x40 MLOAD PUSH1 0x40 MLOAD DUP1 SWAP2 SUB SWAP1 LOG4 PUSH1 0x1 SWAP2 POP POP PUSH2 0x555 JUMP JUMPDEST PUSH1 0x0 SWAP2 POP POP PUSH2 0x555 JUMP JUMPDEST PUSH1 0x0 PUSH1 0x0 DUP1 MLOAD PUSH1 0x20 PUSH2 0x130F DUP4 CODECOPY DUP2 MLOAD SWAP2 MSTORE PUSH2 0xB61 DUP5 DUP5 PUSH2 0x778 JUMP JUMPDEST ISZERO PUSH2 0xB3C JUMPI PUSH1 0x0 DUP5 DUP2 MSTORE PUSH1 0x20 DUP3 DUP2 MSTORE PUSH1 0x40 DUP1 DUP4 KECCAK256 PUSH1 0x1 PUSH1 0x1 PUSH1 0xA0 SHL SUB DUP8 AND DUP1 DUP6 MSTORE SWAP3 MSTORE DUP1 DUP4 KECCAK256 DUP1 SLOAD PUSH1 0xFF NOT AND SWAP1 SSTORE MLOAD CALLER SWAP3 DUP8 SWAP2 PUSH32 0xF6391F5C32D9C69D2A47EA670B442974B53935D1EDC7FD64EB21E047A839171B SWAP2 SWAP1 LOG4 PUSH1 0x1 SWAP2 POP POP PUSH2 0x555 JUMP JUMPDEST PUSH2 0xBCA PUSH2 0xF2E JUMP JUMPDEST PUSH1 0x0 DUP1 MLOAD PUSH1 0x20 PUSH2 0x132F DUP4 CODECOPY DUP2 MLOAD SWAP2 MSTORE DUP1 SLOAD PUSH1 0xFF NOT AND DUP2 SSTORE PUSH32 0x5DB9EE0A495BF2E6FF9C91A7834C1BA4FDD244A5E8AA4E537BD38AEAE4B073AA CALLER JUMPDEST PUSH1 0x40 MLOAD PUSH1 0x1 PUSH1 0x1 PUSH1 0xA0 SHL SUB SWAP1 SWAP2 AND DUP2 MSTORE PUSH1 0x20 ADD PUSH1 0x40 MLOAD DUP1 SWAP2 SUB SWAP1 LOG1 POP JUMP JUMPDEST PUSH1 0x0 DUP2 PUSH1 0x7 DUP2 GT ISZERO PUSH2 0xC36 JUMPI PUSH2 0xC36 PUSH2 0x11F9 JUMP JUMPDEST EQ DUP1 PUSH2 0xC40 JUMPI POP DUP3 ISZERO JUMPDEST DUP1 PUSH2 0xC52 JUMPI POP PUSH1 0x1 PUSH1 0x1 PUSH1 0xA0 SHL SUB DUP3 AND ISZERO JUMPDEST ISZERO PUSH2 0xC70 JUMPI PUSH1 0x40 MLOAD PUSH4 0x516E361D PUSH1 0xE1 SHL DUP2 MSTORE PUSH1 0x4 ADD PUSH1 0x40 MLOAD DUP1 SWAP2 SUB SWAP1 REVERT JUMPDEST PUSH1 0x0 JUMPDEST DUP4 DUP2 LT ISZERO PUSH2 0x599 JUMPI PUSH1 0x32 DUP1 SLOAD SWAP1 PUSH1 0x0 PUSH2 0xC8B DUP4 PUSH2 0x127E JUMP JUMPDEST SWAP1 SWAP2 SSTORE POP POP PUSH1 0x32 SLOAD PUSH1 0x0 DUP2 DUP2 MSTORE PUSH1 0x33 PUSH1 0x20 MSTORE PUSH1 0x40 SWAP1 KECCAK256 DUP1 SLOAD DUP5 SWAP2 SWAP1 PUSH1 0xFF NOT AND PUSH1 0x1 DUP4 PUSH1 0x7 DUP2 GT ISZERO PUSH2 0xCBE JUMPI PUSH2 0xCBE PUSH2 0x11F9 JUMP JUMPDEST MUL OR SWAP1 SSTORE POP PUSH1 0x35 SLOAD PUSH1 0x40 MLOAD PUSH4 0x94BF804D PUSH1 0xE0 SHL DUP2 MSTORE PUSH1 0x4 DUP2 ADD DUP4 SWAP1 MSTORE PUSH1 0x1 PUSH1 0x1 PUSH1 0xA0 SHL SUB DUP7 DUP2 AND PUSH1 0x24 DUP4 ADD MSTORE SWAP1 SWAP2 AND SWAP1 PUSH4 0x94BF804D SWAP1 PUSH1 0x44 ADD PUSH1 0x0 PUSH1 0x40 MLOAD DUP1 DUP4 SUB DUP2 PUSH1 0x0 DUP8 DUP1 EXTCODESIZE ISZERO DUP1 ISZERO PUSH2 0xD11 JUMPI PUSH1 0x0 DUP1 REVERT JUMPDEST POP GAS CALL ISZERO DUP1 ISZERO PUSH2 0xD25 JUMPI RETURNDATASIZE PUSH1 0x0 DUP1 RETURNDATACOPY RETURNDATASIZE PUSH1 0x0 REVERT JUMPDEST POP POP POP POP POP DUP1 DUP1 PUSH2 0xD35 SWAP1 PUSH2 0x127E JUMP JUMPDEST SWAP2 POP POP PUSH2 0xC73 JUMP JUMPDEST PUSH2 0xD45 PUSH2 0xE52 JUMP JUMPDEST PUSH1 0x0 DUP1 MLOAD PUSH1 0x20 PUSH2 0x132F DUP4 CODECOPY DUP2 MLOAD SWAP2 MSTORE DUP1 SLOAD PUSH1 0xFF NOT AND PUSH1 0x1 OR DUP2 SSTORE PUSH32 0x62E78CEA01BEE320CD4E420270B5EA74000D11B0C9F74754EBDBFC544B05A258 CALLER PUSH2 0xC04 JUMP JUMPDEST PUSH2 0xD8E PUSH2 0xF5E JUMP JUMPDEST PUSH2 0xD96 PUSH2 0xFA7 JUMP JUMPDEST PUSH2 0xD9E PUSH2 0xFB7 JUMP JUMPDEST PUSH2 0xDA6 PUSH2 0xFBF JUMP JUMPDEST PUSH2 0xDB1 PUSH1 0x0 DUP3 PUSH2 0xAA1 JUMP JUMPDEST POP PUSH2 0xDCA PUSH1 0x0 DUP1 MLOAD PUSH1 0x20 PUSH2 0x12CF DUP4 CODECOPY DUP2 MLOAD SWAP2 MSTORE DUP3 PUSH2 0xAA1 JUMP JUMPDEST POP PUSH2 0xDE3 PUSH1 0x0 DUP1 MLOAD PUSH1 0x20 PUSH2 0x12AF DUP4 CODECOPY DUP2 MLOAD SWAP2 MSTORE DUP3 PUSH2 0xAA1 JUMP JUMPDEST POP PUSH2 0xDFC PUSH1 0x0 DUP1 MLOAD PUSH1 0x20 PUSH2 0x12EF DUP4 CODECOPY DUP2 MLOAD SWAP2 MSTORE DUP3 PUSH2 0xAA1 JUMP JUMPDEST POP PUSH2 0xE27 PUSH32 0xA49807205CE4D355092EF5A8A18F56E8913CF4A201FBE287825B095693C21775 DUP3 PUSH2 0xAA1 JUMP JUMPDEST POP PUSH2 0x61B PUSH32 0x35AF5B5A3FB4C88A8CB5E26E8A68A53CC8F6CAFCC4000A1DB1AE5753E25A168E DUP3 PUSH2 0xAA1 JUMP JUMPDEST PUSH1 0x0 DUP1 MLOAD PUSH1 0x20 PUSH2 0x132F DUP4 CODECOPY DUP2 MLOAD SWAP2 MSTORE SLOAD PUSH1 0xFF AND ISZERO PUSH2 0xE83 JUMPI PUSH1 0x40 MLOAD PUSH4 0xD93C0665 PUSH1 0xE0 SHL DUP2 MSTORE PUSH1 0x4 ADD PUSH1 0x40 MLOAD DUP1 SWAP2 SUB SWAP1 REVERT JUMPDEST JUMP JUMPDEST PUSH32 0x9B779B17422D0DF92223018B32B4D1FA46E071723D6817E2486D003BECC55F00 DUP1 SLOAD PUSH1 0x1 NOT ADD PUSH2 0xEC9 JUMPI PUSH1 0x40 MLOAD PUSH4 0x3EE5AEB5 PUSH1 0xE0 SHL DUP2 MSTORE PUSH1 0x4 ADD PUSH1 0x40 MLOAD DUP1 SWAP2 SUB SWAP1 REVERT JUMPDEST PUSH1 0x2 SWAP1 SSTORE JUMP JUMPDEST PUSH1 0x1 PUSH32 0x9B779B17422D0DF92223018B32B4D1FA46E071723D6817E2486D003BECC55F00 SSTORE JUMP JUMPDEST PUSH2 0xEFF DUP3 DUP3 PUSH2 0x778 JUMP JUMPDEST PUSH2 0x61B JUMPI PUSH1 0x40 MLOAD PUSH4 0xE2517D3F PUSH1 0xE0 SHL DUP2 MSTORE PUSH1 0x1 PUSH1 0x1 PUSH1 0xA0 SHL SUB DUP3 AND PUSH1 0x4 DUP3 ADD MSTORE PUSH1 0x24 DUP2 ADD DUP4 SWAP1 MSTORE PUSH1 0x44 ADD PUSH2 0x999 JUMP JUMPDEST PUSH1 0x0 DUP1 MLOAD PUSH1 0x20 PUSH2 0x132F DUP4 CODECOPY DUP2 MLOAD SWAP2 MSTORE SLOAD PUSH1 0xFF AND PUSH2 0xE83 JUMPI PUSH1 0x40 MLOAD PUSH4 0x8DFC202B PUSH1 0xE0 SHL DUP2 MSTORE PUSH1 0x4 ADD PUSH1 0x40 MLOAD DUP1 SWAP2 SUB SWAP1 REVERT JUMPDEST PUSH32 0xF0C57E16840DF040F15088DC2F81FE391C3923BEC73E23A9662EFC9C229C6A00 SLOAD PUSH1 0x1 PUSH1 0x40 SHL SWAP1 DIV PUSH1 0xFF AND PUSH2 0xE83 JUMPI PUSH1 0x40 MLOAD PUSH4 0x1AFCD79F PUSH1 0xE3 SHL DUP2 MSTORE PUSH1 0x4 ADD PUSH1 0x40 MLOAD DUP1 SWAP2 SUB SWAP1 REVERT JUMPDEST PUSH2 0xFAF PUSH2 0xF5E JUMP JUMPDEST PUSH2 0xE83 PUSH2 0xFCF JUMP JUMPDEST PUSH2 0xE83 PUSH2 0xF5E JUMP JUMPDEST PUSH2 0xFC7 PUSH2 0xF5E JUMP JUMPDEST PUSH2 0xE83 PUSH2 0xFF0 JUMP JUMPDEST PUSH2 0xFD7 PUSH2 0xF5E JUMP JUMPDEST PUSH1 0x0 DUP1 MLOAD PUSH1 0x20 PUSH2 0x132F DUP4 CODECOPY DUP2 MLOAD SWAP2 MSTORE DUP1 SLOAD PUSH1 0xFF NOT AND SWAP1 SSTORE JUMP JUMPDEST PUSH2 0xECF PUSH2 0xF5E JUMP JUMPDEST PUSH1 0x0 PUSH1 0x20 DUP3 DUP5 SUB SLT ISZERO PUSH2 0x100A JUMPI PUSH1 0x0 DUP1 REVERT JUMPDEST POP CALLDATALOAD SWAP2 SWAP1 POP JUMP JUMPDEST PUSH1 0x0 PUSH1 0x20 DUP3 DUP5 SUB SLT ISZERO PUSH2 0x1023 JUMPI PUSH1 0x0 DUP1 REVERT JUMPDEST DUP2 CALLDATALOAD PUSH1 0x1 PUSH1 0x1 PUSH1 0xE0 SHL SUB NOT DUP2 AND DUP2 EQ PUSH2 0x103B JUMPI PUSH1 0x0 DUP1 REVERT JUMPDEST SWAP4 SWAP3 POP POP POP JUMP JUMPDEST DUP1 CALLDATALOAD PUSH1 0x1 PUSH1 0x1 PUSH1 0xA0 SHL SUB DUP2 AND DUP2 EQ PUSH2 0x1059 JUMPI PUSH1 0x0 DUP1 REVERT JUMPDEST SWAP2 SWAP1 POP JUMP JUMPDEST PUSH1 0x0 DUP1 PUSH1 0x40 DUP4 DUP6 SUB SLT ISZERO PUSH2 0x1071 JUMPI PUSH1 0x0 DUP1 REVERT JUMPDEST DUP3 CALLDATALOAD SWAP2 POP PUSH2 0x1081 PUSH1 0x20 DUP5 ADD PUSH2 0x1042 JUMP JUMPDEST SWAP1 POP SWAP3 POP SWAP3 SWAP1 POP JUMP JUMPDEST PUSH1 0x0 PUSH1 0x20 DUP3 DUP5 SUB SLT ISZERO PUSH2 0x109C JUMPI PUSH1 0x0 DUP1 REVERT JUMPDEST PUSH2 0x103B DUP3 PUSH2 0x1042 JUMP JUMPDEST PUSH1 0x0 DUP1 DUP4 PUSH1 0x1F DUP5 ADD SLT PUSH2 0x10B7 JUMPI PUSH1 0x0 DUP1 REVERT JUMPDEST POP DUP2 CALLDATALOAD PUSH8 0xFFFFFFFFFFFFFFFF DUP2 GT ISZERO PUSH2 0x10CF JUMPI PUSH1 0x0 DUP1 REVERT JUMPDEST PUSH1 0x20 DUP4 ADD SWAP2 POP DUP4 PUSH1 0x20 DUP3 PUSH1 0x5 SHL DUP6 ADD ADD GT ISZERO PUSH2 0x10EA JUMPI PUSH1 0x0 DUP1 REVERT JUMPDEST SWAP3 POP SWAP3 SWAP1 POP JUMP JUMPDEST PUSH1 0x0 DUP1 PUSH1 0x0 DUP1 PUSH1 0x0 DUP1 PUSH1 0x60 DUP8 DUP10 SUB SLT ISZERO PUSH2 0x110A JUMPI PUSH1 0x0 DUP1 REVERT JUMPDEST DUP7 CALLDATALOAD PUSH8 0xFFFFFFFFFFFFFFFF DUP1 DUP3 GT ISZERO PUSH2 0x1122 JUMPI PUSH1 0x0 DUP1 REVERT JUMPDEST PUSH2 0x112E DUP11 DUP4 DUP12 ADD PUSH2 0x10A5 JUMP JUMPDEST SWAP1 SWAP9 POP SWAP7 POP PUSH1 0x20 DUP10 ADD CALLDATALOAD SWAP2 POP DUP1 DUP3 GT ISZERO PUSH2 0x1147 JUMPI PUSH1 0x0 DUP1 REVERT JUMPDEST PUSH2 0x1153 DUP11 DUP4 DUP12 ADD PUSH2 0x10A5 JUMP JUMPDEST SWAP1 SWAP7 POP SWAP5 POP PUSH1 0x40 DUP10 ADD CALLDATALOAD SWAP2 POP DUP1 DUP3 GT ISZERO PUSH2 0x116C JUMPI PUSH1 0x0 DUP1 REVERT JUMPDEST POP PUSH2 0x1179 DUP10 DUP3 DUP11 ADD PUSH2 0x10A5 JUMP JUMPDEST SWAP8 SWAP11 SWAP7 SWAP10 POP SWAP5 SWAP8 POP SWAP3 SWAP6 SWAP4 SWAP5 SWAP3 POP POP POP JUMP JUMPDEST DUP1 CALLDATALOAD PUSH1 0x8 DUP2 LT PUSH2 0x1059 JUMPI PUSH1 0x0 DUP1 REVERT JUMPDEST PUSH1 0x0 DUP1 PUSH1 0x0 PUSH1 0x60 DUP5 DUP7 SUB SLT ISZERO PUSH2 0x11AF JUMPI PUSH1 0x0 DUP1 REVERT JUMPDEST DUP4 CALLDATALOAD SWAP3 POP PUSH2 0x11BF PUSH1 0x20 DUP6 ADD PUSH2 0x1042 JUMP JUMPDEST SWAP2 POP PUSH2 0x11CD PUSH1 0x40 DUP6 ADD PUSH2 0x118B JUMP JUMPDEST SWAP1 POP SWAP3 POP SWAP3 POP SWAP3 JUMP JUMPDEST PUSH1 0x0 DUP1 PUSH1 0x40 DUP4 DUP6 SUB SLT ISZERO PUSH2 0x11E9 JUMPI PUSH1 0x0 DUP1 REVERT JUMPDEST DUP3 CALLDATALOAD SWAP2 POP PUSH2 0x1081 PUSH1 0x20 DUP5 ADD PUSH2 0x118B JUMP JUMPDEST PUSH4 0x4E487B71 PUSH1 0xE0 SHL PUSH1 0x0 MSTORE PUSH1 0x21 PUSH1 0x4 MSTORE PUSH1 0x24 PUSH1 0x0 REVERT JUMPDEST PUSH1 0x20 DUP2 ADD PUSH1 0x8 DUP4 LT PUSH2 0x1231 JUMPI PUSH4 0x4E487B71 PUSH1 0xE0 SHL PUSH1 0x0 MSTORE PUSH1 0x21 PUSH1 0x4 MSTORE PUSH1 0x24 PUSH1 0x0 REVERT JUMPDEST SWAP2 SWAP1 MSTORE SWAP1 JUMP JUMPDEST PUSH4 0x4E487B71 PUSH1 0xE0 SHL PUSH1 0x0 MSTORE PUSH1 0x32 PUSH1 0x4 MSTORE PUSH1 0x24 PUSH1 0x0 REVERT JUMPDEST PUSH1 0x0 PUSH1 0x20 DUP3 DUP5 SUB SLT ISZERO PUSH2 0x125F JUMPI PUSH1 0x0 DUP1 REVERT JUMPDEST PUSH2 0x103B DUP3 PUSH2 0x118B JUMP JUMPDEST PUSH4 0x4E487B71 PUSH1 0xE0 SHL PUSH1 0x0 MSTORE PUSH1 0x11 PUSH1 0x4 MSTORE PUSH1 0x24 PUSH1 0x0 REVERT JUMPDEST PUSH1 0x0 PUSH1 0x1 DUP3 ADD PUSH2 0x1290 JUMPI PUSH2 0x1290 PUSH2 0x1268 JUMP JUMPDEST POP PUSH1 0x1 ADD SWAP1 JUMP JUMPDEST DUP1 DUP3 MUL DUP2 ISZERO DUP3 DUP3 DIV DUP5 EQ OR PUSH2 0x555 JUMPI PUSH2 0x555 PUSH2 0x1268 JUMP INVALID 0xB1 SWAP6 CHAINID 0xDF CREATE 0x1E DUP6 PUSH16 0xB3F010C267A7B1C60363CF8A4664E21C 0xC8 SWAP13 0x26 0x22 CHAINID KECCAK256 0x21 0x4E PUSH6 0xD7A28E3265B3 PUSH27 0x6474929F336521B332C1681B933F6CB9F3376673440D862A9F2DF0 INVALID 0xD2 0xC7 PUSH23 0x48DE5860A4CC508CD0818C85B8B8A1AB4CEEEF8D981C89 JUMP 0xA6 MUL 0xDD PUSH28 0xC7DEC4DCEEDDA775E58DD541E08A116C6C53815C0BD028192F7B6268 STOP 0xCD 0x5E 0xD1 0x5C PUSH15 0x187E77E9AEE88184C21F4F2182AB58 0x27 0xCB EXTCODESIZE PUSH31 0x7FBEDCD63F03300A2646970667358221220C3A9D25ECD95DE97F573439B4E SWAP9 PREVRANDAO CREATE 0xC4 0xEC EXTCODECOPY 0xBF DUP2 BASEFEE 0xDA 0xD1 0xBF PUSH9 0x5A12D7FD78E164736F PUSH13 0x63430008140033000000000000 "},"gasEstimates":{"creation":{"codeDepositCost":"999200","executionCost":"1041","totalCost":"1000241"},"external":{"ADMIN_ROLE()":"284","DEFAULT_ADMIN_ROLE()":"284","MINTER_ROLE()":"infinite","OWNER_ROLE()":"infinite","PAUSER_ROLE()":"infinite","UTILITY_ROLE()":"218","characterNFT()":"2471","getRoleAdmin(bytes32)":"infinite","grantRole(bytes32,address)":"infinite","hasRole(bytes32,address)":"infinite","initialize(address)":"infinite","mintBatch(uint256[],address[],uint8[])":"infinite","mintCharacterPrivate(uint256,address,uint8)":"infinite","mintCharacterPublic(uint256,uint8)":"infinite","pause()":"infinite","paused()":"infinite","pricePerMint()":"2428","renounceRole(bytes32,address)":"29212","revokeRole(bytes32,address)":"infinite","setCharacterNFT(address)":"infinite","setPricePerMint(uint256)":"infinite","supportsInterface(bytes4)":"472","tokenIdCounter()":"2362","tokenIdToCharacterClass(uint256)":"2601","unpause()":"infinite","withdraw()":"infinite"},"internal":{"_mintChar(uint256,address,enum CharacterNFTManager.CharacterClass)":"infinite"}},"methodIdentifiers":{"ADMIN_ROLE()":"75b238fc","DEFAULT_ADMIN_ROLE()":"a217fddf","MINTER_ROLE()":"d5391393","OWNER_ROLE()":"e58378bb","PAUSER_ROLE()":"e63ab1e9","UTILITY_ROLE()":"8f296759","characterNFT()":"384d10ee","getRoleAdmin(bytes32)":"248a9ca3","grantRole(bytes32,address)":"2f2ff15d","hasRole(bytes32,address)":"91d14854","initialize(address)":"c4d66de8","mintBatch(uint256[],address[],uint8[])":"7174326a","mintCharacterPrivate(uint256,address,uint8)":"d049963e","mintCharacterPublic(uint256,uint8)":"e524145b","pause()":"8456cb59","paused()":"5c975abb","pricePerMint()":"c5610a29","renounceRole(bytes32,address)":"36568abe","revokeRole(bytes32,address)":"d547741f","setCharacterNFT(address)":"5c75cadb","setPricePerMint(uint256)":"01466bc0","supportsInterface(bytes4)":"01ffc9a7","tokenIdCounter()":"98bdf6f5","tokenIdToCharacterClass(uint256)":"f7a763c4","unpause()":"3f4ba83a","withdraw()":"3ccfd60b"}},"storageLayout":{"storage":[{"astId":4337,"contract":"contracts/erc721/CharacterNFTManager.sol:CharacterNFTManager","label":"__gap","offset":0,"slot":"0","type":"t_array(t_uint256)50_storage"},{"astId":4791,"contract":"contracts/erc721/CharacterNFTManager.sol:CharacterNFTManager","label":"tokenIdCounter","offset":0,"slot":"50","type":"t_uint256"},{"astId":4796,"contract":"contracts/erc721/CharacterNFTManager.sol:CharacterNFTManager","label":"tokenIdToCharacterClass","offset":0,"slot":"51","type":"t_mapping(t_uint256,t_enum(CharacterClass)4788)"},{"astId":4798,"contract":"contracts/erc721/CharacterNFTManager.sol:CharacterNFTManager","label":"pricePerMint","offset":0,"slot":"52","type":"t_uint256"},{"astId":4800,"contract":"contracts/erc721/CharacterNFTManager.sol:CharacterNFTManager","label":"characterNFT","offset":0,"slot":"53","type":"t_address"}],"types":{"t_address":{"encoding":"inplace","label":"address","numberOfBytes":"20"},"t_array(t_uint256)50_storage":{"base":"t_uint256","encoding":"inplace","label":"uint256[50]","numberOfBytes":"1600"},"t_enum(CharacterClass)4788":{"encoding":"inplace","label":"enum CharacterNFTManager.CharacterClass","numberOfBytes":"1"},"t_mapping(t_uint256,t_enum(CharacterClass)4788)":{"encoding":"mapping","key":"t_uint256","label":"mapping(uint256 => enum CharacterNFTManager.CharacterClass)","numberOfBytes":"32","value":"t_enum(CharacterClass)4788"},"t_uint256":{"encoding":"inplace","label":"uint256","numberOfBytes":"32"}}},"userdoc":{"errors":{"InsufficientFunds(uint256,uint256)":[{"notice":"ERRORS *"}],"InvalidValues()":[{"notice":"ERRORS *"}]},"kind":"user","methods":{"OWNER_ROLE()":{"notice":"ROLES *"},"initialize(address)":{"notice":"FUNCTIONS *"},"tokenIdCounter()":{"notice":"VARIABLES *"}},"version":1}}}}