{"contracts/skills/SkillTree.sol":{"SkillTree":{"abi":[{"inputs":[],"name":"AccessControlBadConfirmation","type":"error"},{"inputs":[{"internalType":"address","name":"account","type":"address"},{"internalType":"bytes32","name":"neededRole","type":"bytes32"}],"name":"AccessControlUnauthorizedAccount","type":"error"},{"inputs":[],"name":"EnforcedPause","type":"error"},{"inputs":[],"name":"ExpectedPause","type":"error"},{"inputs":[],"name":"InvalidInitialization","type":"error"},{"inputs":[],"name":"InvalidValues","type":"error"},{"inputs":[],"name":"NotInitializing","type":"error"},{"inputs":[],"name":"ReentrancyGuardReentrantCall","type":"error"},{"inputs":[],"name":"SkillNotAllowed","type":"error"},{"anonymous":false,"inputs":[{"indexed":false,"internalType":"uint64","name":"version","type":"uint64"}],"name":"Initialized","type":"event"},{"anonymous":false,"inputs":[{"indexed":false,"internalType":"address","name":"account","type":"address"}],"name":"Paused","type":"event"},{"anonymous":false,"inputs":[{"indexed":true,"internalType":"bytes32","name":"role","type":"bytes32"},{"indexed":true,"internalType":"bytes32","name":"previousAdminRole","type":"bytes32"},{"indexed":true,"internalType":"bytes32","name":"newAdminRole","type":"bytes32"}],"name":"RoleAdminChanged","type":"event"},{"anonymous":false,"inputs":[{"indexed":true,"internalType":"bytes32","name":"role","type":"bytes32"},{"indexed":true,"internalType":"address","name":"account","type":"address"},{"indexed":true,"internalType":"address","name":"sender","type":"address"}],"name":"RoleGranted","type":"event"},{"anonymous":false,"inputs":[{"indexed":true,"internalType":"bytes32","name":"role","type":"bytes32"},{"indexed":true,"internalType":"address","name":"account","type":"address"},{"indexed":true,"internalType":"address","name":"sender","type":"address"}],"name":"RoleRevoked","type":"event"},{"anonymous":false,"inputs":[{"indexed":false,"internalType":"address","name":"account","type":"address"}],"name":"Unpaused","type":"event"},{"inputs":[],"name":"ADMIN_ROLE","outputs":[{"internalType":"bytes32","name":"","type":"bytes32"}],"stateMutability":"view","type":"function"},{"inputs":[],"name":"DEFAULT_ADMIN_ROLE","outputs":[{"internalType":"bytes32","name":"","type":"bytes32"}],"stateMutability":"view","type":"function"},{"inputs":[],"name":"MINTER_ROLE","outputs":[{"internalType":"bytes32","name":"","type":"bytes32"}],"stateMutability":"view","type":"function"},{"inputs":[],"name":"OWNER_ROLE","outputs":[{"internalType":"bytes32","name":"","type":"bytes32"}],"stateMutability":"view","type":"function"},{"inputs":[],"name":"PAUSER_ROLE","outputs":[{"internalType":"bytes32","name":"","type":"bytes32"}],"stateMutability":"view","type":"function"},{"inputs":[],"name":"UTILITY_ROLE","outputs":[{"internalType":"bytes32","name":"","type":"bytes32"}],"stateMutability":"view","type":"function"},{"inputs":[{"internalType":"uint256","name":"tokenId","type":"uint256"},{"internalType":"uint256","name":"skillChosen","type":"uint256"}],"name":"canUseSkill","outputs":[],"stateMutability":"view","type":"function"},{"inputs":[{"internalType":"uint256","name":"","type":"uint256"},{"internalType":"uint256","name":"","type":"uint256"}],"name":"charClassToSkills","outputs":[{"internalType":"uint256","name":"","type":"uint256"}],"stateMutability":"view","type":"function"},{"inputs":[],"name":"characterNFTManager","outputs":[{"internalType":"address","name":"","type":"address"}],"stateMutability":"view","type":"function"},{"inputs":[{"internalType":"bytes32","name":"role","type":"bytes32"}],"name":"getRoleAdmin","outputs":[{"internalType":"bytes32","name":"","type":"bytes32"}],"stateMutability":"view","type":"function"},{"inputs":[{"internalType":"bytes32","name":"role","type":"bytes32"},{"internalType":"address","name":"account","type":"address"}],"name":"grantRole","outputs":[],"stateMutability":"nonpayable","type":"function"},{"inputs":[{"internalType":"bytes32","name":"role","type":"bytes32"},{"internalType":"address","name":"account","type":"address"}],"name":"hasRole","outputs":[{"internalType":"bool","name":"","type":"bool"}],"stateMutability":"view","type":"function"},{"inputs":[{"internalType":"address","name":"initialOwner","type":"address"}],"name":"initialize","outputs":[],"stateMutability":"nonpayable","type":"function"},{"inputs":[],"name":"levelContractAddress","outputs":[{"internalType":"address","name":"","type":"address"}],"stateMutability":"view","type":"function"},{"inputs":[],"name":"pause","outputs":[],"stateMutability":"nonpayable","type":"function"},{"inputs":[],"name":"paused","outputs":[{"internalType":"bool","name":"","type":"bool"}],"stateMutability":"view","type":"function"},{"inputs":[{"internalType":"bytes32","name":"role","type":"bytes32"},{"internalType":"address","name":"callerConfirmation","type":"address"}],"name":"renounceRole","outputs":[],"stateMutability":"nonpayable","type":"function"},{"inputs":[{"internalType":"bytes32","name":"role","type":"bytes32"},{"internalType":"address","name":"account","type":"address"}],"name":"revokeRole","outputs":[],"stateMutability":"nonpayable","type":"function"},{"inputs":[{"internalType":"address","name":"_characterNFTManager","type":"address"}],"name":"setCharacterNFTManager","outputs":[],"stateMutability":"nonpayable","type":"function"},{"inputs":[{"internalType":"address","name":"_levelContract","type":"address"}],"name":"setLevelContract","outputs":[],"stateMutability":"nonpayable","type":"function"},{"inputs":[{"internalType":"bytes4","name":"interfaceId","type":"bytes4"}],"name":"supportsInterface","outputs":[{"internalType":"bool","name":"","type":"bool"}],"stateMutability":"view","type":"function"},{"inputs":[],"name":"unpause","outputs":[],"stateMutability":"nonpayable","type":"function"}],"devdoc":{"errors":{"AccessControlBadConfirmation()":[{"details":"The caller of a function is not the expected one. NOTE: Don't confuse with {AccessControlUnauthorizedAccount}."}],"AccessControlUnauthorizedAccount(address,bytes32)":[{"details":"The `account` is missing a role."}],"EnforcedPause()":[{"details":"The operation failed because the contract is paused."}],"ExpectedPause()":[{"details":"The operation failed because the contract is not paused."}],"InvalidInitialization()":[{"details":"The contract is already initialized."}],"NotInitializing()":[{"details":"The contract is not initializing."}],"ReentrancyGuardReentrantCall()":[{"details":"Unauthorized reentrant call."}]},"events":{"Initialized(uint64)":{"details":"Triggered when the contract has been initialized or reinitialized."},"Paused(address)":{"details":"Emitted when the pause is triggered by `account`."},"RoleAdminChanged(bytes32,bytes32,bytes32)":{"details":"Emitted when `newAdminRole` is set as ``role``'s admin role, replacing `previousAdminRole` `DEFAULT_ADMIN_ROLE` is the starting admin for all roles, despite {RoleAdminChanged} not being emitted signaling this."},"RoleGranted(bytes32,address,address)":{"details":"Emitted when `account` is granted `role`. `sender` is the account that originated the contract call, an admin role bearer except when using {AccessControl-_setupRole}."},"RoleRevoked(bytes32,address,address)":{"details":"Emitted when `account` is revoked `role`. `sender` is the account that originated the contract call:   - if using `revokeRole`, it is the admin role bearer   - if using `renounceRole`, it is the role bearer (i.e. `account`)"},"Unpaused(address)":{"details":"Emitted when the pause is lifted by `account`."}},"kind":"dev","methods":{"canUseSkill(uint256,uint256)":{"details":"Check that the character class and skill chosen are valid"},"getRoleAdmin(bytes32)":{"details":"Returns the admin role that controls `role`. See {grantRole} and {revokeRole}. To change a role's admin, use {_setRoleAdmin}."},"grantRole(bytes32,address)":{"details":"Grants `role` to `account`. If `account` had not been already granted `role`, emits a {RoleGranted} event. Requirements: - the caller must have ``role``'s admin role. May emit a {RoleGranted} event."},"hasRole(bytes32,address)":{"details":"Returns `true` if `account` has been granted `role`."},"paused()":{"details":"Returns true if the contract is paused, and false otherwise."},"renounceRole(bytes32,address)":{"details":"Revokes `role` from the calling account. Roles are often managed via {grantRole} and {revokeRole}: this function's purpose is to provide a mechanism for accounts to lose their privileges if they are compromised (such as when a trusted device is misplaced). If the calling account had been revoked `role`, emits a {RoleRevoked} event. Requirements: - the caller must be `callerConfirmation`. May emit a {RoleRevoked} event."},"revokeRole(bytes32,address)":{"details":"Revokes `role` from `account`. If `account` had been granted `role`, emits a {RoleRevoked} event. Requirements: - the caller must have ``role``'s admin role. May emit a {RoleRevoked} event."},"setCharacterNFTManager(address)":{"details":"Set the address of the CharacterNFTManager contract"},"setLevelContract(address)":{"details":"Set the address of the Level contract"},"supportsInterface(bytes4)":{"details":"See {IERC165-supportsInterface}."}},"version":1},"evm":{"bytecode":{"linkReferences":{},"object":"608060405234801561001057600080fd5b50611267806100206000396000f3fe608060405234801561001057600080fd5b50600436106101425760003560e01c80638456cb59116100b8578063c4d66de81161007c578063c4d66de8146102c0578063d5391393146102d3578063d547741f146102fa578063d97412751461030d578063e58378bb14610320578063e63ab1e91461033557600080fd5b80638456cb59146102635780638f2967591461026b57806391d148541461029257806394dd3215146102a5578063a217fddf146102b857600080fd5b80633f4ba83a1161010a5780633f4ba83a146101e35780634deb1934146101eb5780635adaa492146101fe5780635c975abb146102115780635d1b973a1461022957806375b238fc1461023c57600080fd5b806301ffc9a7146101475780631c6031921461016f578063248a9ca31461019a5780632f2ff15d146101bb57806336568abe146101d0575b600080fd5b61015a61015536600461107c565b61034a565b60405190151581526020015b60405180910390f35b603454610182906001600160a01b031681565b6040516001600160a01b039091168152602001610166565b6101ad6101a83660046110ad565b610381565b604051908152602001610166565b6101ce6101c93660046110e2565b6103a3565b005b6101ce6101de3660046110e2565b6103c5565b6101ce6103fd565b6101ad6101f936600461110e565b610420565b6101ce61020c366004611130565b610451565b6000805160206112128339815191525460ff1661015a565b6101ce61023736600461110e565b61048c565b6101ad7fa49807205ce4d355092ef5a8a18f56e8913cf4a201fbe287825b095693c2177581565b6101ce61062d565b6101ad7f35af5b5a3fb4c88a8cb5e26e8a68a53cc8f6cafcc4000a1db1ae5753e25a168e81565b61015a6102a03660046110e2565b61064d565b6101ce6102b3366004611130565b610685565b6101ad600081565b6101ce6102ce366004611130565b6106c0565b6101ad7f9f2df0fed2c77648de5860a4cc508cd0818c85b8b8a1ab4ceeef8d981c8956a681565b6101ce6103083660046110e2565b610be5565b603354610182906001600160a01b031681565b6101ad6000805160206111b283398151915281565b6101ad6000805160206111d283398151915281565b60006001600160e01b03198216637965db0b60e01b148061037b57506301ffc9a760e01b6001600160e01b03198316145b92915050565b60009081526000805160206111f2833981519152602052604090206001015490565b6103ac82610381565b6103b581610c01565b6103bf8383610c0b565b50505050565b6001600160a01b03811633146103ee5760405163334bd91960e11b815260040160405180910390fd5b6103f88282610cb0565b505050565b6000805160206111d283398151915261041581610c01565b61041d610d2c565b50565b6032602052816000526040600020818154811061043c57600080fd5b90600052602060002001600091509150505481565b6000805160206111b283398151915261046981610c01565b50603380546001600160a01b0319166001600160a01b0392909216919091179055565b603454604051633de9d8f160e21b8152600481018490526001600160a01b0390911690600090829063f7a763c490602401602060405180830381865afa1580156104da573d6000803e3d6000fd5b505050506040513d601f19601f820116820180604052508101906104fe919061114b565b603354604051633404591760e21b8152600481018790529192506001600160a01b031690600090829063d011645c90602401602060405180830381865afa15801561054d573d6000803e3d6000fd5b505050506040513d601f19601f82011682018060405250810190610571919061116c565b905060006032600085600781111561058b5761058b611185565b81526020019081526020016000208054806020026020016040519081016040528092919081815260200182805480156105e357602002820191906000526020600020905b8154815260200190600101908083116105cf575b505050505090508082815181106105fc576105fc61119b565b602002602001015186111561062457604051636b47a4a960e01b815260040160405180910390fd5b50505050505050565b6000805160206111d283398151915261064581610c01565b61041d610d8c565b60009182526000805160206111f2833981519152602090815260408084206001600160a01b0393909316845291905290205460ff1690565b6000805160206111b283398151915261069d81610c01565b50603480546001600160a01b0319166001600160a01b0392909216919091179055565b7ff0c57e16840df040f15088dc2f81fe391c3923bec73e23a9662efc9c229c6a008054600160401b810460ff16159067ffffffffffffffff166000811580156107065750825b905060008267ffffffffffffffff1660011480156107235750303b155b905081158015610731575080155b1561074f5760405163f92ee8a960e01b815260040160405180910390fd5b845467ffffffffffffffff19166001178555831561077957845460ff60401b1916600160401b1785555b61078286610dd5565b60408051610160810182526000808252600160208084018290526002948401949094526003606084015260046080840152600560a0840152600660c0840152600760e084015260086101008401526009610120840152600a61014084015290526032909152610814907f0d07fe408fa264e656a9c06e272928e4d4bb400d93cd5b5e74ac592f6170c2fd90600b611017565b5060408051610160810182526000808252600160208084019190915260029383018490526003606084015260046080840152600560a0840152600660c0840152600760e084015260086101008401526009610120840152600a61014084015292905260329091526108a8907f9ff19f865638bb86eeeae31c2a9ec896d92141edd461fe8f31e9e7484e4d2bb590600b611017565b5060408051610160810182526000808252600160208084019190915260029383019390935260036060830181905260046080840152600560a0840152600660c0840152600760e084015260086101008401526009610120840152600a6101408401529052603290915261093e907f1f20ec30f5e9c102cf5806d0bb8118b98c797a37ea4ca5b5c306ba879366c77c90600b611017565b5060408051610160810182526000808252600160208084019190915260029383019390935260036060830152600460808301819052600560a0840152600660c0840152600760e084015260086101008401526009610120840152600a610140840152905260329091526109d4907f3f52cf82629296489b84e1dbb72f035157400392aa100335795b652755f8cdda90600b611017565b506040805161016081018252600080825260016020808401919091526002938301939093526003606083015260046080830152600560a08301819052600660c0840152600760e084015260086101008401526009610120840152600a61014084015290526032909152610a6a907ff1229d5c96a3de3bdb5814fe87c3432b211770fda268ddcd390c87c4a4feb8e790600b611017565b506040805161016081018252600080825260016020808401919091526002938301939093526003606083015260046080830152600560a0830152600660c08301819052600760e084015260086101008401526009610120840152600a61014084015290526032909152610b00907f125f38041639e32c103ab47aba064e25405a1fb08d2d6ee74cd07eb22ba6e04090600b611017565b506040805161016081018252600080825260016020808401919091526002938301939093526003606083015260046080830152600560a0830152600660c0830152600760e0830181905260086101008401526009610120840152600a61014084015290526032909152610b96907f46bf7effec7da617c09fb0f99690c7f788a904e44d0053fc402fa3db73b3672590600b611017565b508315610bdd57845460ff60401b19168555604051600181527fc7f505b2f371ae2175ee4913f4499e1f2633a7b5936321eed1cdaeb6115181d29060200160405180910390a15b505050505050565b610bee82610381565b610bf781610c01565b6103bf8383610cb0565b61041d8133610eb7565b60006000805160206111f2833981519152610c26848461064d565b610ca6576000848152602082815260408083206001600160a01b03871684529091529020805460ff19166001179055610c5c3390565b6001600160a01b0316836001600160a01b0316857f2f8788117e7eff1d82e926ec794901d17c78024a50270940304540a733656f0d60405160405180910390a4600191505061037b565b600091505061037b565b60006000805160206111f2833981519152610ccb848461064d565b15610ca6576000848152602082815260408083206001600160a01b0387168085529252808320805460ff1916905551339287917ff6391f5c32d9c69d2a47ea670b442974b53935d1edc7fd64eb21e047a839171b9190a4600191505061037b565b610d34610ef4565b600080516020611212833981519152805460ff191681557f5db9ee0a495bf2e6ff9c91a7834c1ba4fdd244a5e8aa4e537bd38aeae4b073aa335b6040516001600160a01b03909116815260200160405180910390a150565b610d94610f26565b600080516020611212833981519152805460ff191660011781557f62e78cea01bee320cd4e420270b5ea74000d11b0c9f74754ebdbfc544b05a25833610d6e565b610ddd610f57565b610de5610fa0565b610ded610fb0565b610df5610fb8565b610e00600082610c0b565b50610e196000805160206111d283398151915282610c0b565b50610e326000805160206111b283398151915282610c0b565b50610e5d7f9f2df0fed2c77648de5860a4cc508cd0818c85b8b8a1ab4ceeef8d981c8956a682610c0b565b50610e887fa49807205ce4d355092ef5a8a18f56e8913cf4a201fbe287825b095693c2177582610c0b565b50610eb37f35af5b5a3fb4c88a8cb5e26e8a68a53cc8f6cafcc4000a1db1ae5753e25a168e82610c0b565b5050565b610ec1828261064d565b610eb35760405163e2517d3f60e01b81526001600160a01b03821660048201526024810183905260440160405180910390fd5b6000805160206112128339815191525460ff16610f2457604051638dfc202b60e01b815260040160405180910390fd5b565b6000805160206112128339815191525460ff1615610f245760405163d93c066560e01b815260040160405180910390fd5b7ff0c57e16840df040f15088dc2f81fe391c3923bec73e23a9662efc9c229c6a0054600160401b900460ff16610f2457604051631afcd79f60e31b815260040160405180910390fd5b610fa8610f57565b610f24610fc8565b610f24610f57565b610fc0610f57565b610f24610fe9565b610fd0610f57565b600080516020611212833981519152805460ff19169055565b610ff1610f57565b60017f9b779b17422d0df92223018b32b4d1fa46e071723d6817e2486d003becc55f0055565b828054828255906000526020600020908101928215611057579160200282015b82811115611057578251829060ff16905591602001919060010190611037565b50611063929150611067565b5090565b5b808211156110635760008155600101611068565b60006020828403121561108e57600080fd5b81356001600160e01b0319811681146110a657600080fd5b9392505050565b6000602082840312156110bf57600080fd5b5035919050565b80356001600160a01b03811681146110dd57600080fd5b919050565b600080604083850312156110f557600080fd5b82359150611105602084016110c6565b90509250929050565b6000806040838503121561112157600080fd5b50508035926020909101359150565b60006020828403121561114257600080fd5b6110a6826110c6565b60006020828403121561115d57600080fd5b8151600881106110a657600080fd5b60006020828403121561117e57600080fd5b5051919050565b634e487b7160e01b600052602160045260246000fd5b634e487b7160e01b600052603260045260246000fdfeb19546dff01e856fb3f010c267a7b1c60363cf8a4664e21cc89c26224620214e65d7a28e3265b37a6474929f336521b332c1681b933f6cb9f3376673440d862a02dd7bc7dec4dceedda775e58dd541e08a116c6c53815c0bd028192f7b626800cd5ed15c6e187e77e9aee88184c21f4f2182ab5827cb3b7e07fbedcd63f03300a264697066735822122036ef747118ccf178a883ee05f13279e81f9825a21aec381f582318d49d3f36be64736f6c63430008140033","opcodes":"PUSH1 0x80 PUSH1 0x40 MSTORE CALLVALUE DUP1 ISZERO PUSH2 0x10 JUMPI PUSH1 0x0 DUP1 REVERT JUMPDEST POP PUSH2 0x1267 DUP1 PUSH2 0x20 PUSH1 0x0 CODECOPY PUSH1 0x0 RETURN INVALID PUSH1 0x80 PUSH1 0x40 MSTORE CALLVALUE DUP1 ISZERO PUSH2 0x10 JUMPI PUSH1 0x0 DUP1 REVERT JUMPDEST POP PUSH1 0x4 CALLDATASIZE LT PUSH2 0x142 JUMPI PUSH1 0x0 CALLDATALOAD PUSH1 0xE0 SHR DUP1 PUSH4 0x8456CB59 GT PUSH2 0xB8 JUMPI DUP1 PUSH4 0xC4D66DE8 GT PUSH2 0x7C JUMPI DUP1 PUSH4 0xC4D66DE8 EQ PUSH2 0x2C0 JUMPI DUP1 PUSH4 0xD5391393 EQ PUSH2 0x2D3 JUMPI DUP1 PUSH4 0xD547741F EQ PUSH2 0x2FA JUMPI DUP1 PUSH4 0xD9741275 EQ PUSH2 0x30D JUMPI DUP1 PUSH4 0xE58378BB EQ PUSH2 0x320 JUMPI DUP1 PUSH4 0xE63AB1E9 EQ PUSH2 0x335 JUMPI PUSH1 0x0 DUP1 REVERT JUMPDEST DUP1 PUSH4 0x8456CB59 EQ PUSH2 0x263 JUMPI DUP1 PUSH4 0x8F296759 EQ PUSH2 0x26B JUMPI DUP1 PUSH4 0x91D14854 EQ PUSH2 0x292 JUMPI DUP1 PUSH4 0x94DD3215 EQ PUSH2 0x2A5 JUMPI DUP1 PUSH4 0xA217FDDF EQ PUSH2 0x2B8 JUMPI PUSH1 0x0 DUP1 REVERT JUMPDEST DUP1 PUSH4 0x3F4BA83A GT PUSH2 0x10A JUMPI DUP1 PUSH4 0x3F4BA83A EQ PUSH2 0x1E3 JUMPI DUP1 PUSH4 0x4DEB1934 EQ PUSH2 0x1EB JUMPI DUP1 PUSH4 0x5ADAA492 EQ PUSH2 0x1FE JUMPI DUP1 PUSH4 0x5C975ABB EQ PUSH2 0x211 JUMPI DUP1 PUSH4 0x5D1B973A EQ PUSH2 0x229 JUMPI DUP1 PUSH4 0x75B238FC EQ PUSH2 0x23C JUMPI PUSH1 0x0 DUP1 REVERT JUMPDEST DUP1 PUSH4 0x1FFC9A7 EQ PUSH2 0x147 JUMPI DUP1 PUSH4 0x1C603192 EQ PUSH2 0x16F JUMPI DUP1 PUSH4 0x248A9CA3 EQ PUSH2 0x19A JUMPI DUP1 PUSH4 0x2F2FF15D EQ PUSH2 0x1BB JUMPI DUP1 PUSH4 0x36568ABE EQ PUSH2 0x1D0 JUMPI JUMPDEST PUSH1 0x0 DUP1 REVERT JUMPDEST PUSH2 0x15A PUSH2 0x155 CALLDATASIZE PUSH1 0x4 PUSH2 0x107C JUMP JUMPDEST PUSH2 0x34A JUMP JUMPDEST PUSH1 0x40 MLOAD SWAP1 ISZERO ISZERO DUP2 MSTORE PUSH1 0x20 ADD JUMPDEST PUSH1 0x40 MLOAD DUP1 SWAP2 SUB SWAP1 RETURN JUMPDEST PUSH1 0x34 SLOAD PUSH2 0x182 SWAP1 PUSH1 0x1 PUSH1 0x1 PUSH1 0xA0 SHL SUB AND DUP2 JUMP JUMPDEST PUSH1 0x40 MLOAD PUSH1 0x1 PUSH1 0x1 PUSH1 0xA0 SHL SUB SWAP1 SWAP2 AND DUP2 MSTORE PUSH1 0x20 ADD PUSH2 0x166 JUMP JUMPDEST PUSH2 0x1AD PUSH2 0x1A8 CALLDATASIZE PUSH1 0x4 PUSH2 0x10AD JUMP JUMPDEST PUSH2 0x381 JUMP JUMPDEST PUSH1 0x40 MLOAD SWAP1 DUP2 MSTORE PUSH1 0x20 ADD PUSH2 0x166 JUMP JUMPDEST PUSH2 0x1CE PUSH2 0x1C9 CALLDATASIZE PUSH1 0x4 PUSH2 0x10E2 JUMP JUMPDEST PUSH2 0x3A3 JUMP JUMPDEST STOP JUMPDEST PUSH2 0x1CE PUSH2 0x1DE CALLDATASIZE PUSH1 0x4 PUSH2 0x10E2 JUMP JUMPDEST PUSH2 0x3C5 JUMP JUMPDEST PUSH2 0x1CE PUSH2 0x3FD JUMP JUMPDEST PUSH2 0x1AD PUSH2 0x1F9 CALLDATASIZE PUSH1 0x4 PUSH2 0x110E JUMP JUMPDEST PUSH2 0x420 JUMP JUMPDEST PUSH2 0x1CE PUSH2 0x20C CALLDATASIZE PUSH1 0x4 PUSH2 0x1130 JUMP JUMPDEST PUSH2 0x451 JUMP JUMPDEST PUSH1 0x0 DUP1 MLOAD PUSH1 0x20 PUSH2 0x1212 DUP4 CODECOPY DUP2 MLOAD SWAP2 MSTORE SLOAD PUSH1 0xFF AND PUSH2 0x15A JUMP JUMPDEST PUSH2 0x1CE PUSH2 0x237 CALLDATASIZE PUSH1 0x4 PUSH2 0x110E JUMP JUMPDEST PUSH2 0x48C JUMP JUMPDEST PUSH2 0x1AD PUSH32 0xA49807205CE4D355092EF5A8A18F56E8913CF4A201FBE287825B095693C21775 DUP2 JUMP JUMPDEST PUSH2 0x1CE PUSH2 0x62D JUMP JUMPDEST PUSH2 0x1AD PUSH32 0x35AF5B5A3FB4C88A8CB5E26E8A68A53CC8F6CAFCC4000A1DB1AE5753E25A168E DUP2 JUMP JUMPDEST PUSH2 0x15A PUSH2 0x2A0 CALLDATASIZE PUSH1 0x4 PUSH2 0x10E2 JUMP JUMPDEST PUSH2 0x64D JUMP JUMPDEST PUSH2 0x1CE PUSH2 0x2B3 CALLDATASIZE PUSH1 0x4 PUSH2 0x1130 JUMP JUMPDEST PUSH2 0x685 JUMP JUMPDEST PUSH2 0x1AD PUSH1 0x0 DUP2 JUMP JUMPDEST PUSH2 0x1CE PUSH2 0x2CE CALLDATASIZE PUSH1 0x4 PUSH2 0x1130 JUMP JUMPDEST PUSH2 0x6C0 JUMP JUMPDEST PUSH2 0x1AD PUSH32 0x9F2DF0FED2C77648DE5860A4CC508CD0818C85B8B8A1AB4CEEEF8D981C8956A6 DUP2 JUMP JUMPDEST PUSH2 0x1CE PUSH2 0x308 CALLDATASIZE PUSH1 0x4 PUSH2 0x10E2 JUMP JUMPDEST PUSH2 0xBE5 JUMP JUMPDEST PUSH1 0x33 SLOAD PUSH2 0x182 SWAP1 PUSH1 0x1 PUSH1 0x1 PUSH1 0xA0 SHL SUB AND DUP2 JUMP JUMPDEST PUSH2 0x1AD PUSH1 0x0 DUP1 MLOAD PUSH1 0x20 PUSH2 0x11B2 DUP4 CODECOPY DUP2 MLOAD SWAP2 MSTORE DUP2 JUMP JUMPDEST PUSH2 0x1AD PUSH1 0x0 DUP1 MLOAD PUSH1 0x20 PUSH2 0x11D2 DUP4 CODECOPY DUP2 MLOAD SWAP2 MSTORE DUP2 JUMP JUMPDEST PUSH1 0x0 PUSH1 0x1 PUSH1 0x1 PUSH1 0xE0 SHL SUB NOT DUP3 AND PUSH4 0x7965DB0B PUSH1 0xE0 SHL EQ DUP1 PUSH2 0x37B JUMPI POP PUSH4 0x1FFC9A7 PUSH1 0xE0 SHL PUSH1 0x1 PUSH1 0x1 PUSH1 0xE0 SHL SUB NOT DUP4 AND EQ JUMPDEST SWAP3 SWAP2 POP POP JUMP JUMPDEST PUSH1 0x0 SWAP1 DUP2 MSTORE PUSH1 0x0 DUP1 MLOAD PUSH1 0x20 PUSH2 0x11F2 DUP4 CODECOPY DUP2 MLOAD SWAP2 MSTORE PUSH1 0x20 MSTORE PUSH1 0x40 SWAP1 KECCAK256 PUSH1 0x1 ADD SLOAD SWAP1 JUMP JUMPDEST PUSH2 0x3AC DUP3 PUSH2 0x381 JUMP JUMPDEST PUSH2 0x3B5 DUP2 PUSH2 0xC01 JUMP JUMPDEST PUSH2 0x3BF DUP4 DUP4 PUSH2 0xC0B JUMP JUMPDEST POP POP POP POP JUMP JUMPDEST PUSH1 0x1 PUSH1 0x1 PUSH1 0xA0 SHL SUB DUP2 AND CALLER EQ PUSH2 0x3EE JUMPI PUSH1 0x40 MLOAD PUSH4 0x334BD919 PUSH1 0xE1 SHL DUP2 MSTORE PUSH1 0x4 ADD PUSH1 0x40 MLOAD DUP1 SWAP2 SUB SWAP1 REVERT JUMPDEST PUSH2 0x3F8 DUP3 DUP3 PUSH2 0xCB0 JUMP JUMPDEST POP POP POP JUMP JUMPDEST PUSH1 0x0 DUP1 MLOAD PUSH1 0x20 PUSH2 0x11D2 DUP4 CODECOPY DUP2 MLOAD SWAP2 MSTORE PUSH2 0x415 DUP2 PUSH2 0xC01 JUMP JUMPDEST PUSH2 0x41D PUSH2 0xD2C JUMP JUMPDEST POP JUMP JUMPDEST PUSH1 0x32 PUSH1 0x20 MSTORE DUP2 PUSH1 0x0 MSTORE PUSH1 0x40 PUSH1 0x0 KECCAK256 DUP2 DUP2 SLOAD DUP2 LT PUSH2 0x43C JUMPI PUSH1 0x0 DUP1 REVERT JUMPDEST SWAP1 PUSH1 0x0 MSTORE PUSH1 0x20 PUSH1 0x0 KECCAK256 ADD PUSH1 0x0 SWAP2 POP SWAP2 POP POP SLOAD DUP2 JUMP JUMPDEST PUSH1 0x0 DUP1 MLOAD PUSH1 0x20 PUSH2 0x11B2 DUP4 CODECOPY DUP2 MLOAD SWAP2 MSTORE PUSH2 0x469 DUP2 PUSH2 0xC01 JUMP JUMPDEST POP PUSH1 0x33 DUP1 SLOAD PUSH1 0x1 PUSH1 0x1 PUSH1 0xA0 SHL SUB NOT AND PUSH1 0x1 PUSH1 0x1 PUSH1 0xA0 SHL SUB SWAP3 SWAP1 SWAP3 AND SWAP2 SWAP1 SWAP2 OR SWAP1 SSTORE JUMP JUMPDEST PUSH1 0x34 SLOAD PUSH1 0x40 MLOAD PUSH4 0x3DE9D8F1 PUSH1 0xE2 SHL DUP2 MSTORE PUSH1 0x4 DUP2 ADD DUP5 SWAP1 MSTORE PUSH1 0x1 PUSH1 0x1 PUSH1 0xA0 SHL SUB SWAP1 SWAP2 AND SWAP1 PUSH1 0x0 SWAP1 DUP3 SWAP1 PUSH4 0xF7A763C4 SWAP1 PUSH1 0x24 ADD PUSH1 0x20 PUSH1 0x40 MLOAD DUP1 DUP4 SUB DUP2 DUP7 GAS STATICCALL ISZERO DUP1 ISZERO PUSH2 0x4DA JUMPI RETURNDATASIZE PUSH1 0x0 DUP1 RETURNDATACOPY RETURNDATASIZE PUSH1 0x0 REVERT JUMPDEST POP POP POP POP PUSH1 0x40 MLOAD RETURNDATASIZE PUSH1 0x1F NOT PUSH1 0x1F DUP3 ADD AND DUP3 ADD DUP1 PUSH1 0x40 MSTORE POP DUP2 ADD SWAP1 PUSH2 0x4FE SWAP2 SWAP1 PUSH2 0x114B JUMP JUMPDEST PUSH1 0x33 SLOAD PUSH1 0x40 MLOAD PUSH4 0x34045917 PUSH1 0xE2 SHL DUP2 MSTORE PUSH1 0x4 DUP2 ADD DUP8 SWAP1 MSTORE SWAP2 SWAP3 POP PUSH1 0x1 PUSH1 0x1 PUSH1 0xA0 SHL SUB AND SWAP1 PUSH1 0x0 SWAP1 DUP3 SWAP1 PUSH4 0xD011645C SWAP1 PUSH1 0x24 ADD PUSH1 0x20 PUSH1 0x40 MLOAD DUP1 DUP4 SUB DUP2 DUP7 GAS STATICCALL ISZERO DUP1 ISZERO PUSH2 0x54D JUMPI RETURNDATASIZE PUSH1 0x0 DUP1 RETURNDATACOPY RETURNDATASIZE PUSH1 0x0 REVERT JUMPDEST POP POP POP POP PUSH1 0x40 MLOAD RETURNDATASIZE PUSH1 0x1F NOT PUSH1 0x1F DUP3 ADD AND DUP3 ADD DUP1 PUSH1 0x40 MSTORE POP DUP2 ADD SWAP1 PUSH2 0x571 SWAP2 SWAP1 PUSH2 0x116C JUMP JUMPDEST SWAP1 POP PUSH1 0x0 PUSH1 0x32 PUSH1 0x0 DUP6 PUSH1 0x7 DUP2 GT ISZERO PUSH2 0x58B JUMPI PUSH2 0x58B PUSH2 0x1185 JUMP JUMPDEST DUP2 MSTORE PUSH1 0x20 ADD SWAP1 DUP2 MSTORE PUSH1 0x20 ADD PUSH1 0x0 KECCAK256 DUP1 SLOAD DUP1 PUSH1 0x20 MUL PUSH1 0x20 ADD PUSH1 0x40 MLOAD SWAP1 DUP2 ADD PUSH1 0x40 MSTORE DUP1 SWAP3 SWAP2 SWAP1 DUP2 DUP2 MSTORE PUSH1 0x20 ADD DUP3 DUP1 SLOAD DUP1 ISZERO PUSH2 0x5E3 JUMPI PUSH1 0x20 MUL DUP3 ADD SWAP2 SWAP1 PUSH1 0x0 MSTORE PUSH1 0x20 PUSH1 0x0 KECCAK256 SWAP1 JUMPDEST DUP2 SLOAD DUP2 MSTORE PUSH1 0x20 ADD SWAP1 PUSH1 0x1 ADD SWAP1 DUP1 DUP4 GT PUSH2 0x5CF JUMPI JUMPDEST POP POP POP POP POP SWAP1 POP DUP1 DUP3 DUP2 MLOAD DUP2 LT PUSH2 0x5FC JUMPI PUSH2 0x5FC PUSH2 0x119B JUMP JUMPDEST PUSH1 0x20 MUL PUSH1 0x20 ADD ADD MLOAD DUP7 GT ISZERO PUSH2 0x624 JUMPI PUSH1 0x40 MLOAD PUSH4 0x6B47A4A9 PUSH1 0xE0 SHL DUP2 MSTORE PUSH1 0x4 ADD PUSH1 0x40 MLOAD DUP1 SWAP2 SUB SWAP1 REVERT JUMPDEST POP POP POP POP POP POP POP JUMP JUMPDEST PUSH1 0x0 DUP1 MLOAD PUSH1 0x20 PUSH2 0x11D2 DUP4 CODECOPY DUP2 MLOAD SWAP2 MSTORE PUSH2 0x645 DUP2 PUSH2 0xC01 JUMP JUMPDEST PUSH2 0x41D PUSH2 0xD8C JUMP JUMPDEST PUSH1 0x0 SWAP2 DUP3 MSTORE PUSH1 0x0 DUP1 MLOAD PUSH1 0x20 PUSH2 0x11F2 DUP4 CODECOPY DUP2 MLOAD SWAP2 MSTORE PUSH1 0x20 SWAP1 DUP2 MSTORE PUSH1 0x40 DUP1 DUP5 KECCAK256 PUSH1 0x1 PUSH1 0x1 PUSH1 0xA0 SHL SUB SWAP4 SWAP1 SWAP4 AND DUP5 MSTORE SWAP2 SWAP1 MSTORE SWAP1 KECCAK256 SLOAD PUSH1 0xFF AND SWAP1 JUMP JUMPDEST PUSH1 0x0 DUP1 MLOAD PUSH1 0x20 PUSH2 0x11B2 DUP4 CODECOPY DUP2 MLOAD SWAP2 MSTORE PUSH2 0x69D DUP2 PUSH2 0xC01 JUMP JUMPDEST POP PUSH1 0x34 DUP1 SLOAD PUSH1 0x1 PUSH1 0x1 PUSH1 0xA0 SHL SUB NOT AND PUSH1 0x1 PUSH1 0x1 PUSH1 0xA0 SHL SUB SWAP3 SWAP1 SWAP3 AND SWAP2 SWAP1 SWAP2 OR SWAP1 SSTORE JUMP JUMPDEST PUSH32 0xF0C57E16840DF040F15088DC2F81FE391C3923BEC73E23A9662EFC9C229C6A00 DUP1 SLOAD PUSH1 0x1 PUSH1 0x40 SHL DUP2 DIV PUSH1 0xFF AND ISZERO SWAP1 PUSH8 0xFFFFFFFFFFFFFFFF AND PUSH1 0x0 DUP2 ISZERO DUP1 ISZERO PUSH2 0x706 JUMPI POP DUP3 JUMPDEST SWAP1 POP PUSH1 0x0 DUP3 PUSH8 0xFFFFFFFFFFFFFFFF AND PUSH1 0x1 EQ DUP1 ISZERO PUSH2 0x723 JUMPI POP ADDRESS EXTCODESIZE ISZERO JUMPDEST SWAP1 POP DUP2 ISZERO DUP1 ISZERO PUSH2 0x731 JUMPI POP DUP1 ISZERO JUMPDEST ISZERO PUSH2 0x74F JUMPI PUSH1 0x40 MLOAD PUSH4 0xF92EE8A9 PUSH1 0xE0 SHL DUP2 MSTORE PUSH1 0x4 ADD PUSH1 0x40 MLOAD DUP1 SWAP2 SUB SWAP1 REVERT JUMPDEST DUP5 SLOAD PUSH8 0xFFFFFFFFFFFFFFFF NOT AND PUSH1 0x1 OR DUP6 SSTORE DUP4 ISZERO PUSH2 0x779 JUMPI DUP5 SLOAD PUSH1 0xFF PUSH1 0x40 SHL NOT AND PUSH1 0x1 PUSH1 0x40 SHL OR DUP6 SSTORE JUMPDEST PUSH2 0x782 DUP7 PUSH2 0xDD5 JUMP JUMPDEST PUSH1 0x40 DUP1 MLOAD PUSH2 0x160 DUP2 ADD DUP3 MSTORE PUSH1 0x0 DUP1 DUP3 MSTORE PUSH1 0x1 PUSH1 0x20 DUP1 DUP5 ADD DUP3 SWAP1 MSTORE PUSH1 0x2 SWAP5 DUP5 ADD SWAP5 SWAP1 SWAP5 MSTORE PUSH1 0x3 PUSH1 0x60 DUP5 ADD MSTORE PUSH1 0x4 PUSH1 0x80 DUP5 ADD MSTORE PUSH1 0x5 PUSH1 0xA0 DUP5 ADD MSTORE PUSH1 0x6 PUSH1 0xC0 DUP5 ADD MSTORE PUSH1 0x7 PUSH1 0xE0 DUP5 ADD MSTORE PUSH1 0x8 PUSH2 0x100 DUP5 ADD MSTORE PUSH1 0x9 PUSH2 0x120 DUP5 ADD MSTORE PUSH1 0xA PUSH2 0x140 DUP5 ADD MSTORE SWAP1 MSTORE PUSH1 0x32 SWAP1 SWAP2 MSTORE PUSH2 0x814 SWAP1 PUSH32 0xD07FE408FA264E656A9C06E272928E4D4BB400D93CD5B5E74AC592F6170C2FD SWAP1 PUSH1 0xB PUSH2 0x1017 JUMP JUMPDEST POP PUSH1 0x40 DUP1 MLOAD PUSH2 0x160 DUP2 ADD DUP3 MSTORE PUSH1 0x0 DUP1 DUP3 MSTORE PUSH1 0x1 PUSH1 0x20 DUP1 DUP5 ADD SWAP2 SWAP1 SWAP2 MSTORE PUSH1 0x2 SWAP4 DUP4 ADD DUP5 SWAP1 MSTORE PUSH1 0x3 PUSH1 0x60 DUP5 ADD MSTORE PUSH1 0x4 PUSH1 0x80 DUP5 ADD MSTORE PUSH1 0x5 PUSH1 0xA0 DUP5 ADD MSTORE PUSH1 0x6 PUSH1 0xC0 DUP5 ADD MSTORE PUSH1 0x7 PUSH1 0xE0 DUP5 ADD MSTORE PUSH1 0x8 PUSH2 0x100 DUP5 ADD MSTORE PUSH1 0x9 PUSH2 0x120 DUP5 ADD MSTORE PUSH1 0xA PUSH2 0x140 DUP5 ADD MSTORE SWAP3 SWAP1 MSTORE PUSH1 0x32 SWAP1 SWAP2 MSTORE PUSH2 0x8A8 SWAP1 PUSH32 0x9FF19F865638BB86EEEAE31C2A9EC896D92141EDD461FE8F31E9E7484E4D2BB5 SWAP1 PUSH1 0xB PUSH2 0x1017 JUMP JUMPDEST POP PUSH1 0x40 DUP1 MLOAD PUSH2 0x160 DUP2 ADD DUP3 MSTORE PUSH1 0x0 DUP1 DUP3 MSTORE PUSH1 0x1 PUSH1 0x20 DUP1 DUP5 ADD SWAP2 SWAP1 SWAP2 MSTORE PUSH1 0x2 SWAP4 DUP4 ADD SWAP4 SWAP1 SWAP4 MSTORE PUSH1 0x3 PUSH1 0x60 DUP4 ADD DUP2 SWAP1 MSTORE PUSH1 0x4 PUSH1 0x80 DUP5 ADD MSTORE PUSH1 0x5 PUSH1 0xA0 DUP5 ADD MSTORE PUSH1 0x6 PUSH1 0xC0 DUP5 ADD MSTORE PUSH1 0x7 PUSH1 0xE0 DUP5 ADD MSTORE PUSH1 0x8 PUSH2 0x100 DUP5 ADD MSTORE PUSH1 0x9 PUSH2 0x120 DUP5 ADD MSTORE PUSH1 0xA PUSH2 0x140 DUP5 ADD MSTORE SWAP1 MSTORE PUSH1 0x32 SWAP1 SWAP2 MSTORE PUSH2 0x93E SWAP1 PUSH32 0x1F20EC30F5E9C102CF5806D0BB8118B98C797A37EA4CA5B5C306BA879366C77C SWAP1 PUSH1 0xB PUSH2 0x1017 JUMP JUMPDEST POP PUSH1 0x40 DUP1 MLOAD PUSH2 0x160 DUP2 ADD DUP3 MSTORE PUSH1 0x0 DUP1 DUP3 MSTORE PUSH1 0x1 PUSH1 0x20 DUP1 DUP5 ADD SWAP2 SWAP1 SWAP2 MSTORE PUSH1 0x2 SWAP4 DUP4 ADD SWAP4 SWAP1 SWAP4 MSTORE PUSH1 0x3 PUSH1 0x60 DUP4 ADD MSTORE PUSH1 0x4 PUSH1 0x80 DUP4 ADD DUP2 SWAP1 MSTORE PUSH1 0x5 PUSH1 0xA0 DUP5 ADD MSTORE PUSH1 0x6 PUSH1 0xC0 DUP5 ADD MSTORE PUSH1 0x7 PUSH1 0xE0 DUP5 ADD MSTORE PUSH1 0x8 PUSH2 0x100 DUP5 ADD MSTORE PUSH1 0x9 PUSH2 0x120 DUP5 ADD MSTORE PUSH1 0xA PUSH2 0x140 DUP5 ADD MSTORE SWAP1 MSTORE PUSH1 0x32 SWAP1 SWAP2 MSTORE PUSH2 0x9D4 SWAP1 PUSH32 0x3F52CF82629296489B84E1DBB72F035157400392AA100335795B652755F8CDDA SWAP1 PUSH1 0xB PUSH2 0x1017 JUMP JUMPDEST POP PUSH1 0x40 DUP1 MLOAD PUSH2 0x160 DUP2 ADD DUP3 MSTORE PUSH1 0x0 DUP1 DUP3 MSTORE PUSH1 0x1 PUSH1 0x20 DUP1 DUP5 ADD SWAP2 SWAP1 SWAP2 MSTORE PUSH1 0x2 SWAP4 DUP4 ADD SWAP4 SWAP1 SWAP4 MSTORE PUSH1 0x3 PUSH1 0x60 DUP4 ADD MSTORE PUSH1 0x4 PUSH1 0x80 DUP4 ADD MSTORE PUSH1 0x5 PUSH1 0xA0 DUP4 ADD DUP2 SWAP1 MSTORE PUSH1 0x6 PUSH1 0xC0 DUP5 ADD MSTORE PUSH1 0x7 PUSH1 0xE0 DUP5 ADD MSTORE PUSH1 0x8 PUSH2 0x100 DUP5 ADD MSTORE PUSH1 0x9 PUSH2 0x120 DUP5 ADD MSTORE PUSH1 0xA PUSH2 0x140 DUP5 ADD MSTORE SWAP1 MSTORE PUSH1 0x32 SWAP1 SWAP2 MSTORE PUSH2 0xA6A SWAP1 PUSH32 0xF1229D5C96A3DE3BDB5814FE87C3432B211770FDA268DDCD390C87C4A4FEB8E7 SWAP1 PUSH1 0xB PUSH2 0x1017 JUMP JUMPDEST POP PUSH1 0x40 DUP1 MLOAD PUSH2 0x160 DUP2 ADD DUP3 MSTORE PUSH1 0x0 DUP1 DUP3 MSTORE PUSH1 0x1 PUSH1 0x20 DUP1 DUP5 ADD SWAP2 SWAP1 SWAP2 MSTORE PUSH1 0x2 SWAP4 DUP4 ADD SWAP4 SWAP1 SWAP4 MSTORE PUSH1 0x3 PUSH1 0x60 DUP4 ADD MSTORE PUSH1 0x4 PUSH1 0x80 DUP4 ADD MSTORE PUSH1 0x5 PUSH1 0xA0 DUP4 ADD MSTORE PUSH1 0x6 PUSH1 0xC0 DUP4 ADD DUP2 SWAP1 MSTORE PUSH1 0x7 PUSH1 0xE0 DUP5 ADD MSTORE PUSH1 0x8 PUSH2 0x100 DUP5 ADD MSTORE PUSH1 0x9 PUSH2 0x120 DUP5 ADD MSTORE PUSH1 0xA PUSH2 0x140 DUP5 ADD MSTORE SWAP1 MSTORE PUSH1 0x32 SWAP1 SWAP2 MSTORE PUSH2 0xB00 SWAP1 PUSH32 0x125F38041639E32C103AB47ABA064E25405A1FB08D2D6EE74CD07EB22BA6E040 SWAP1 PUSH1 0xB PUSH2 0x1017 JUMP JUMPDEST POP PUSH1 0x40 DUP1 MLOAD PUSH2 0x160 DUP2 ADD DUP3 MSTORE PUSH1 0x0 DUP1 DUP3 MSTORE PUSH1 0x1 PUSH1 0x20 DUP1 DUP5 ADD SWAP2 SWAP1 SWAP2 MSTORE PUSH1 0x2 SWAP4 DUP4 ADD SWAP4 SWAP1 SWAP4 MSTORE PUSH1 0x3 PUSH1 0x60 DUP4 ADD MSTORE PUSH1 0x4 PUSH1 0x80 DUP4 ADD MSTORE PUSH1 0x5 PUSH1 0xA0 DUP4 ADD MSTORE PUSH1 0x6 PUSH1 0xC0 DUP4 ADD MSTORE PUSH1 0x7 PUSH1 0xE0 DUP4 ADD DUP2 SWAP1 MSTORE PUSH1 0x8 PUSH2 0x100 DUP5 ADD MSTORE PUSH1 0x9 PUSH2 0x120 DUP5 ADD MSTORE PUSH1 0xA PUSH2 0x140 DUP5 ADD MSTORE SWAP1 MSTORE PUSH1 0x32 SWAP1 SWAP2 MSTORE PUSH2 0xB96 SWAP1 PUSH32 0x46BF7EFFEC7DA617C09FB0F99690C7F788A904E44D0053FC402FA3DB73B36725 SWAP1 PUSH1 0xB PUSH2 0x1017 JUMP JUMPDEST POP DUP4 ISZERO PUSH2 0xBDD JUMPI DUP5 SLOAD PUSH1 0xFF PUSH1 0x40 SHL NOT AND DUP6 SSTORE PUSH1 0x40 MLOAD PUSH1 0x1 DUP2 MSTORE PUSH32 0xC7F505B2F371AE2175EE4913F4499E1F2633A7B5936321EED1CDAEB6115181D2 SWAP1 PUSH1 0x20 ADD PUSH1 0x40 MLOAD DUP1 SWAP2 SUB SWAP1 LOG1 JUMPDEST POP POP POP POP POP POP JUMP JUMPDEST PUSH2 0xBEE DUP3 PUSH2 0x381 JUMP JUMPDEST PUSH2 0xBF7 DUP2 PUSH2 0xC01 JUMP JUMPDEST PUSH2 0x3BF DUP4 DUP4 PUSH2 0xCB0 JUMP JUMPDEST PUSH2 0x41D DUP2 CALLER PUSH2 0xEB7 JUMP JUMPDEST PUSH1 0x0 PUSH1 0x0 DUP1 MLOAD PUSH1 0x20 PUSH2 0x11F2 DUP4 CODECOPY DUP2 MLOAD SWAP2 MSTORE PUSH2 0xC26 DUP5 DUP5 PUSH2 0x64D JUMP JUMPDEST PUSH2 0xCA6 JUMPI PUSH1 0x0 DUP5 DUP2 MSTORE PUSH1 0x20 DUP3 DUP2 MSTORE PUSH1 0x40 DUP1 DUP4 KECCAK256 PUSH1 0x1 PUSH1 0x1 PUSH1 0xA0 SHL SUB DUP8 AND DUP5 MSTORE SWAP1 SWAP2 MSTORE SWAP1 KECCAK256 DUP1 SLOAD PUSH1 0xFF NOT AND PUSH1 0x1 OR SWAP1 SSTORE PUSH2 0xC5C CALLER SWAP1 JUMP JUMPDEST PUSH1 0x1 PUSH1 0x1 PUSH1 0xA0 SHL SUB AND DUP4 PUSH1 0x1 PUSH1 0x1 PUSH1 0xA0 SHL SUB AND DUP6 PUSH32 0x2F8788117E7EFF1D82E926EC794901D17C78024A50270940304540A733656F0D PUSH1 0x40 MLOAD PUSH1 0x40 MLOAD DUP1 SWAP2 SUB SWAP1 LOG4 PUSH1 0x1 SWAP2 POP POP PUSH2 0x37B JUMP JUMPDEST PUSH1 0x0 SWAP2 POP POP PUSH2 0x37B JUMP JUMPDEST PUSH1 0x0 PUSH1 0x0 DUP1 MLOAD PUSH1 0x20 PUSH2 0x11F2 DUP4 CODECOPY DUP2 MLOAD SWAP2 MSTORE PUSH2 0xCCB DUP5 DUP5 PUSH2 0x64D JUMP JUMPDEST ISZERO PUSH2 0xCA6 JUMPI PUSH1 0x0 DUP5 DUP2 MSTORE PUSH1 0x20 DUP3 DUP2 MSTORE PUSH1 0x40 DUP1 DUP4 KECCAK256 PUSH1 0x1 PUSH1 0x1 PUSH1 0xA0 SHL SUB DUP8 AND DUP1 DUP6 MSTORE SWAP3 MSTORE DUP1 DUP4 KECCAK256 DUP1 SLOAD PUSH1 0xFF NOT AND SWAP1 SSTORE MLOAD CALLER SWAP3 DUP8 SWAP2 PUSH32 0xF6391F5C32D9C69D2A47EA670B442974B53935D1EDC7FD64EB21E047A839171B SWAP2 SWAP1 LOG4 PUSH1 0x1 SWAP2 POP POP PUSH2 0x37B JUMP JUMPDEST PUSH2 0xD34 PUSH2 0xEF4 JUMP JUMPDEST PUSH1 0x0 DUP1 MLOAD PUSH1 0x20 PUSH2 0x1212 DUP4 CODECOPY DUP2 MLOAD SWAP2 MSTORE DUP1 SLOAD PUSH1 0xFF NOT AND DUP2 SSTORE PUSH32 0x5DB9EE0A495BF2E6FF9C91A7834C1BA4FDD244A5E8AA4E537BD38AEAE4B073AA CALLER JUMPDEST PUSH1 0x40 MLOAD PUSH1 0x1 PUSH1 0x1 PUSH1 0xA0 SHL SUB SWAP1 SWAP2 AND DUP2 MSTORE PUSH1 0x20 ADD PUSH1 0x40 MLOAD DUP1 SWAP2 SUB SWAP1 LOG1 POP JUMP JUMPDEST PUSH2 0xD94 PUSH2 0xF26 JUMP JUMPDEST PUSH1 0x0 DUP1 MLOAD PUSH1 0x20 PUSH2 0x1212 DUP4 CODECOPY DUP2 MLOAD SWAP2 MSTORE DUP1 SLOAD PUSH1 0xFF NOT AND PUSH1 0x1 OR DUP2 SSTORE PUSH32 0x62E78CEA01BEE320CD4E420270B5EA74000D11B0C9F74754EBDBFC544B05A258 CALLER PUSH2 0xD6E JUMP JUMPDEST PUSH2 0xDDD PUSH2 0xF57 JUMP JUMPDEST PUSH2 0xDE5 PUSH2 0xFA0 JUMP JUMPDEST PUSH2 0xDED PUSH2 0xFB0 JUMP JUMPDEST PUSH2 0xDF5 PUSH2 0xFB8 JUMP JUMPDEST PUSH2 0xE00 PUSH1 0x0 DUP3 PUSH2 0xC0B JUMP JUMPDEST POP PUSH2 0xE19 PUSH1 0x0 DUP1 MLOAD PUSH1 0x20 PUSH2 0x11D2 DUP4 CODECOPY DUP2 MLOAD SWAP2 MSTORE DUP3 PUSH2 0xC0B JUMP JUMPDEST POP PUSH2 0xE32 PUSH1 0x0 DUP1 MLOAD PUSH1 0x20 PUSH2 0x11B2 DUP4 CODECOPY DUP2 MLOAD SWAP2 MSTORE DUP3 PUSH2 0xC0B JUMP JUMPDEST POP PUSH2 0xE5D PUSH32 0x9F2DF0FED2C77648DE5860A4CC508CD0818C85B8B8A1AB4CEEEF8D981C8956A6 DUP3 PUSH2 0xC0B JUMP JUMPDEST POP PUSH2 0xE88 PUSH32 0xA49807205CE4D355092EF5A8A18F56E8913CF4A201FBE287825B095693C21775 DUP3 PUSH2 0xC0B JUMP JUMPDEST POP PUSH2 0xEB3 PUSH32 0x35AF5B5A3FB4C88A8CB5E26E8A68A53CC8F6CAFCC4000A1DB1AE5753E25A168E DUP3 PUSH2 0xC0B JUMP JUMPDEST POP POP JUMP JUMPDEST PUSH2 0xEC1 DUP3 DUP3 PUSH2 0x64D JUMP JUMPDEST PUSH2 0xEB3 JUMPI PUSH1 0x40 MLOAD PUSH4 0xE2517D3F PUSH1 0xE0 SHL DUP2 MSTORE PUSH1 0x1 PUSH1 0x1 PUSH1 0xA0 SHL SUB DUP3 AND PUSH1 0x4 DUP3 ADD MSTORE PUSH1 0x24 DUP2 ADD DUP4 SWAP1 MSTORE PUSH1 0x44 ADD PUSH1 0x40 MLOAD DUP1 SWAP2 SUB SWAP1 REVERT JUMPDEST PUSH1 0x0 DUP1 MLOAD PUSH1 0x20 PUSH2 0x1212 DUP4 CODECOPY DUP2 MLOAD SWAP2 MSTORE SLOAD PUSH1 0xFF AND PUSH2 0xF24 JUMPI PUSH1 0x40 MLOAD PUSH4 0x8DFC202B PUSH1 0xE0 SHL DUP2 MSTORE PUSH1 0x4 ADD PUSH1 0x40 MLOAD DUP1 SWAP2 SUB SWAP1 REVERT JUMPDEST JUMP JUMPDEST PUSH1 0x0 DUP1 MLOAD PUSH1 0x20 PUSH2 0x1212 DUP4 CODECOPY DUP2 MLOAD SWAP2 MSTORE SLOAD PUSH1 0xFF AND ISZERO PUSH2 0xF24 JUMPI PUSH1 0x40 MLOAD PUSH4 0xD93C0665 PUSH1 0xE0 SHL DUP2 MSTORE PUSH1 0x4 ADD PUSH1 0x40 MLOAD DUP1 SWAP2 SUB SWAP1 REVERT JUMPDEST PUSH32 0xF0C57E16840DF040F15088DC2F81FE391C3923BEC73E23A9662EFC9C229C6A00 SLOAD PUSH1 0x1 PUSH1 0x40 SHL SWAP1 DIV PUSH1 0xFF AND PUSH2 0xF24 JUMPI PUSH1 0x40 MLOAD PUSH4 0x1AFCD79F PUSH1 0xE3 SHL DUP2 MSTORE PUSH1 0x4 ADD PUSH1 0x40 MLOAD DUP1 SWAP2 SUB SWAP1 REVERT JUMPDEST PUSH2 0xFA8 PUSH2 0xF57 JUMP JUMPDEST PUSH2 0xF24 PUSH2 0xFC8 JUMP JUMPDEST PUSH2 0xF24 PUSH2 0xF57 JUMP JUMPDEST PUSH2 0xFC0 PUSH2 0xF57 JUMP JUMPDEST PUSH2 0xF24 PUSH2 0xFE9 JUMP JUMPDEST PUSH2 0xFD0 PUSH2 0xF57 JUMP JUMPDEST PUSH1 0x0 DUP1 MLOAD PUSH1 0x20 PUSH2 0x1212 DUP4 CODECOPY DUP2 MLOAD SWAP2 MSTORE DUP1 SLOAD PUSH1 0xFF NOT AND SWAP1 SSTORE JUMP JUMPDEST PUSH2 0xFF1 PUSH2 0xF57 JUMP JUMPDEST PUSH1 0x1 PUSH32 0x9B779B17422D0DF92223018B32B4D1FA46E071723D6817E2486D003BECC55F00 SSTORE JUMP JUMPDEST DUP3 DUP1 SLOAD DUP3 DUP3 SSTORE SWAP1 PUSH1 0x0 MSTORE PUSH1 0x20 PUSH1 0x0 KECCAK256 SWAP1 DUP2 ADD SWAP3 DUP3 ISZERO PUSH2 0x1057 JUMPI SWAP2 PUSH1 0x20 MUL DUP3 ADD JUMPDEST DUP3 DUP2 GT ISZERO PUSH2 0x1057 JUMPI DUP3 MLOAD DUP3 SWAP1 PUSH1 0xFF AND SWAP1 SSTORE SWAP2 PUSH1 0x20 ADD SWAP2 SWAP1 PUSH1 0x1 ADD SWAP1 PUSH2 0x1037 JUMP JUMPDEST POP PUSH2 0x1063 SWAP3 SWAP2 POP PUSH2 0x1067 JUMP JUMPDEST POP SWAP1 JUMP JUMPDEST JUMPDEST DUP1 DUP3 GT ISZERO PUSH2 0x1063 JUMPI PUSH1 0x0 DUP2 SSTORE PUSH1 0x1 ADD PUSH2 0x1068 JUMP JUMPDEST PUSH1 0x0 PUSH1 0x20 DUP3 DUP5 SUB SLT ISZERO PUSH2 0x108E JUMPI PUSH1 0x0 DUP1 REVERT JUMPDEST DUP2 CALLDATALOAD PUSH1 0x1 PUSH1 0x1 PUSH1 0xE0 SHL SUB NOT DUP2 AND DUP2 EQ PUSH2 0x10A6 JUMPI PUSH1 0x0 DUP1 REVERT JUMPDEST SWAP4 SWAP3 POP POP POP JUMP JUMPDEST PUSH1 0x0 PUSH1 0x20 DUP3 DUP5 SUB SLT ISZERO PUSH2 0x10BF JUMPI PUSH1 0x0 DUP1 REVERT JUMPDEST POP CALLDATALOAD SWAP2 SWAP1 POP JUMP JUMPDEST DUP1 CALLDATALOAD PUSH1 0x1 PUSH1 0x1 PUSH1 0xA0 SHL SUB DUP2 AND DUP2 EQ PUSH2 0x10DD JUMPI PUSH1 0x0 DUP1 REVERT JUMPDEST SWAP2 SWAP1 POP JUMP JUMPDEST PUSH1 0x0 DUP1 PUSH1 0x40 DUP4 DUP6 SUB SLT ISZERO PUSH2 0x10F5 JUMPI PUSH1 0x0 DUP1 REVERT JUMPDEST DUP3 CALLDATALOAD SWAP2 POP PUSH2 0x1105 PUSH1 0x20 DUP5 ADD PUSH2 0x10C6 JUMP JUMPDEST SWAP1 POP SWAP3 POP SWAP3 SWAP1 POP JUMP JUMPDEST PUSH1 0x0 DUP1 PUSH1 0x40 DUP4 DUP6 SUB SLT ISZERO PUSH2 0x1121 JUMPI PUSH1 0x0 DUP1 REVERT JUMPDEST POP POP DUP1 CALLDATALOAD SWAP3 PUSH1 0x20 SWAP1 SWAP2 ADD CALLDATALOAD SWAP2 POP JUMP JUMPDEST PUSH1 0x0 PUSH1 0x20 DUP3 DUP5 SUB SLT ISZERO PUSH2 0x1142 JUMPI PUSH1 0x0 DUP1 REVERT JUMPDEST PUSH2 0x10A6 DUP3 PUSH2 0x10C6 JUMP JUMPDEST PUSH1 0x0 PUSH1 0x20 DUP3 DUP5 SUB SLT ISZERO PUSH2 0x115D JUMPI PUSH1 0x0 DUP1 REVERT JUMPDEST DUP2 MLOAD PUSH1 0x8 DUP2 LT PUSH2 0x10A6 JUMPI PUSH1 0x0 DUP1 REVERT JUMPDEST PUSH1 0x0 PUSH1 0x20 DUP3 DUP5 SUB SLT ISZERO PUSH2 0x117E JUMPI PUSH1 0x0 DUP1 REVERT JUMPDEST POP MLOAD SWAP2 SWAP1 POP JUMP JUMPDEST PUSH4 0x4E487B71 PUSH1 0xE0 SHL PUSH1 0x0 MSTORE PUSH1 0x21 PUSH1 0x4 MSTORE PUSH1 0x24 PUSH1 0x0 REVERT JUMPDEST PUSH4 0x4E487B71 PUSH1 0xE0 SHL PUSH1 0x0 MSTORE PUSH1 0x32 PUSH1 0x4 MSTORE PUSH1 0x24 PUSH1 0x0 REVERT INVALID 0xB1 SWAP6 CHAINID 0xDF CREATE 0x1E DUP6 PUSH16 0xB3F010C267A7B1C60363CF8A4664E21C 0xC8 SWAP13 0x26 0x22 CHAINID KECCAK256 0x21 0x4E PUSH6 0xD7A28E3265B3 PUSH27 0x6474929F336521B332C1681B933F6CB9F3376673440D862A02DD7B 0xC7 0xDE 0xC4 0xDC 0xEE 0xDD 0xA7 PUSH22 0xE58DD541E08A116C6C53815C0BD028192F7B626800CD 0x5E 0xD1 0x5C PUSH15 0x187E77E9AEE88184C21F4F2182AB58 0x27 0xCB EXTCODESIZE PUSH31 0x7FBEDCD63F03300A264697066735822122036EF747118CCF178A883EE05F1 ORIGIN PUSH26 0xE81F9825A21AEC381F582318D49D3F36BE64736F6C6343000814 STOP CALLER "},"gasEstimates":{"creation":{"codeDepositCost":"942200","executionCost":"981","totalCost":"943181"},"external":{"ADMIN_ROLE()":"328","DEFAULT_ADMIN_ROLE()":"306","MINTER_ROLE()":"239","OWNER_ROLE()":"infinite","PAUSER_ROLE()":"infinite","UTILITY_ROLE()":"240","canUseSkill(uint256,uint256)":"infinite","charClassToSkills(uint256,uint256)":"4710","characterNFTManager()":"2383","getRoleAdmin(bytes32)":"infinite","grantRole(bytes32,address)":"infinite","hasRole(bytes32,address)":"infinite","initialize(address)":"infinite","levelContractAddress()":"2425","pause()":"infinite","paused()":"infinite","renounceRole(bytes32,address)":"29212","revokeRole(bytes32,address)":"infinite","setCharacterNFTManager(address)":"infinite","setLevelContract(address)":"infinite","supportsInterface(bytes4)":"450","unpause()":"infinite"}},"methodIdentifiers":{"ADMIN_ROLE()":"75b238fc","DEFAULT_ADMIN_ROLE()":"a217fddf","MINTER_ROLE()":"d5391393","OWNER_ROLE()":"e58378bb","PAUSER_ROLE()":"e63ab1e9","UTILITY_ROLE()":"8f296759","canUseSkill(uint256,uint256)":"5d1b973a","charClassToSkills(uint256,uint256)":"4deb1934","characterNFTManager()":"1c603192","getRoleAdmin(bytes32)":"248a9ca3","grantRole(bytes32,address)":"2f2ff15d","hasRole(bytes32,address)":"91d14854","initialize(address)":"c4d66de8","levelContractAddress()":"d9741275","pause()":"8456cb59","paused()":"5c975abb","renounceRole(bytes32,address)":"36568abe","revokeRole(bytes32,address)":"d547741f","setCharacterNFTManager(address)":"94dd3215","setLevelContract(address)":"5adaa492","supportsInterface(bytes4)":"01ffc9a7","unpause()":"3f4ba83a"}},"storageLayout":{"storage":[{"astId":4337,"contract":"contracts/skills/SkillTree.sol:SkillTree","label":"__gap","offset":0,"slot":"0","type":"t_array(t_uint256)50_storage"},{"astId":5710,"contract":"contracts/skills/SkillTree.sol:SkillTree","label":"charClassToSkills","offset":0,"slot":"50","type":"t_mapping(t_uint256,t_array(t_uint256)dyn_storage)"},{"astId":5712,"contract":"contracts/skills/SkillTree.sol:SkillTree","label":"levelContractAddress","offset":0,"slot":"51","type":"t_address"},{"astId":5714,"contract":"contracts/skills/SkillTree.sol:SkillTree","label":"characterNFTManager","offset":0,"slot":"52","type":"t_address"}],"types":{"t_address":{"encoding":"inplace","label":"address","numberOfBytes":"20"},"t_array(t_uint256)50_storage":{"base":"t_uint256","encoding":"inplace","label":"uint256[50]","numberOfBytes":"1600"},"t_array(t_uint256)dyn_storage":{"base":"t_uint256","encoding":"dynamic_array","label":"uint256[]","numberOfBytes":"32"},"t_mapping(t_uint256,t_array(t_uint256)dyn_storage)":{"encoding":"mapping","key":"t_uint256","label":"mapping(uint256 => uint256[])","numberOfBytes":"32","value":"t_array(t_uint256)dyn_storage"},"t_uint256":{"encoding":"inplace","label":"uint256","numberOfBytes":"32"}}},"userdoc":{"errors":{"InvalidValues()":[{"notice":"ERRORS *"}],"SkillNotAllowed()":[{"notice":"ERRORS *"}]},"kind":"user","methods":{"OWNER_ROLE()":{"notice":"ROLES *"},"charClassToSkills(uint256,uint256)":{"notice":"VARIABLES *"},"initialize(address)":{"notice":"FUNCTIONS *"}},"version":1}}}}