{"contracts/erc721/CharacterNFT.sol":{"CharacterNFT":{"abi":[{"inputs":[],"stateMutability":"nonpayable","type":"constructor"},{"inputs":[],"name":"AccessControlBadConfirmation","type":"error"},{"inputs":[{"internalType":"address","name":"account","type":"address"},{"internalType":"bytes32","name":"neededRole","type":"bytes32"}],"name":"AccessControlUnauthorizedAccount","type":"error"},{"inputs":[{"internalType":"address","name":"sender","type":"address"},{"internalType":"uint256","name":"tokenId","type":"uint256"},{"internalType":"address","name":"owner","type":"address"}],"name":"ERC721IncorrectOwner","type":"error"},{"inputs":[{"internalType":"address","name":"operator","type":"address"},{"internalType":"uint256","name":"tokenId","type":"uint256"}],"name":"ERC721InsufficientApproval","type":"error"},{"inputs":[{"internalType":"address","name":"approver","type":"address"}],"name":"ERC721InvalidApprover","type":"error"},{"inputs":[{"internalType":"address","name":"operator","type":"address"}],"name":"ERC721InvalidOperator","type":"error"},{"inputs":[{"internalType":"address","name":"owner","type":"address"}],"name":"ERC721InvalidOwner","type":"error"},{"inputs":[{"internalType":"address","name":"receiver","type":"address"}],"name":"ERC721InvalidReceiver","type":"error"},{"inputs":[{"internalType":"address","name":"sender","type":"address"}],"name":"ERC721InvalidSender","type":"error"},{"inputs":[{"internalType":"uint256","name":"tokenId","type":"uint256"}],"name":"ERC721NonexistentToken","type":"error"},{"inputs":[],"name":"InvalidValues","type":"error"},{"anonymous":false,"inputs":[{"indexed":true,"internalType":"address","name":"owner","type":"address"},{"indexed":true,"internalType":"address","name":"approved","type":"address"},{"indexed":true,"internalType":"uint256","name":"tokenId","type":"uint256"}],"name":"Approval","type":"event"},{"anonymous":false,"inputs":[{"indexed":true,"internalType":"address","name":"owner","type":"address"},{"indexed":true,"internalType":"address","name":"operator","type":"address"},{"indexed":false,"internalType":"bool","name":"approved","type":"bool"}],"name":"ApprovalForAll","type":"event"},{"anonymous":false,"inputs":[{"indexed":true,"internalType":"bytes32","name":"role","type":"bytes32"},{"indexed":true,"internalType":"bytes32","name":"previousAdminRole","type":"bytes32"},{"indexed":true,"internalType":"bytes32","name":"newAdminRole","type":"bytes32"}],"name":"RoleAdminChanged","type":"event"},{"anonymous":false,"inputs":[{"indexed":true,"internalType":"bytes32","name":"role","type":"bytes32"},{"indexed":true,"internalType":"address","name":"account","type":"address"},{"indexed":true,"internalType":"address","name":"sender","type":"address"}],"name":"RoleGranted","type":"event"},{"anonymous":false,"inputs":[{"indexed":true,"internalType":"bytes32","name":"role","type":"bytes32"},{"indexed":true,"internalType":"address","name":"account","type":"address"},{"indexed":true,"internalType":"address","name":"sender","type":"address"}],"name":"RoleRevoked","type":"event"},{"anonymous":false,"inputs":[{"indexed":true,"internalType":"address","name":"from","type":"address"},{"indexed":true,"internalType":"address","name":"to","type":"address"},{"indexed":true,"internalType":"uint256","name":"tokenId","type":"uint256"}],"name":"Transfer","type":"event"},{"inputs":[],"name":"BURNER_ROLE","outputs":[{"internalType":"bytes32","name":"","type":"bytes32"}],"stateMutability":"view","type":"function"},{"inputs":[],"name":"DEFAULT_ADMIN_ROLE","outputs":[{"internalType":"bytes32","name":"","type":"bytes32"}],"stateMutability":"view","type":"function"},{"inputs":[],"name":"MINTER_ROLE","outputs":[{"internalType":"bytes32","name":"","type":"bytes32"}],"stateMutability":"view","type":"function"},{"inputs":[],"name":"OWNER_ROLE","outputs":[{"internalType":"bytes32","name":"","type":"bytes32"}],"stateMutability":"view","type":"function"},{"inputs":[{"internalType":"address","name":"to","type":"address"},{"internalType":"uint256","name":"tokenId","type":"uint256"}],"name":"approve","outputs":[],"stateMutability":"nonpayable","type":"function"},{"inputs":[{"internalType":"address","name":"owner","type":"address"}],"name":"balanceOf","outputs":[{"internalType":"uint256","name":"","type":"uint256"}],"stateMutability":"view","type":"function"},{"inputs":[{"internalType":"uint256","name":"tokenId","type":"uint256"}],"name":"burn","outputs":[],"stateMutability":"nonpayable","type":"function"},{"inputs":[],"name":"characterNFTManagerContract","outputs":[{"internalType":"address","name":"","type":"address"}],"stateMutability":"view","type":"function"},{"inputs":[{"internalType":"uint256","name":"","type":"uint256"}],"name":"classIdToCharacterData","outputs":[{"internalType":"string","name":"className","type":"string"},{"internalType":"string","name":"classImage","type":"string"},{"internalType":"string","name":"classDescription","type":"string"}],"stateMutability":"view","type":"function"},{"inputs":[{"internalType":"uint256","name":"tokenId","type":"uint256"}],"name":"getApproved","outputs":[{"internalType":"address","name":"","type":"address"}],"stateMutability":"view","type":"function"},{"inputs":[{"internalType":"uint256","name":"tokenId","type":"uint256"}],"name":"getClassDescription","outputs":[{"internalType":"string","name":"","type":"string"}],"stateMutability":"view","type":"function"},{"inputs":[{"internalType":"uint256","name":"tokenId","type":"uint256"}],"name":"getClassImage","outputs":[{"internalType":"string","name":"","type":"string"}],"stateMutability":"view","type":"function"},{"inputs":[{"internalType":"uint256","name":"tokenId","type":"uint256"}],"name":"getClassName","outputs":[{"internalType":"string","name":"","type":"string"}],"stateMutability":"view","type":"function"},{"inputs":[{"internalType":"bytes32","name":"role","type":"bytes32"}],"name":"getRoleAdmin","outputs":[{"internalType":"bytes32","name":"","type":"bytes32"}],"stateMutability":"view","type":"function"},{"inputs":[{"internalType":"bytes32","name":"role","type":"bytes32"},{"internalType":"address","name":"account","type":"address"}],"name":"grantRole","outputs":[],"stateMutability":"nonpayable","type":"function"},{"inputs":[{"internalType":"bytes32","name":"role","type":"bytes32"},{"internalType":"address","name":"account","type":"address"}],"name":"hasRole","outputs":[{"internalType":"bool","name":"","type":"bool"}],"stateMutability":"view","type":"function"},{"inputs":[{"internalType":"address","name":"owner","type":"address"},{"internalType":"address","name":"operator","type":"address"}],"name":"isApprovedForAll","outputs":[{"internalType":"bool","name":"","type":"bool"}],"stateMutability":"view","type":"function"},{"inputs":[{"internalType":"uint256","name":"tokenId","type":"uint256"},{"internalType":"address","name":"to","type":"address"}],"name":"mint","outputs":[],"stateMutability":"nonpayable","type":"function"},{"inputs":[],"name":"name","outputs":[{"internalType":"string","name":"","type":"string"}],"stateMutability":"view","type":"function"},{"inputs":[{"internalType":"uint256","name":"tokenId","type":"uint256"}],"name":"ownerOf","outputs":[{"internalType":"address","name":"","type":"address"}],"stateMutability":"view","type":"function"},{"inputs":[{"internalType":"bytes32","name":"role","type":"bytes32"},{"internalType":"address","name":"callerConfirmation","type":"address"}],"name":"renounceRole","outputs":[],"stateMutability":"nonpayable","type":"function"},{"inputs":[{"internalType":"bytes32","name":"role","type":"bytes32"},{"internalType":"address","name":"account","type":"address"}],"name":"revokeRole","outputs":[],"stateMutability":"nonpayable","type":"function"},{"inputs":[{"internalType":"address","name":"from","type":"address"},{"internalType":"address","name":"to","type":"address"},{"internalType":"uint256","name":"tokenId","type":"uint256"}],"name":"safeTransferFrom","outputs":[],"stateMutability":"nonpayable","type":"function"},{"inputs":[{"internalType":"address","name":"from","type":"address"},{"internalType":"address","name":"to","type":"address"},{"internalType":"uint256","name":"tokenId","type":"uint256"},{"internalType":"bytes","name":"data","type":"bytes"}],"name":"safeTransferFrom","outputs":[],"stateMutability":"nonpayable","type":"function"},{"inputs":[{"internalType":"address","name":"operator","type":"address"},{"internalType":"bool","name":"approved","type":"bool"}],"name":"setApprovalForAll","outputs":[],"stateMutability":"nonpayable","type":"function"},{"inputs":[{"internalType":"address","name":"characterNFTManagerAddress","type":"address"}],"name":"setCharacterNFTManager","outputs":[],"stateMutability":"nonpayable","type":"function"},{"inputs":[{"internalType":"address","name":"tokenUriContractAddress","type":"address"}],"name":"setTokenUriContract","outputs":[],"stateMutability":"nonpayable","type":"function"},{"inputs":[{"internalType":"bytes4","name":"interfaceId","type":"bytes4"}],"name":"supportsInterface","outputs":[{"internalType":"bool","name":"","type":"bool"}],"stateMutability":"view","type":"function"},{"inputs":[],"name":"symbol","outputs":[{"internalType":"string","name":"","type":"string"}],"stateMutability":"view","type":"function"},{"inputs":[{"internalType":"uint256","name":"tokenId","type":"uint256"}],"name":"tokenName","outputs":[{"internalType":"string","name":"","type":"string"}],"stateMutability":"view","type":"function"},{"inputs":[{"internalType":"uint256","name":"tokenId","type":"uint256"}],"name":"tokenURI","outputs":[{"internalType":"string","name":"","type":"string"}],"stateMutability":"view","type":"function"},{"inputs":[],"name":"tokenUriContract","outputs":[{"internalType":"address","name":"","type":"address"}],"stateMutability":"view","type":"function"},{"inputs":[{"internalType":"address","name":"from","type":"address"},{"internalType":"address","name":"to","type":"address"},{"internalType":"uint256","name":"tokenId","type":"uint256"}],"name":"transferFrom","outputs":[],"stateMutability":"nonpayable","type":"function"},{"inputs":[{"internalType":"uint256","name":"classEnumValue","type":"uint256"},{"internalType":"string","name":"classDescriptions","type":"string"}],"name":"updateClassDescriptions","outputs":[],"stateMutability":"nonpayable","type":"function"},{"inputs":[{"internalType":"uint256","name":"classEnumValue","type":"uint256"},{"internalType":"string","name":"classImages","type":"string"}],"name":"updateClassImages","outputs":[],"stateMutability":"nonpayable","type":"function"},{"inputs":[{"internalType":"uint256","name":"classEnumValue","type":"uint256"},{"internalType":"string","name":"classNames","type":"string"}],"name":"updateClassNames","outputs":[],"stateMutability":"nonpayable","type":"function"}],"devdoc":{"errors":{"AccessControlBadConfirmation()":[{"details":"The caller of a function is not the expected one. NOTE: Don't confuse with {AccessControlUnauthorizedAccount}."}],"AccessControlUnauthorizedAccount(address,bytes32)":[{"details":"The `account` is missing a role."}],"ERC721IncorrectOwner(address,uint256,address)":[{"details":"Indicates an error related to the ownership over a particular token. Used in transfers.","params":{"owner":"Address of the current owner of a token.","sender":"Address whose tokens are being transferred.","tokenId":"Identifier number of a token."}}],"ERC721InsufficientApproval(address,uint256)":[{"details":"Indicates a failure with the `operator`’s approval. Used in transfers.","params":{"operator":"Address that may be allowed to operate on tokens without being their owner.","tokenId":"Identifier number of a token."}}],"ERC721InvalidApprover(address)":[{"details":"Indicates a failure with the `approver` of a token to be approved. Used in approvals.","params":{"approver":"Address initiating an approval operation."}}],"ERC721InvalidOperator(address)":[{"details":"Indicates a failure with the `operator` to be approved. Used in approvals.","params":{"operator":"Address that may be allowed to operate on tokens without being their owner."}}],"ERC721InvalidOwner(address)":[{"details":"Indicates that an address can't be an owner. For example, `address(0)` is a forbidden owner in EIP-20. Used in balance queries.","params":{"owner":"Address of the current owner of a token."}}],"ERC721InvalidReceiver(address)":[{"details":"Indicates a failure with the token `receiver`. Used in transfers.","params":{"receiver":"Address to which tokens are being transferred."}}],"ERC721InvalidSender(address)":[{"details":"Indicates a failure with the token `sender`. Used in transfers.","params":{"sender":"Address whose tokens are being transferred."}}],"ERC721NonexistentToken(uint256)":[{"details":"Indicates a `tokenId` whose `owner` is the zero address.","params":{"tokenId":"Identifier number of a token."}}]},"events":{"Approval(address,address,uint256)":{"details":"Emitted when `owner` enables `approved` to manage the `tokenId` token."},"ApprovalForAll(address,address,bool)":{"details":"Emitted when `owner` enables or disables (`approved`) `operator` to manage all of its assets."},"RoleAdminChanged(bytes32,bytes32,bytes32)":{"details":"Emitted when `newAdminRole` is set as ``role``'s admin role, replacing `previousAdminRole` `DEFAULT_ADMIN_ROLE` is the starting admin for all roles, despite {RoleAdminChanged} not being emitted signaling this."},"RoleGranted(bytes32,address,address)":{"details":"Emitted when `account` is granted `role`. `sender` is the account that originated the contract call, an admin role bearer except when using {AccessControl-_setupRole}."},"RoleRevoked(bytes32,address,address)":{"details":"Emitted when `account` is revoked `role`. `sender` is the account that originated the contract call:   - if using `revokeRole`, it is the admin role bearer   - if using `renounceRole`, it is the role bearer (i.e. `account`)"},"Transfer(address,address,uint256)":{"details":"Emitted when `tokenId` token is transferred from `from` to `to`."}},"kind":"dev","methods":{"approve(address,uint256)":{"details":"See {IERC721-approve}."},"balanceOf(address)":{"details":"See {IERC721-balanceOf}."},"burn(uint256)":{"details":"Burn a token, only a burner can call this function"},"getApproved(uint256)":{"details":"See {IERC721-getApproved}."},"getRoleAdmin(bytes32)":{"details":"Returns the admin role that controls `role`. See {grantRole} and {revokeRole}. To change a role's admin, use {_setRoleAdmin}."},"grantRole(bytes32,address)":{"details":"Grants `role` to `account`. If `account` had not been already granted `role`, emits a {RoleGranted} event. Requirements: - the caller must have ``role``'s admin role. May emit a {RoleGranted} event."},"hasRole(bytes32,address)":{"details":"Returns `true` if `account` has been granted `role`."},"isApprovedForAll(address,address)":{"details":"See {IERC721-isApprovedForAll}."},"mint(uint256,address)":{"details":"Mint a new token, only a minter can call this function"},"name()":{"details":"See {IERC721Metadata-name}."},"ownerOf(uint256)":{"details":"See {IERC721-ownerOf}."},"renounceRole(bytes32,address)":{"details":"Revokes `role` from the calling account. Roles are often managed via {grantRole} and {revokeRole}: this function's purpose is to provide a mechanism for accounts to lose their privileges if they are compromised (such as when a trusted device is misplaced). If the calling account had been revoked `role`, emits a {RoleRevoked} event. Requirements: - the caller must be `callerConfirmation`. May emit a {RoleRevoked} event."},"revokeRole(bytes32,address)":{"details":"Revokes `role` from `account`. If `account` had been granted `role`, emits a {RoleRevoked} event. Requirements: - the caller must have ``role``'s admin role. May emit a {RoleRevoked} event."},"safeTransferFrom(address,address,uint256)":{"details":"See {IERC721-safeTransferFrom}."},"safeTransferFrom(address,address,uint256,bytes)":{"details":"See {IERC721-safeTransferFrom}."},"setApprovalForAll(address,bool)":{"details":"See {IERC721-setApprovalForAll}."},"setCharacterNFTManager(address)":{"details":"Set the address of the CharacterNFTManager contract"},"setTokenUriContract(address)":{"details":"Set the address of the CharacterNFTTokenURI contract"},"symbol()":{"details":"See {IERC721Metadata-symbol}."},"tokenName(uint256)":{"details":"Returns the name of a given token ID"},"tokenURI(uint256)":{"details":"Returns the URI for a given token ID"},"transferFrom(address,address,uint256)":{"details":"See {IERC721-transferFrom}."},"updateClassDescriptions(uint256,string)":{"details":"Update the class descriptions"},"updateClassImages(uint256,string)":{"details":"Update the class images"},"updateClassNames(uint256,string)":{"details":"Update the class names"}},"version":1},"evm":{"bytecode":{"linkReferences":{},"object":"60806040523480156200001157600080fd5b5060405180604001604052806006815260200165446961626c6f60d01b81525060405180604001604052806005815260200164110c93919560da1b8152508160009081620000609190620004e1565b5060016200006f8282620004e1565b50620000819150600090503362000389565b50620000ae7fb19546dff01e856fb3f010c267a7b1c60363cf8a4664e21cc89c26224620214e3362000389565b50620000db7f9f2df0fed2c77648de5860a4cc508cd0818c85b8b8a1ab4ceeef8d981c8956a63362000389565b50620001087f3c11d16cbaffd01df69ce1c404f6340ee057498f5f00246190ea54220576a8483362000389565b506040805180820190915260098152682120a92120a924a0a760b91b6020808301919091526001600052600790527fb39221ace053465ec3453ce2b36430bd138b997ecea25c1043da0c366812b82890620001649082620004e1565b5060408051808201909152600b81526a2722a1a927a6a0a721a2a960a91b6020808301919091526002600052600790527fb7c774451310d1be4108bc180d1b52823cb0ee0274a6c0081bcaf94f115fb96d90620001c29082620004e1565b50604080518082019091526007808252662820a620a224a760c91b6020808401919091526003600052527f3be6fd20d5acfde5b873b48692cd31f4d3c7e8ee8a813af4696af8859e5ca6c6906200021a9082620004e1565b50604080518082019091526009815268534f5243455245535360b81b6020808301919091526004600052600790527fb805995a7ec585a251200611a61d179cfd7fb105e1ab17dc415a7336783786f790620002769082620004e1565b5060408051808201909152600681526520a6a0ad27a760d11b6020808301919091526005600052600790527fbcdda56b5d08466ec462cbbe0adfa57cb0a15fcc8940ef68f702f21b787bc93590620002cf9082620004e1565b5060408051808201909152600881526720a9a9a0a9a9a4a760c11b6020808301919091526006600052600790527f55c5b153ab560fcde54a63b18c7f53d75501706907cef8767fbded79ab9997c7906200032a9082620004e1565b50604080518082019091526005815264111495525160da1b6020808301919091526007600081905290527fb7c49cceb9f85950584035457a41ebbd8cf93b9b612733ad25aa9731ac43aad690620003829082620004e1565b50620005ad565b60008281526006602090815260408083206001600160a01b038516845290915281205460ff16620004325760008381526006602090815260408083206001600160a01b03861684529091529020805460ff19166001179055620003e93390565b6001600160a01b0316826001600160a01b0316847f2f8788117e7eff1d82e926ec794901d17c78024a50270940304540a733656f0d60405160405180910390a450600162000436565b5060005b92915050565b634e487b7160e01b600052604160045260246000fd5b600181811c908216806200046757607f821691505b6020821081036200048857634e487b7160e01b600052602260045260246000fd5b50919050565b601f821115620004dc57600081815260208120601f850160051c81016020861015620004b75750805b601f850160051c820191505b81811015620004d857828155600101620004c3565b5050505b505050565b81516001600160401b03811115620004fd57620004fd6200043c565b62000515816200050e845462000452565b846200048e565b602080601f8311600181146200054d5760008415620005345750858301515b600019600386901b1c1916600185901b178555620004d8565b600085815260208120601f198616915b828110156200057e578886015182559484019460019091019084016200055d565b50858210156200059d5787850151600019600388901b60f8161c191681555b5050505050600190811b01905550565b611f5d80620005bd6000396000f3fe608060405234801561001057600080fd5b506004361061021c5760003560e01c8063877b79b811610125578063b88d4fde116100ad578063d547741f1161007c578063d547741f146104de578063e58378bb146104f1578063e725f87714610506578063e985e9c514610519578063f210ace41461052c57600080fd5b8063b88d4fde1461047e578063c87b56dd14610491578063c8cc5175146104a4578063d5391393146104b757600080fd5b806395d89b41116100f457806395d89b4114610435578063a217fddf1461043d578063a22cb46514610445578063a41f617914610458578063ae53a1a11461046b57600080fd5b8063877b79b8146103da57806391d14854146103fc57806394bf804d1461040f57806394dd32151461042257600080fd5b806331bcb9d8116101a857806342842e0e1161017757806342842e0e1461037b57806342966c681461038e57806358342c90146103a15780636352211e146103b457806370a08231146103c757600080fd5b806331bcb9d81461032f57806336568abe1461034257806336e67256146103555780633ddfbd8b1461036857600080fd5b806323b872dd116101ef57806323b872dd1461029e578063248a9ca3146102b1578063282c51f3146102e25780632d537851146103095780632f2ff15d1461031c57600080fd5b806301ffc9a71461022157806306fdde0314610249578063081812fc1461025e578063095ea7b314610289575b600080fd5b61023461022f3660046118ee565b61053f565b60405190151581526020015b60405180910390f35b610251610550565b6040516102409190611962565b61027161026c366004611975565b6105e2565b6040516001600160a01b039091168152602001610240565b61029c6102973660046119aa565b61060b565b005b61029c6102ac3660046119d4565b61061a565b6102d46102bf366004611975565b60009081526006602052604090206001015490565b604051908152602001610240565b6102d47f3c11d16cbaffd01df69ce1c404f6340ee057498f5f00246190ea54220576a84881565b610251610317366004611975565b6106aa565b61029c61032a366004611a10565b6107d4565b61025161033d366004611975565b6107f9565b61029c610350366004611a10565b61089d565b600854610271906001600160a01b031681565b610251610376366004611975565b6108d5565b61029c6103893660046119d4565b610976565b61029c61039c366004611975565b610991565b61029c6103af366004611ae9565b6109e5565b6102716103c2366004611975565b610a15565b6102d46103d5366004611b44565b610a20565b6103ed6103e8366004611975565b610a68565b60405161024093929190611b5f565b61023461040a366004611a10565b610c22565b61029c61041d366004611a10565b610c4d565b61029c610430366004611b44565b610cb3565b610251610cee565b6102d4600081565b61029c610453366004611ba2565b610cfd565b61029c610466366004611ae9565b610d08565b61029c610479366004611ae9565b610d3b565b61029c61048c366004611bde565b610d6e565b61025161049f366004611975565b610d85565b600954610271906001600160a01b031681565b6102d47f9f2df0fed2c77648de5860a4cc508cd0818c85b8b8a1ab4ceeef8d981c8956a681565b61029c6104ec366004611a10565b610e26565b6102d4600080516020611f0883398151915281565b610251610514366004611975565b610e4b565b610234610527366004611c5a565b610fa0565b61029c61053a366004611b44565b610fce565b600061054a82611009565b92915050565b60606000805461055f90611c84565b80601f016020809104026020016040519081016040528092919081815260200182805461058b90611c84565b80156105d85780601f106105ad576101008083540402835291602001916105d8565b820191906000526020600020905b8154815290600101906020018083116105bb57829003601f168201915b5050505050905090565b60006105ed8261102e565b506000828152600460205260409020546001600160a01b031661054a565b610616828233611067565b5050565b6001600160a01b03821661064957604051633250574960e11b8152600060048201526024015b60405180910390fd5b6000610656838333611074565b9050836001600160a01b0316816001600160a01b0316146106a4576040516364283d7b60e01b81526001600160a01b0380861660048301526024820184905282166044820152606401610640565b50505050565b600854604051633de9d8f160e21b8152600481018390526060916000916001600160a01b039091169063f7a763c490602401602060405180830381865afa1580156106f9573d6000803e3d6000fd5b505050506040513d601f19601f8201168201806040525081019061071d9190611cbe565b600781111561072e5761072e611cdf565b600081815260076020526040902060010180549192509061074e90611c84565b80601f016020809104026020016040519081016040528092919081815260200182805461077a90611c84565b80156107c75780601f1061079c576101008083540402835291602001916107c7565b820191906000526020600020905b8154815290600101906020018083116107aa57829003601f168201915b5050505050915050919050565b6000828152600660205260409020600101546107ef8161116d565b6106a4838361117a565b600854604051633de9d8f160e21b8152600481018390526060916000916001600160a01b039091169063f7a763c490602401602060405180830381865afa158015610848573d6000803e3d6000fd5b505050506040513d601f19601f8201168201806040525081019061086c9190611cbe565b600781111561087d5761087d611cdf565b600081815260076020526040902060020180549192509061074e90611c84565b6001600160a01b03811633146108c65760405163334bd91960e11b815260040160405180910390fd5b6108d0828261120e565b505050565b600854604051633de9d8f160e21b8152600481018390526060916000916001600160a01b039091169063f7a763c490602401602060405180830381865afa158015610924573d6000803e3d6000fd5b505050506040513d601f19601f820116820180604052508101906109489190611cbe565b600781111561095957610959611cdf565b600081815260076020526040902080549192509061074e90611c84565b6108d083838360405180602001604052806000815250610d6e565b7f3c11d16cbaffd01df69ce1c404f6340ee057498f5f00246190ea54220576a8486109bb8161116d565b816000036109dc5760405163516e361d60e11b815260040160405180910390fd5b6106168261127b565b600080516020611f088339815191526109fd8161116d565b60008381526007602052604090206106a48382611d43565b600061054a8261102e565b60006001600160a01b038216610a4c576040516322718ad960e21b815260006004820152602401610640565b506001600160a01b031660009081526003602052604090205490565b600760205260009081526040902080548190610a8390611c84565b80601f0160208091040260200160405190810160405280929190818152602001828054610aaf90611c84565b8015610afc5780601f10610ad157610100808354040283529160200191610afc565b820191906000526020600020905b815481529060010190602001808311610adf57829003601f168201915b505050505090806001018054610b1190611c84565b80601f0160208091040260200160405190810160405280929190818152602001828054610b3d90611c84565b8015610b8a5780601f10610b5f57610100808354040283529160200191610b8a565b820191906000526020600020905b815481529060010190602001808311610b6d57829003601f168201915b505050505090806002018054610b9f90611c84565b80601f0160208091040260200160405190810160405280929190818152602001828054610bcb90611c84565b8015610c185780601f10610bed57610100808354040283529160200191610c18565b820191906000526020600020905b815481529060010190602001808311610bfb57829003601f168201915b5050505050905083565b60009182526006602090815260408084206001600160a01b0393909316845291905290205460ff1690565b7f9f2df0fed2c77648de5860a4cc508cd0818c85b8b8a1ab4ceeef8d981c8956a6610c778161116d565b821580610c8b57506001600160a01b038216155b15610ca95760405163516e361d60e11b815260040160405180910390fd5b6108d082846112b6565b600080516020611f08833981519152610ccb8161116d565b50600880546001600160a01b0319166001600160a01b0392909216919091179055565b60606001805461055f90611c84565b6106163383836112d0565b600080516020611f08833981519152610d208161116d565b60008381526007602052604090206001016106a48382611d43565b600080516020611f08833981519152610d538161116d565b60008381526007602052604090206002016106a48382611d43565b610d7984848461061a565b6106a48484848461136f565b6060610d908261102e565b506009546001600160a01b0316610db557505060408051602081019091526000815290565b60095460405163c87b56dd60e01b8152600481018490526001600160a01b039091169063c87b56dd90602401600060405180830381865afa158015610dfe573d6000803e3d6000fd5b505050506040513d6000823e601f3d908101601f1916820160405261054a9190810190611e03565b600082815260066020526040902060010154610e418161116d565b6106a4838361120e565b600854604051633de9d8f160e21b8152600481018390526060916000916001600160a01b039091169063f7a763c490602401602060405180830381865afa158015610e9a573d6000803e3d6000fd5b505050506040513d601f19601f82011682018060405250810190610ebe9190611cbe565b6007811115610ecf57610ecf611cdf565b600081815260076020526040812080549293509091610eed90611c84565b80601f0160208091040260200160405190810160405280929190818152602001828054610f1990611c84565b8015610f665780601f10610f3b57610100808354040283529160200191610f66565b820191906000526020600020905b815481529060010190602001808311610f4957829003601f168201915b5050505050905080610f7785611498565b604051602001610f88929190611e7a565b60405160208183030381529060405292505050919050565b6001600160a01b03918216600090815260056020908152604080832093909416825291909152205460ff1690565b600080516020611f08833981519152610fe68161116d565b50600980546001600160a01b0319166001600160a01b0392909216919091179055565b60006001600160e01b03198216637965db0b60e01b148061054a575061054a8261152b565b6000818152600260205260408120546001600160a01b03168061054a57604051637e27328960e01b815260048101849052602401610640565b6108d0838383600161157b565b6000828152600260205260408120546001600160a01b03908116908316156110a1576110a1818486611681565b6001600160a01b038116156110df576110be60008560008061157b565b6001600160a01b038116600090815260036020526040902080546000190190555b6001600160a01b0385161561110e576001600160a01b0385166000908152600360205260409020805460010190555b60008481526002602052604080822080546001600160a01b0319166001600160a01b0389811691821790925591518793918516917fddf252ad1be2c89b69c2b068fc378daa952ba7f163c4a11628f55a4df523b3ef91a4949350505050565b61117781336116e5565b50565b60006111868383610c22565b6112065760008381526006602090815260408083206001600160a01b03861684529091529020805460ff191660011790556111be3390565b6001600160a01b0316826001600160a01b0316847f2f8788117e7eff1d82e926ec794901d17c78024a50270940304540a733656f0d60405160405180910390a450600161054a565b50600061054a565b600061121a8383610c22565b156112065760008381526006602090815260408083206001600160a01b0386168085529252808320805460ff1916905551339286917ff6391f5c32d9c69d2a47ea670b442974b53935d1edc7fd64eb21e047a839171b9190a450600161054a565b600061128a6000836000611074565b90506001600160a01b03811661061657604051637e27328960e01b815260048101839052602401610640565b61061682826040518060200160405280600081525061171e565b6001600160a01b03821661130257604051630b61174360e31b81526001600160a01b0383166004820152602401610640565b6001600160a01b03838116600081815260056020908152604080832094871680845294825291829020805460ff191686151590811790915591519182527f17307eab39ab6107e8899845ad3d59bd9653f200f220920489ca2b5937696c31910160405180910390a3505050565b6001600160a01b0383163b156106a457604051630a85bd0160e11b81526001600160a01b0384169063150b7a02906113b1903390889087908790600401611eb7565b6020604051808303816000875af19250505080156113ec575060408051601f3d908101601f191682019092526113e991810190611eea565b60015b611455573d80801561141a576040519150601f19603f3d011682016040523d82523d6000602084013e61141f565b606091505b50805160000361144d57604051633250574960e11b81526001600160a01b0385166004820152602401610640565b805181602001fd5b6001600160e01b03198116630a85bd0160e11b1461149157604051633250574960e11b81526001600160a01b0385166004820152602401610640565b5050505050565b606060006114a583611735565b600101905060008167ffffffffffffffff8111156114c5576114c5611a3c565b6040519080825280601f01601f1916602001820160405280156114ef576020820181803683370190505b5090508181016020015b600019016f181899199a1a9b1b9c1cb0b131b232b360811b600a86061a8153600a85049450846114f957509392505050565b60006001600160e01b031982166380ac58cd60e01b148061155c57506001600160e01b03198216635b5e139f60e01b145b8061054a57506301ffc9a760e01b6001600160e01b031983161461054a565b808061158f57506001600160a01b03821615155b1561165157600061159f8461102e565b90506001600160a01b038316158015906115cb5750826001600160a01b0316816001600160a01b031614155b80156115de57506115dc8184610fa0565b155b156116075760405163a9fbf51f60e01b81526001600160a01b0384166004820152602401610640565b811561164f5783856001600160a01b0316826001600160a01b03167f8c5be1e5ebec7d5bd14f71427d1e84f3dd0314c0f7b2291e5b200ac8c7c3b92560405160405180910390a45b505b5050600090815260046020526040902080546001600160a01b0319166001600160a01b0392909216919091179055565b61168c83838361180d565b6108d0576001600160a01b0383166116ba57604051637e27328960e01b815260048101829052602401610640565b60405163177e802f60e01b81526001600160a01b038316600482015260248101829052604401610640565b6116ef8282610c22565b6106165760405163e2517d3f60e01b81526001600160a01b038216600482015260248101839052604401610640565b6117288383611873565b6108d0600084848461136f565b60008072184f03e93ff9f4daa797ed6e38ed64bf6a1f0160401b83106117745772184f03e93ff9f4daa797ed6e38ed64bf6a1f0160401b830492506040015b6d04ee2d6d415b85acef810000000083106117a0576d04ee2d6d415b85acef8100000000830492506020015b662386f26fc1000083106117be57662386f26fc10000830492506010015b6305f5e10083106117d6576305f5e100830492506008015b61271083106117ea57612710830492506004015b606483106117fc576064830492506002015b600a831061054a5760010192915050565b60006001600160a01b0383161580159061186b5750826001600160a01b0316846001600160a01b0316148061184757506118478484610fa0565b8061186b57506000828152600460205260409020546001600160a01b038481169116145b949350505050565b6001600160a01b03821661189d57604051633250574960e11b815260006004820152602401610640565b60006118ab83836000611074565b90506001600160a01b038116156108d0576040516339e3563760e11b815260006004820152602401610640565b6001600160e01b03198116811461117757600080fd5b60006020828403121561190057600080fd5b813561190b816118d8565b9392505050565b60005b8381101561192d578181015183820152602001611915565b50506000910152565b6000815180845261194e816020860160208601611912565b601f01601f19169290920160200192915050565b60208152600061190b6020830184611936565b60006020828403121561198757600080fd5b5035919050565b80356001600160a01b03811681146119a557600080fd5b919050565b600080604083850312156119bd57600080fd5b6119c68361198e565b946020939093013593505050565b6000806000606084860312156119e957600080fd5b6119f28461198e565b9250611a006020850161198e565b9150604084013590509250925092565b60008060408385031215611a2357600080fd5b82359150611a336020840161198e565b90509250929050565b634e487b7160e01b600052604160045260246000fd5b604051601f8201601f1916810167ffffffffffffffff81118282101715611a7b57611a7b611a3c565b604052919050565b600067ffffffffffffffff821115611a9d57611a9d611a3c565b50601f01601f191660200190565b6000611abe611ab984611a83565b611a52565b9050828152838383011115611ad257600080fd5b828260208301376000602084830101529392505050565b60008060408385031215611afc57600080fd5b82359150602083013567ffffffffffffffff811115611b1a57600080fd5b8301601f81018513611b2b57600080fd5b611b3a85823560208401611aab565b9150509250929050565b600060208284031215611b5657600080fd5b61190b8261198e565b606081526000611b726060830186611936565b8281036020840152611b848186611936565b90508281036040840152611b988185611936565b9695505050505050565b60008060408385031215611bb557600080fd5b611bbe8361198e565b915060208301358015158114611bd357600080fd5b809150509250929050565b60008060008060808587031215611bf457600080fd5b611bfd8561198e565b9350611c0b6020860161198e565b925060408501359150606085013567ffffffffffffffff811115611c2e57600080fd5b8501601f81018713611c3f57600080fd5b611c4e87823560208401611aab565b91505092959194509250565b60008060408385031215611c6d57600080fd5b611c768361198e565b9150611a336020840161198e565b600181811c90821680611c9857607f821691505b602082108103611cb857634e487b7160e01b600052602260045260246000fd5b50919050565b600060208284031215611cd057600080fd5b81516008811061190b57600080fd5b634e487b7160e01b600052602160045260246000fd5b601f8211156108d057600081815260208120601f850160051c81016020861015611d1c5750805b601f850160051c820191505b81811015611d3b57828155600101611d28565b505050505050565b815167ffffffffffffffff811115611d5d57611d5d611a3c565b611d7181611d6b8454611c84565b84611cf5565b602080601f831160018114611da65760008415611d8e5750858301515b600019600386901b1c1916600185901b178555611d3b565b600085815260208120601f198616915b82811015611dd557888601518255948401946001909101908401611db6565b5085821015611df35787850151600019600388901b60f8161c191681555b5050505050600190811b01905550565b600060208284031215611e1557600080fd5b815167ffffffffffffffff811115611e2c57600080fd5b8201601f81018413611e3d57600080fd5b8051611e4b611ab982611a83565b818152856020838501011115611e6057600080fd5b611e71826020830160208601611912565b95945050505050565b60008351611e8c818460208801611912565b61202360f01b9083019081528351611eab816002840160208801611912565b01600201949350505050565b6001600160a01b0385811682528416602082015260408101839052608060608201819052600090611b9890830184611936565b600060208284031215611efc57600080fd5b815161190b816118d856feb19546dff01e856fb3f010c267a7b1c60363cf8a4664e21cc89c26224620214ea2646970667358221220f439fd1815b246e379e9133efbd9e98c72b92e6e54040bd515833ab3d4540bab64736f6c63430008140033","opcodes":"PUSH1 0x80 PUSH1 0x40 MSTORE CALLVALUE DUP1 ISZERO PUSH3 0x11 JUMPI PUSH1 0x0 DUP1 REVERT JUMPDEST POP PUSH1 0x40 MLOAD DUP1 PUSH1 0x40 ADD PUSH1 0x40 MSTORE DUP1 PUSH1 0x6 DUP2 MSTORE PUSH1 0x20 ADD PUSH6 0x446961626C6F PUSH1 0xD0 SHL DUP2 MSTORE POP PUSH1 0x40 MLOAD DUP1 PUSH1 0x40 ADD PUSH1 0x40 MSTORE DUP1 PUSH1 0x5 DUP2 MSTORE PUSH1 0x20 ADD PUSH5 0x110C939195 PUSH1 0xDA SHL DUP2 MSTORE POP DUP2 PUSH1 0x0 SWAP1 DUP2 PUSH3 0x60 SWAP2 SWAP1 PUSH3 0x4E1 JUMP JUMPDEST POP PUSH1 0x1 PUSH3 0x6F DUP3 DUP3 PUSH3 0x4E1 JUMP JUMPDEST POP PUSH3 0x81 SWAP2 POP PUSH1 0x0 SWAP1 POP CALLER PUSH3 0x389 JUMP JUMPDEST POP PUSH3 0xAE PUSH32 0xB19546DFF01E856FB3F010C267A7B1C60363CF8A4664E21CC89C26224620214E CALLER PUSH3 0x389 JUMP JUMPDEST POP PUSH3 0xDB PUSH32 0x9F2DF0FED2C77648DE5860A4CC508CD0818C85B8B8A1AB4CEEEF8D981C8956A6 CALLER PUSH3 0x389 JUMP JUMPDEST POP PUSH3 0x108 PUSH32 0x3C11D16CBAFFD01DF69CE1C404F6340EE057498F5F00246190EA54220576A848 CALLER PUSH3 0x389 JUMP JUMPDEST POP PUSH1 0x40 DUP1 MLOAD DUP1 DUP3 ADD SWAP1 SWAP2 MSTORE PUSH1 0x9 DUP2 MSTORE PUSH9 0x2120A92120A924A0A7 PUSH1 0xB9 SHL PUSH1 0x20 DUP1 DUP4 ADD SWAP2 SWAP1 SWAP2 MSTORE PUSH1 0x1 PUSH1 0x0 MSTORE PUSH1 0x7 SWAP1 MSTORE PUSH32 0xB39221ACE053465EC3453CE2B36430BD138B997ECEA25C1043DA0C366812B828 SWAP1 PUSH3 0x164 SWAP1 DUP3 PUSH3 0x4E1 JUMP JUMPDEST POP PUSH1 0x40 DUP1 MLOAD DUP1 DUP3 ADD SWAP1 SWAP2 MSTORE PUSH1 0xB DUP2 MSTORE PUSH11 0x2722A1A927A6A0A721A2A9 PUSH1 0xA9 SHL PUSH1 0x20 DUP1 DUP4 ADD SWAP2 SWAP1 SWAP2 MSTORE PUSH1 0x2 PUSH1 0x0 MSTORE PUSH1 0x7 SWAP1 MSTORE PUSH32 0xB7C774451310D1BE4108BC180D1B52823CB0EE0274A6C0081BCAF94F115FB96D SWAP1 PUSH3 0x1C2 SWAP1 DUP3 PUSH3 0x4E1 JUMP JUMPDEST POP PUSH1 0x40 DUP1 MLOAD DUP1 DUP3 ADD SWAP1 SWAP2 MSTORE PUSH1 0x7 DUP1 DUP3 MSTORE PUSH7 0x2820A620A224A7 PUSH1 0xC9 SHL PUSH1 0x20 DUP1 DUP5 ADD SWAP2 SWAP1 SWAP2 MSTORE PUSH1 0x3 PUSH1 0x0 MSTORE MSTORE PUSH32 0x3BE6FD20D5ACFDE5B873B48692CD31F4D3C7E8EE8A813AF4696AF8859E5CA6C6 SWAP1 PUSH3 0x21A SWAP1 DUP3 PUSH3 0x4E1 JUMP JUMPDEST POP PUSH1 0x40 DUP1 MLOAD DUP1 DUP3 ADD SWAP1 SWAP2 MSTORE PUSH1 0x9 DUP2 MSTORE PUSH9 0x534F52434552455353 PUSH1 0xB8 SHL PUSH1 0x20 DUP1 DUP4 ADD SWAP2 SWAP1 SWAP2 MSTORE PUSH1 0x4 PUSH1 0x0 MSTORE PUSH1 0x7 SWAP1 MSTORE PUSH32 0xB805995A7EC585A251200611A61D179CFD7FB105E1AB17DC415A7336783786F7 SWAP1 PUSH3 0x276 SWAP1 DUP3 PUSH3 0x4E1 JUMP JUMPDEST POP PUSH1 0x40 DUP1 MLOAD DUP1 DUP3 ADD SWAP1 SWAP2 MSTORE PUSH1 0x6 DUP2 MSTORE PUSH6 0x20A6A0AD27A7 PUSH1 0xD1 SHL PUSH1 0x20 DUP1 DUP4 ADD SWAP2 SWAP1 SWAP2 MSTORE PUSH1 0x5 PUSH1 0x0 MSTORE PUSH1 0x7 SWAP1 MSTORE PUSH32 0xBCDDA56B5D08466EC462CBBE0ADFA57CB0A15FCC8940EF68F702F21B787BC935 SWAP1 PUSH3 0x2CF SWAP1 DUP3 PUSH3 0x4E1 JUMP JUMPDEST POP PUSH1 0x40 DUP1 MLOAD DUP1 DUP3 ADD SWAP1 SWAP2 MSTORE PUSH1 0x8 DUP2 MSTORE PUSH8 0x20A9A9A0A9A9A4A7 PUSH1 0xC1 SHL PUSH1 0x20 DUP1 DUP4 ADD SWAP2 SWAP1 SWAP2 MSTORE PUSH1 0x6 PUSH1 0x0 MSTORE PUSH1 0x7 SWAP1 MSTORE PUSH32 0x55C5B153AB560FCDE54A63B18C7F53D75501706907CEF8767FBDED79AB9997C7 SWAP1 PUSH3 0x32A SWAP1 DUP3 PUSH3 0x4E1 JUMP JUMPDEST POP PUSH1 0x40 DUP1 MLOAD DUP1 DUP3 ADD SWAP1 SWAP2 MSTORE PUSH1 0x5 DUP2 MSTORE PUSH5 0x1114955251 PUSH1 0xDA SHL PUSH1 0x20 DUP1 DUP4 ADD SWAP2 SWAP1 SWAP2 MSTORE PUSH1 0x7 PUSH1 0x0 DUP2 SWAP1 MSTORE SWAP1 MSTORE PUSH32 0xB7C49CCEB9F85950584035457A41EBBD8CF93B9B612733AD25AA9731AC43AAD6 SWAP1 PUSH3 0x382 SWAP1 DUP3 PUSH3 0x4E1 JUMP JUMPDEST POP PUSH3 0x5AD JUMP JUMPDEST PUSH1 0x0 DUP3 DUP2 MSTORE PUSH1 0x6 PUSH1 0x20 SWAP1 DUP2 MSTORE PUSH1 0x40 DUP1 DUP4 KECCAK256 PUSH1 0x1 PUSH1 0x1 PUSH1 0xA0 SHL SUB DUP6 AND DUP5 MSTORE SWAP1 SWAP2 MSTORE DUP2 KECCAK256 SLOAD PUSH1 0xFF AND PUSH3 0x432 JUMPI PUSH1 0x0 DUP4 DUP2 MSTORE PUSH1 0x6 PUSH1 0x20 SWAP1 DUP2 MSTORE PUSH1 0x40 DUP1 DUP4 KECCAK256 PUSH1 0x1 PUSH1 0x1 PUSH1 0xA0 SHL SUB DUP7 AND DUP5 MSTORE SWAP1 SWAP2 MSTORE SWAP1 KECCAK256 DUP1 SLOAD PUSH1 0xFF NOT AND PUSH1 0x1 OR SWAP1 SSTORE PUSH3 0x3E9 CALLER SWAP1 JUMP JUMPDEST PUSH1 0x1 PUSH1 0x1 PUSH1 0xA0 SHL SUB AND DUP3 PUSH1 0x1 PUSH1 0x1 PUSH1 0xA0 SHL SUB AND DUP5 PUSH32 0x2F8788117E7EFF1D82E926EC794901D17C78024A50270940304540A733656F0D PUSH1 0x40 MLOAD PUSH1 0x40 MLOAD DUP1 SWAP2 SUB SWAP1 LOG4 POP PUSH1 0x1 PUSH3 0x436 JUMP JUMPDEST POP PUSH1 0x0 JUMPDEST SWAP3 SWAP2 POP POP JUMP JUMPDEST PUSH4 0x4E487B71 PUSH1 0xE0 SHL PUSH1 0x0 MSTORE PUSH1 0x41 PUSH1 0x4 MSTORE PUSH1 0x24 PUSH1 0x0 REVERT JUMPDEST PUSH1 0x1 DUP2 DUP2 SHR SWAP1 DUP3 AND DUP1 PUSH3 0x467 JUMPI PUSH1 0x7F DUP3 AND SWAP2 POP JUMPDEST PUSH1 0x20 DUP3 LT DUP2 SUB PUSH3 0x488 JUMPI PUSH4 0x4E487B71 PUSH1 0xE0 SHL PUSH1 0x0 MSTORE PUSH1 0x22 PUSH1 0x4 MSTORE PUSH1 0x24 PUSH1 0x0 REVERT JUMPDEST POP SWAP2 SWAP1 POP JUMP JUMPDEST PUSH1 0x1F DUP3 GT ISZERO PUSH3 0x4DC JUMPI PUSH1 0x0 DUP2 DUP2 MSTORE PUSH1 0x20 DUP2 KECCAK256 PUSH1 0x1F DUP6 ADD PUSH1 0x5 SHR DUP2 ADD PUSH1 0x20 DUP7 LT ISZERO PUSH3 0x4B7 JUMPI POP DUP1 JUMPDEST PUSH1 0x1F DUP6 ADD PUSH1 0x5 SHR DUP3 ADD SWAP2 POP JUMPDEST DUP2 DUP2 LT ISZERO PUSH3 0x4D8 JUMPI DUP3 DUP2 SSTORE PUSH1 0x1 ADD PUSH3 0x4C3 JUMP JUMPDEST POP POP POP JUMPDEST POP POP POP JUMP JUMPDEST DUP2 MLOAD PUSH1 0x1 PUSH1 0x1 PUSH1 0x40 SHL SUB DUP2 GT ISZERO PUSH3 0x4FD JUMPI PUSH3 0x4FD PUSH3 0x43C JUMP JUMPDEST PUSH3 0x515 DUP2 PUSH3 0x50E DUP5 SLOAD PUSH3 0x452 JUMP JUMPDEST DUP5 PUSH3 0x48E JUMP JUMPDEST PUSH1 0x20 DUP1 PUSH1 0x1F DUP4 GT PUSH1 0x1 DUP2 EQ PUSH3 0x54D JUMPI PUSH1 0x0 DUP5 ISZERO PUSH3 0x534 JUMPI POP DUP6 DUP4 ADD MLOAD JUMPDEST PUSH1 0x0 NOT PUSH1 0x3 DUP7 SWAP1 SHL SHR NOT AND PUSH1 0x1 DUP6 SWAP1 SHL OR DUP6 SSTORE PUSH3 0x4D8 JUMP JUMPDEST PUSH1 0x0 DUP6 DUP2 MSTORE PUSH1 0x20 DUP2 KECCAK256 PUSH1 0x1F NOT DUP7 AND SWAP2 JUMPDEST DUP3 DUP2 LT ISZERO PUSH3 0x57E JUMPI DUP9 DUP7 ADD MLOAD DUP3 SSTORE SWAP5 DUP5 ADD SWAP5 PUSH1 0x1 SWAP1 SWAP2 ADD SWAP1 DUP5 ADD PUSH3 0x55D JUMP JUMPDEST POP DUP6 DUP3 LT ISZERO PUSH3 0x59D JUMPI DUP8 DUP6 ADD MLOAD PUSH1 0x0 NOT PUSH1 0x3 DUP9 SWAP1 SHL PUSH1 0xF8 AND SHR NOT AND DUP2 SSTORE JUMPDEST POP POP POP POP POP PUSH1 0x1 SWAP1 DUP2 SHL ADD SWAP1 SSTORE POP JUMP JUMPDEST PUSH2 0x1F5D DUP1 PUSH3 0x5BD PUSH1 0x0 CODECOPY PUSH1 0x0 RETURN INVALID PUSH1 0x80 PUSH1 0x40 MSTORE CALLVALUE DUP1 ISZERO PUSH2 0x10 JUMPI PUSH1 0x0 DUP1 REVERT JUMPDEST POP PUSH1 0x4 CALLDATASIZE LT PUSH2 0x21C JUMPI PUSH1 0x0 CALLDATALOAD PUSH1 0xE0 SHR DUP1 PUSH4 0x877B79B8 GT PUSH2 0x125 JUMPI DUP1 PUSH4 0xB88D4FDE GT PUSH2 0xAD JUMPI DUP1 PUSH4 0xD547741F GT PUSH2 0x7C JUMPI DUP1 PUSH4 0xD547741F EQ PUSH2 0x4DE JUMPI DUP1 PUSH4 0xE58378BB EQ PUSH2 0x4F1 JUMPI DUP1 PUSH4 0xE725F877 EQ PUSH2 0x506 JUMPI DUP1 PUSH4 0xE985E9C5 EQ PUSH2 0x519 JUMPI DUP1 PUSH4 0xF210ACE4 EQ PUSH2 0x52C JUMPI PUSH1 0x0 DUP1 REVERT JUMPDEST DUP1 PUSH4 0xB88D4FDE EQ PUSH2 0x47E JUMPI DUP1 PUSH4 0xC87B56DD EQ PUSH2 0x491 JUMPI DUP1 PUSH4 0xC8CC5175 EQ PUSH2 0x4A4 JUMPI DUP1 PUSH4 0xD5391393 EQ PUSH2 0x4B7 JUMPI PUSH1 0x0 DUP1 REVERT JUMPDEST DUP1 PUSH4 0x95D89B41 GT PUSH2 0xF4 JUMPI DUP1 PUSH4 0x95D89B41 EQ PUSH2 0x435 JUMPI DUP1 PUSH4 0xA217FDDF EQ PUSH2 0x43D JUMPI DUP1 PUSH4 0xA22CB465 EQ PUSH2 0x445 JUMPI DUP1 PUSH4 0xA41F6179 EQ PUSH2 0x458 JUMPI DUP1 PUSH4 0xAE53A1A1 EQ PUSH2 0x46B JUMPI PUSH1 0x0 DUP1 REVERT JUMPDEST DUP1 PUSH4 0x877B79B8 EQ PUSH2 0x3DA JUMPI DUP1 PUSH4 0x91D14854 EQ PUSH2 0x3FC JUMPI DUP1 PUSH4 0x94BF804D EQ PUSH2 0x40F JUMPI DUP1 PUSH4 0x94DD3215 EQ PUSH2 0x422 JUMPI PUSH1 0x0 DUP1 REVERT JUMPDEST DUP1 PUSH4 0x31BCB9D8 GT PUSH2 0x1A8 JUMPI DUP1 PUSH4 0x42842E0E GT PUSH2 0x177 JUMPI DUP1 PUSH4 0x42842E0E EQ PUSH2 0x37B JUMPI DUP1 PUSH4 0x42966C68 EQ PUSH2 0x38E JUMPI DUP1 PUSH4 0x58342C90 EQ PUSH2 0x3A1 JUMPI DUP1 PUSH4 0x6352211E EQ PUSH2 0x3B4 JUMPI DUP1 PUSH4 0x70A08231 EQ PUSH2 0x3C7 JUMPI PUSH1 0x0 DUP1 REVERT JUMPDEST DUP1 PUSH4 0x31BCB9D8 EQ PUSH2 0x32F JUMPI DUP1 PUSH4 0x36568ABE EQ PUSH2 0x342 JUMPI DUP1 PUSH4 0x36E67256 EQ PUSH2 0x355 JUMPI DUP1 PUSH4 0x3DDFBD8B EQ PUSH2 0x368 JUMPI PUSH1 0x0 DUP1 REVERT JUMPDEST DUP1 PUSH4 0x23B872DD GT PUSH2 0x1EF JUMPI DUP1 PUSH4 0x23B872DD EQ PUSH2 0x29E JUMPI DUP1 PUSH4 0x248A9CA3 EQ PUSH2 0x2B1 JUMPI DUP1 PUSH4 0x282C51F3 EQ PUSH2 0x2E2 JUMPI DUP1 PUSH4 0x2D537851 EQ PUSH2 0x309 JUMPI DUP1 PUSH4 0x2F2FF15D EQ PUSH2 0x31C JUMPI PUSH1 0x0 DUP1 REVERT JUMPDEST DUP1 PUSH4 0x1FFC9A7 EQ PUSH2 0x221 JUMPI DUP1 PUSH4 0x6FDDE03 EQ PUSH2 0x249 JUMPI DUP1 PUSH4 0x81812FC EQ PUSH2 0x25E JUMPI DUP1 PUSH4 0x95EA7B3 EQ PUSH2 0x289 JUMPI JUMPDEST PUSH1 0x0 DUP1 REVERT JUMPDEST PUSH2 0x234 PUSH2 0x22F CALLDATASIZE PUSH1 0x4 PUSH2 0x18EE JUMP JUMPDEST PUSH2 0x53F JUMP JUMPDEST PUSH1 0x40 MLOAD SWAP1 ISZERO ISZERO DUP2 MSTORE PUSH1 0x20 ADD JUMPDEST PUSH1 0x40 MLOAD DUP1 SWAP2 SUB SWAP1 RETURN JUMPDEST PUSH2 0x251 PUSH2 0x550 JUMP JUMPDEST PUSH1 0x40 MLOAD PUSH2 0x240 SWAP2 SWAP1 PUSH2 0x1962 JUMP JUMPDEST PUSH2 0x271 PUSH2 0x26C CALLDATASIZE PUSH1 0x4 PUSH2 0x1975 JUMP JUMPDEST PUSH2 0x5E2 JUMP JUMPDEST PUSH1 0x40 MLOAD PUSH1 0x1 PUSH1 0x1 PUSH1 0xA0 SHL SUB SWAP1 SWAP2 AND DUP2 MSTORE PUSH1 0x20 ADD PUSH2 0x240 JUMP JUMPDEST PUSH2 0x29C PUSH2 0x297 CALLDATASIZE PUSH1 0x4 PUSH2 0x19AA JUMP JUMPDEST PUSH2 0x60B JUMP JUMPDEST STOP JUMPDEST PUSH2 0x29C PUSH2 0x2AC CALLDATASIZE PUSH1 0x4 PUSH2 0x19D4 JUMP JUMPDEST PUSH2 0x61A JUMP JUMPDEST PUSH2 0x2D4 PUSH2 0x2BF CALLDATASIZE PUSH1 0x4 PUSH2 0x1975 JUMP JUMPDEST PUSH1 0x0 SWAP1 DUP2 MSTORE PUSH1 0x6 PUSH1 0x20 MSTORE PUSH1 0x40 SWAP1 KECCAK256 PUSH1 0x1 ADD SLOAD SWAP1 JUMP JUMPDEST PUSH1 0x40 MLOAD SWAP1 DUP2 MSTORE PUSH1 0x20 ADD PUSH2 0x240 JUMP JUMPDEST PUSH2 0x2D4 PUSH32 0x3C11D16CBAFFD01DF69CE1C404F6340EE057498F5F00246190EA54220576A848 DUP2 JUMP JUMPDEST PUSH2 0x251 PUSH2 0x317 CALLDATASIZE PUSH1 0x4 PUSH2 0x1975 JUMP JUMPDEST PUSH2 0x6AA JUMP JUMPDEST PUSH2 0x29C PUSH2 0x32A CALLDATASIZE PUSH1 0x4 PUSH2 0x1A10 JUMP JUMPDEST PUSH2 0x7D4 JUMP JUMPDEST PUSH2 0x251 PUSH2 0x33D CALLDATASIZE PUSH1 0x4 PUSH2 0x1975 JUMP JUMPDEST PUSH2 0x7F9 JUMP JUMPDEST PUSH2 0x29C PUSH2 0x350 CALLDATASIZE PUSH1 0x4 PUSH2 0x1A10 JUMP JUMPDEST PUSH2 0x89D JUMP JUMPDEST PUSH1 0x8 SLOAD PUSH2 0x271 SWAP1 PUSH1 0x1 PUSH1 0x1 PUSH1 0xA0 SHL SUB AND DUP2 JUMP JUMPDEST PUSH2 0x251 PUSH2 0x376 CALLDATASIZE PUSH1 0x4 PUSH2 0x1975 JUMP JUMPDEST PUSH2 0x8D5 JUMP JUMPDEST PUSH2 0x29C PUSH2 0x389 CALLDATASIZE PUSH1 0x4 PUSH2 0x19D4 JUMP JUMPDEST PUSH2 0x976 JUMP JUMPDEST PUSH2 0x29C PUSH2 0x39C CALLDATASIZE PUSH1 0x4 PUSH2 0x1975 JUMP JUMPDEST PUSH2 0x991 JUMP JUMPDEST PUSH2 0x29C PUSH2 0x3AF CALLDATASIZE PUSH1 0x4 PUSH2 0x1AE9 JUMP JUMPDEST PUSH2 0x9E5 JUMP JUMPDEST PUSH2 0x271 PUSH2 0x3C2 CALLDATASIZE PUSH1 0x4 PUSH2 0x1975 JUMP JUMPDEST PUSH2 0xA15 JUMP JUMPDEST PUSH2 0x2D4 PUSH2 0x3D5 CALLDATASIZE PUSH1 0x4 PUSH2 0x1B44 JUMP JUMPDEST PUSH2 0xA20 JUMP JUMPDEST PUSH2 0x3ED PUSH2 0x3E8 CALLDATASIZE PUSH1 0x4 PUSH2 0x1975 JUMP JUMPDEST PUSH2 0xA68 JUMP JUMPDEST PUSH1 0x40 MLOAD PUSH2 0x240 SWAP4 SWAP3 SWAP2 SWAP1 PUSH2 0x1B5F JUMP JUMPDEST PUSH2 0x234 PUSH2 0x40A CALLDATASIZE PUSH1 0x4 PUSH2 0x1A10 JUMP JUMPDEST PUSH2 0xC22 JUMP JUMPDEST PUSH2 0x29C PUSH2 0x41D CALLDATASIZE PUSH1 0x4 PUSH2 0x1A10 JUMP JUMPDEST PUSH2 0xC4D JUMP JUMPDEST PUSH2 0x29C PUSH2 0x430 CALLDATASIZE PUSH1 0x4 PUSH2 0x1B44 JUMP JUMPDEST PUSH2 0xCB3 JUMP JUMPDEST PUSH2 0x251 PUSH2 0xCEE JUMP JUMPDEST PUSH2 0x2D4 PUSH1 0x0 DUP2 JUMP JUMPDEST PUSH2 0x29C PUSH2 0x453 CALLDATASIZE PUSH1 0x4 PUSH2 0x1BA2 JUMP JUMPDEST PUSH2 0xCFD JUMP JUMPDEST PUSH2 0x29C PUSH2 0x466 CALLDATASIZE PUSH1 0x4 PUSH2 0x1AE9 JUMP JUMPDEST PUSH2 0xD08 JUMP JUMPDEST PUSH2 0x29C PUSH2 0x479 CALLDATASIZE PUSH1 0x4 PUSH2 0x1AE9 JUMP JUMPDEST PUSH2 0xD3B JUMP JUMPDEST PUSH2 0x29C PUSH2 0x48C CALLDATASIZE PUSH1 0x4 PUSH2 0x1BDE JUMP JUMPDEST PUSH2 0xD6E JUMP JUMPDEST PUSH2 0x251 PUSH2 0x49F CALLDATASIZE PUSH1 0x4 PUSH2 0x1975 JUMP JUMPDEST PUSH2 0xD85 JUMP JUMPDEST PUSH1 0x9 SLOAD PUSH2 0x271 SWAP1 PUSH1 0x1 PUSH1 0x1 PUSH1 0xA0 SHL SUB AND DUP2 JUMP JUMPDEST PUSH2 0x2D4 PUSH32 0x9F2DF0FED2C77648DE5860A4CC508CD0818C85B8B8A1AB4CEEEF8D981C8956A6 DUP2 JUMP JUMPDEST PUSH2 0x29C PUSH2 0x4EC CALLDATASIZE PUSH1 0x4 PUSH2 0x1A10 JUMP JUMPDEST PUSH2 0xE26 JUMP JUMPDEST PUSH2 0x2D4 PUSH1 0x0 DUP1 MLOAD PUSH1 0x20 PUSH2 0x1F08 DUP4 CODECOPY DUP2 MLOAD SWAP2 MSTORE DUP2 JUMP JUMPDEST PUSH2 0x251 PUSH2 0x514 CALLDATASIZE PUSH1 0x4 PUSH2 0x1975 JUMP JUMPDEST PUSH2 0xE4B JUMP JUMPDEST PUSH2 0x234 PUSH2 0x527 CALLDATASIZE PUSH1 0x4 PUSH2 0x1C5A JUMP JUMPDEST PUSH2 0xFA0 JUMP JUMPDEST PUSH2 0x29C PUSH2 0x53A CALLDATASIZE PUSH1 0x4 PUSH2 0x1B44 JUMP JUMPDEST PUSH2 0xFCE JUMP JUMPDEST PUSH1 0x0 PUSH2 0x54A DUP3 PUSH2 0x1009 JUMP JUMPDEST SWAP3 SWAP2 POP POP JUMP JUMPDEST PUSH1 0x60 PUSH1 0x0 DUP1 SLOAD PUSH2 0x55F SWAP1 PUSH2 0x1C84 JUMP JUMPDEST DUP1 PUSH1 0x1F ADD PUSH1 0x20 DUP1 SWAP2 DIV MUL PUSH1 0x20 ADD PUSH1 0x40 MLOAD SWAP1 DUP2 ADD PUSH1 0x40 MSTORE DUP1 SWAP3 SWAP2 SWAP1 DUP2 DUP2 MSTORE PUSH1 0x20 ADD DUP3 DUP1 SLOAD PUSH2 0x58B SWAP1 PUSH2 0x1C84 JUMP JUMPDEST DUP1 ISZERO PUSH2 0x5D8 JUMPI DUP1 PUSH1 0x1F LT PUSH2 0x5AD JUMPI PUSH2 0x100 DUP1 DUP4 SLOAD DIV MUL DUP4 MSTORE SWAP2 PUSH1 0x20 ADD SWAP2 PUSH2 0x5D8 JUMP JUMPDEST DUP3 ADD SWAP2 SWAP1 PUSH1 0x0 MSTORE PUSH1 0x20 PUSH1 0x0 KECCAK256 SWAP1 JUMPDEST DUP2 SLOAD DUP2 MSTORE SWAP1 PUSH1 0x1 ADD SWAP1 PUSH1 0x20 ADD DUP1 DUP4 GT PUSH2 0x5BB JUMPI DUP3 SWAP1 SUB PUSH1 0x1F AND DUP3 ADD SWAP2 JUMPDEST POP POP POP POP POP SWAP1 POP SWAP1 JUMP JUMPDEST PUSH1 0x0 PUSH2 0x5ED DUP3 PUSH2 0x102E JUMP JUMPDEST POP PUSH1 0x0 DUP3 DUP2 MSTORE PUSH1 0x4 PUSH1 0x20 MSTORE PUSH1 0x40 SWAP1 KECCAK256 SLOAD PUSH1 0x1 PUSH1 0x1 PUSH1 0xA0 SHL SUB AND PUSH2 0x54A JUMP JUMPDEST PUSH2 0x616 DUP3 DUP3 CALLER PUSH2 0x1067 JUMP JUMPDEST POP POP JUMP JUMPDEST PUSH1 0x1 PUSH1 0x1 PUSH1 0xA0 SHL SUB DUP3 AND PUSH2 0x649 JUMPI PUSH1 0x40 MLOAD PUSH4 0x32505749 PUSH1 0xE1 SHL DUP2 MSTORE PUSH1 0x0 PUSH1 0x4 DUP3 ADD MSTORE PUSH1 0x24 ADD JUMPDEST PUSH1 0x40 MLOAD DUP1 SWAP2 SUB SWAP1 REVERT JUMPDEST PUSH1 0x0 PUSH2 0x656 DUP4 DUP4 CALLER PUSH2 0x1074 JUMP JUMPDEST SWAP1 POP DUP4 PUSH1 0x1 PUSH1 0x1 PUSH1 0xA0 SHL SUB AND DUP2 PUSH1 0x1 PUSH1 0x1 PUSH1 0xA0 SHL SUB AND EQ PUSH2 0x6A4 JUMPI PUSH1 0x40 MLOAD PUSH4 0x64283D7B PUSH1 0xE0 SHL DUP2 MSTORE PUSH1 0x1 PUSH1 0x1 PUSH1 0xA0 SHL SUB DUP1 DUP7 AND PUSH1 0x4 DUP4 ADD MSTORE PUSH1 0x24 DUP3 ADD DUP5 SWAP1 MSTORE DUP3 AND PUSH1 0x44 DUP3 ADD MSTORE PUSH1 0x64 ADD PUSH2 0x640 JUMP JUMPDEST POP POP POP POP JUMP JUMPDEST PUSH1 0x8 SLOAD PUSH1 0x40 MLOAD PUSH4 0x3DE9D8F1 PUSH1 0xE2 SHL DUP2 MSTORE PUSH1 0x4 DUP2 ADD DUP4 SWAP1 MSTORE PUSH1 0x60 SWAP2 PUSH1 0x0 SWAP2 PUSH1 0x1 PUSH1 0x1 PUSH1 0xA0 SHL SUB SWAP1 SWAP2 AND SWAP1 PUSH4 0xF7A763C4 SWAP1 PUSH1 0x24 ADD PUSH1 0x20 PUSH1 0x40 MLOAD DUP1 DUP4 SUB DUP2 DUP7 GAS STATICCALL ISZERO DUP1 ISZERO PUSH2 0x6F9 JUMPI RETURNDATASIZE PUSH1 0x0 DUP1 RETURNDATACOPY RETURNDATASIZE PUSH1 0x0 REVERT JUMPDEST POP POP POP POP PUSH1 0x40 MLOAD RETURNDATASIZE PUSH1 0x1F NOT PUSH1 0x1F DUP3 ADD AND DUP3 ADD DUP1 PUSH1 0x40 MSTORE POP DUP2 ADD SWAP1 PUSH2 0x71D SWAP2 SWAP1 PUSH2 0x1CBE JUMP JUMPDEST PUSH1 0x7 DUP2 GT ISZERO PUSH2 0x72E JUMPI PUSH2 0x72E PUSH2 0x1CDF JUMP JUMPDEST PUSH1 0x0 DUP2 DUP2 MSTORE PUSH1 0x7 PUSH1 0x20 MSTORE PUSH1 0x40 SWAP1 KECCAK256 PUSH1 0x1 ADD DUP1 SLOAD SWAP2 SWAP3 POP SWAP1 PUSH2 0x74E SWAP1 PUSH2 0x1C84 JUMP JUMPDEST DUP1 PUSH1 0x1F ADD PUSH1 0x20 DUP1 SWAP2 DIV MUL PUSH1 0x20 ADD PUSH1 0x40 MLOAD SWAP1 DUP2 ADD PUSH1 0x40 MSTORE DUP1 SWAP3 SWAP2 SWAP1 DUP2 DUP2 MSTORE PUSH1 0x20 ADD DUP3 DUP1 SLOAD PUSH2 0x77A SWAP1 PUSH2 0x1C84 JUMP JUMPDEST DUP1 ISZERO PUSH2 0x7C7 JUMPI DUP1 PUSH1 0x1F LT PUSH2 0x79C JUMPI PUSH2 0x100 DUP1 DUP4 SLOAD DIV MUL DUP4 MSTORE SWAP2 PUSH1 0x20 ADD SWAP2 PUSH2 0x7C7 JUMP JUMPDEST DUP3 ADD SWAP2 SWAP1 PUSH1 0x0 MSTORE PUSH1 0x20 PUSH1 0x0 KECCAK256 SWAP1 JUMPDEST DUP2 SLOAD DUP2 MSTORE SWAP1 PUSH1 0x1 ADD SWAP1 PUSH1 0x20 ADD DUP1 DUP4 GT PUSH2 0x7AA JUMPI DUP3 SWAP1 SUB PUSH1 0x1F AND DUP3 ADD SWAP2 JUMPDEST POP POP POP POP POP SWAP2 POP POP SWAP2 SWAP1 POP JUMP JUMPDEST PUSH1 0x0 DUP3 DUP2 MSTORE PUSH1 0x6 PUSH1 0x20 MSTORE PUSH1 0x40 SWAP1 KECCAK256 PUSH1 0x1 ADD SLOAD PUSH2 0x7EF DUP2 PUSH2 0x116D JUMP JUMPDEST PUSH2 0x6A4 DUP4 DUP4 PUSH2 0x117A JUMP JUMPDEST PUSH1 0x8 SLOAD PUSH1 0x40 MLOAD PUSH4 0x3DE9D8F1 PUSH1 0xE2 SHL DUP2 MSTORE PUSH1 0x4 DUP2 ADD DUP4 SWAP1 MSTORE PUSH1 0x60 SWAP2 PUSH1 0x0 SWAP2 PUSH1 0x1 PUSH1 0x1 PUSH1 0xA0 SHL SUB SWAP1 SWAP2 AND SWAP1 PUSH4 0xF7A763C4 SWAP1 PUSH1 0x24 ADD PUSH1 0x20 PUSH1 0x40 MLOAD DUP1 DUP4 SUB DUP2 DUP7 GAS STATICCALL ISZERO DUP1 ISZERO PUSH2 0x848 JUMPI RETURNDATASIZE PUSH1 0x0 DUP1 RETURNDATACOPY RETURNDATASIZE PUSH1 0x0 REVERT JUMPDEST POP POP POP POP PUSH1 0x40 MLOAD RETURNDATASIZE PUSH1 0x1F NOT PUSH1 0x1F DUP3 ADD AND DUP3 ADD DUP1 PUSH1 0x40 MSTORE POP DUP2 ADD SWAP1 PUSH2 0x86C SWAP2 SWAP1 PUSH2 0x1CBE JUMP JUMPDEST PUSH1 0x7 DUP2 GT ISZERO PUSH2 0x87D JUMPI PUSH2 0x87D PUSH2 0x1CDF JUMP JUMPDEST PUSH1 0x0 DUP2 DUP2 MSTORE PUSH1 0x7 PUSH1 0x20 MSTORE PUSH1 0x40 SWAP1 KECCAK256 PUSH1 0x2 ADD DUP1 SLOAD SWAP2 SWAP3 POP SWAP1 PUSH2 0x74E SWAP1 PUSH2 0x1C84 JUMP JUMPDEST PUSH1 0x1 PUSH1 0x1 PUSH1 0xA0 SHL SUB DUP2 AND CALLER EQ PUSH2 0x8C6 JUMPI PUSH1 0x40 MLOAD PUSH4 0x334BD919 PUSH1 0xE1 SHL DUP2 MSTORE PUSH1 0x4 ADD PUSH1 0x40 MLOAD DUP1 SWAP2 SUB SWAP1 REVERT JUMPDEST PUSH2 0x8D0 DUP3 DUP3 PUSH2 0x120E JUMP JUMPDEST POP POP POP JUMP JUMPDEST PUSH1 0x8 SLOAD PUSH1 0x40 MLOAD PUSH4 0x3DE9D8F1 PUSH1 0xE2 SHL DUP2 MSTORE PUSH1 0x4 DUP2 ADD DUP4 SWAP1 MSTORE PUSH1 0x60 SWAP2 PUSH1 0x0 SWAP2 PUSH1 0x1 PUSH1 0x1 PUSH1 0xA0 SHL SUB SWAP1 SWAP2 AND SWAP1 PUSH4 0xF7A763C4 SWAP1 PUSH1 0x24 ADD PUSH1 0x20 PUSH1 0x40 MLOAD DUP1 DUP4 SUB DUP2 DUP7 GAS STATICCALL ISZERO DUP1 ISZERO PUSH2 0x924 JUMPI RETURNDATASIZE PUSH1 0x0 DUP1 RETURNDATACOPY RETURNDATASIZE PUSH1 0x0 REVERT JUMPDEST POP POP POP POP PUSH1 0x40 MLOAD RETURNDATASIZE PUSH1 0x1F NOT PUSH1 0x1F DUP3 ADD AND DUP3 ADD DUP1 PUSH1 0x40 MSTORE POP DUP2 ADD SWAP1 PUSH2 0x948 SWAP2 SWAP1 PUSH2 0x1CBE JUMP JUMPDEST PUSH1 0x7 DUP2 GT ISZERO PUSH2 0x959 JUMPI PUSH2 0x959 PUSH2 0x1CDF JUMP JUMPDEST PUSH1 0x0 DUP2 DUP2 MSTORE PUSH1 0x7 PUSH1 0x20 MSTORE PUSH1 0x40 SWAP1 KECCAK256 DUP1 SLOAD SWAP2 SWAP3 POP SWAP1 PUSH2 0x74E SWAP1 PUSH2 0x1C84 JUMP JUMPDEST PUSH2 0x8D0 DUP4 DUP4 DUP4 PUSH1 0x40 MLOAD DUP1 PUSH1 0x20 ADD PUSH1 0x40 MSTORE DUP1 PUSH1 0x0 DUP2 MSTORE POP PUSH2 0xD6E JUMP JUMPDEST PUSH32 0x3C11D16CBAFFD01DF69CE1C404F6340EE057498F5F00246190EA54220576A848 PUSH2 0x9BB DUP2 PUSH2 0x116D JUMP JUMPDEST DUP2 PUSH1 0x0 SUB PUSH2 0x9DC JUMPI PUSH1 0x40 MLOAD PUSH4 0x516E361D PUSH1 0xE1 SHL DUP2 MSTORE PUSH1 0x4 ADD PUSH1 0x40 MLOAD DUP1 SWAP2 SUB SWAP1 REVERT JUMPDEST PUSH2 0x616 DUP3 PUSH2 0x127B JUMP JUMPDEST PUSH1 0x0 DUP1 MLOAD PUSH1 0x20 PUSH2 0x1F08 DUP4 CODECOPY DUP2 MLOAD SWAP2 MSTORE PUSH2 0x9FD DUP2 PUSH2 0x116D JUMP JUMPDEST PUSH1 0x0 DUP4 DUP2 MSTORE PUSH1 0x7 PUSH1 0x20 MSTORE PUSH1 0x40 SWAP1 KECCAK256 PUSH2 0x6A4 DUP4 DUP3 PUSH2 0x1D43 JUMP JUMPDEST PUSH1 0x0 PUSH2 0x54A DUP3 PUSH2 0x102E JUMP JUMPDEST PUSH1 0x0 PUSH1 0x1 PUSH1 0x1 PUSH1 0xA0 SHL SUB DUP3 AND PUSH2 0xA4C JUMPI PUSH1 0x40 MLOAD PUSH4 0x22718AD9 PUSH1 0xE2 SHL DUP2 MSTORE PUSH1 0x0 PUSH1 0x4 DUP3 ADD MSTORE PUSH1 0x24 ADD PUSH2 0x640 JUMP JUMPDEST POP PUSH1 0x1 PUSH1 0x1 PUSH1 0xA0 SHL SUB AND PUSH1 0x0 SWAP1 DUP2 MSTORE PUSH1 0x3 PUSH1 0x20 MSTORE PUSH1 0x40 SWAP1 KECCAK256 SLOAD SWAP1 JUMP JUMPDEST PUSH1 0x7 PUSH1 0x20 MSTORE PUSH1 0x0 SWAP1 DUP2 MSTORE PUSH1 0x40 SWAP1 KECCAK256 DUP1 SLOAD DUP2 SWAP1 PUSH2 0xA83 SWAP1 PUSH2 0x1C84 JUMP JUMPDEST DUP1 PUSH1 0x1F ADD PUSH1 0x20 DUP1 SWAP2 DIV MUL PUSH1 0x20 ADD PUSH1 0x40 MLOAD SWAP1 DUP2 ADD PUSH1 0x40 MSTORE DUP1 SWAP3 SWAP2 SWAP1 DUP2 DUP2 MSTORE PUSH1 0x20 ADD DUP3 DUP1 SLOAD PUSH2 0xAAF SWAP1 PUSH2 0x1C84 JUMP JUMPDEST DUP1 ISZERO PUSH2 0xAFC JUMPI DUP1 PUSH1 0x1F LT PUSH2 0xAD1 JUMPI PUSH2 0x100 DUP1 DUP4 SLOAD DIV MUL DUP4 MSTORE SWAP2 PUSH1 0x20 ADD SWAP2 PUSH2 0xAFC JUMP JUMPDEST DUP3 ADD SWAP2 SWAP1 PUSH1 0x0 MSTORE PUSH1 0x20 PUSH1 0x0 KECCAK256 SWAP1 JUMPDEST DUP2 SLOAD DUP2 MSTORE SWAP1 PUSH1 0x1 ADD SWAP1 PUSH1 0x20 ADD DUP1 DUP4 GT PUSH2 0xADF JUMPI DUP3 SWAP1 SUB PUSH1 0x1F AND DUP3 ADD SWAP2 JUMPDEST POP POP POP POP POP SWAP1 DUP1 PUSH1 0x1 ADD DUP1 SLOAD PUSH2 0xB11 SWAP1 PUSH2 0x1C84 JUMP JUMPDEST DUP1 PUSH1 0x1F ADD PUSH1 0x20 DUP1 SWAP2 DIV MUL PUSH1 0x20 ADD PUSH1 0x40 MLOAD SWAP1 DUP2 ADD PUSH1 0x40 MSTORE DUP1 SWAP3 SWAP2 SWAP1 DUP2 DUP2 MSTORE PUSH1 0x20 ADD DUP3 DUP1 SLOAD PUSH2 0xB3D SWAP1 PUSH2 0x1C84 JUMP JUMPDEST DUP1 ISZERO PUSH2 0xB8A JUMPI DUP1 PUSH1 0x1F LT PUSH2 0xB5F JUMPI PUSH2 0x100 DUP1 DUP4 SLOAD DIV MUL DUP4 MSTORE SWAP2 PUSH1 0x20 ADD SWAP2 PUSH2 0xB8A JUMP JUMPDEST DUP3 ADD SWAP2 SWAP1 PUSH1 0x0 MSTORE PUSH1 0x20 PUSH1 0x0 KECCAK256 SWAP1 JUMPDEST DUP2 SLOAD DUP2 MSTORE SWAP1 PUSH1 0x1 ADD SWAP1 PUSH1 0x20 ADD DUP1 DUP4 GT PUSH2 0xB6D JUMPI DUP3 SWAP1 SUB PUSH1 0x1F AND DUP3 ADD SWAP2 JUMPDEST POP POP POP POP POP SWAP1 DUP1 PUSH1 0x2 ADD DUP1 SLOAD PUSH2 0xB9F SWAP1 PUSH2 0x1C84 JUMP JUMPDEST DUP1 PUSH1 0x1F ADD PUSH1 0x20 DUP1 SWAP2 DIV MUL PUSH1 0x20 ADD PUSH1 0x40 MLOAD SWAP1 DUP2 ADD PUSH1 0x40 MSTORE DUP1 SWAP3 SWAP2 SWAP1 DUP2 DUP2 MSTORE PUSH1 0x20 ADD DUP3 DUP1 SLOAD PUSH2 0xBCB SWAP1 PUSH2 0x1C84 JUMP JUMPDEST DUP1 ISZERO PUSH2 0xC18 JUMPI DUP1 PUSH1 0x1F LT PUSH2 0xBED JUMPI PUSH2 0x100 DUP1 DUP4 SLOAD DIV MUL DUP4 MSTORE SWAP2 PUSH1 0x20 ADD SWAP2 PUSH2 0xC18 JUMP JUMPDEST DUP3 ADD SWAP2 SWAP1 PUSH1 0x0 MSTORE PUSH1 0x20 PUSH1 0x0 KECCAK256 SWAP1 JUMPDEST DUP2 SLOAD DUP2 MSTORE SWAP1 PUSH1 0x1 ADD SWAP1 PUSH1 0x20 ADD DUP1 DUP4 GT PUSH2 0xBFB JUMPI DUP3 SWAP1 SUB PUSH1 0x1F AND DUP3 ADD SWAP2 JUMPDEST POP POP POP POP POP SWAP1 POP DUP4 JUMP JUMPDEST PUSH1 0x0 SWAP2 DUP3 MSTORE PUSH1 0x6 PUSH1 0x20 SWAP1 DUP2 MSTORE PUSH1 0x40 DUP1 DUP5 KECCAK256 PUSH1 0x1 PUSH1 0x1 PUSH1 0xA0 SHL SUB SWAP4 SWAP1 SWAP4 AND DUP5 MSTORE SWAP2 SWAP1 MSTORE SWAP1 KECCAK256 SLOAD PUSH1 0xFF AND SWAP1 JUMP JUMPDEST PUSH32 0x9F2DF0FED2C77648DE5860A4CC508CD0818C85B8B8A1AB4CEEEF8D981C8956A6 PUSH2 0xC77 DUP2 PUSH2 0x116D JUMP JUMPDEST DUP3 ISZERO DUP1 PUSH2 0xC8B JUMPI POP PUSH1 0x1 PUSH1 0x1 PUSH1 0xA0 SHL SUB DUP3 AND ISZERO JUMPDEST ISZERO PUSH2 0xCA9 JUMPI PUSH1 0x40 MLOAD PUSH4 0x516E361D PUSH1 0xE1 SHL DUP2 MSTORE PUSH1 0x4 ADD PUSH1 0x40 MLOAD DUP1 SWAP2 SUB SWAP1 REVERT JUMPDEST PUSH2 0x8D0 DUP3 DUP5 PUSH2 0x12B6 JUMP JUMPDEST PUSH1 0x0 DUP1 MLOAD PUSH1 0x20 PUSH2 0x1F08 DUP4 CODECOPY DUP2 MLOAD SWAP2 MSTORE PUSH2 0xCCB DUP2 PUSH2 0x116D JUMP JUMPDEST POP PUSH1 0x8 DUP1 SLOAD PUSH1 0x1 PUSH1 0x1 PUSH1 0xA0 SHL SUB NOT AND PUSH1 0x1 PUSH1 0x1 PUSH1 0xA0 SHL SUB SWAP3 SWAP1 SWAP3 AND SWAP2 SWAP1 SWAP2 OR SWAP1 SSTORE JUMP JUMPDEST PUSH1 0x60 PUSH1 0x1 DUP1 SLOAD PUSH2 0x55F SWAP1 PUSH2 0x1C84 JUMP JUMPDEST PUSH2 0x616 CALLER DUP4 DUP4 PUSH2 0x12D0 JUMP JUMPDEST PUSH1 0x0 DUP1 MLOAD PUSH1 0x20 PUSH2 0x1F08 DUP4 CODECOPY DUP2 MLOAD SWAP2 MSTORE PUSH2 0xD20 DUP2 PUSH2 0x116D JUMP JUMPDEST PUSH1 0x0 DUP4 DUP2 MSTORE PUSH1 0x7 PUSH1 0x20 MSTORE PUSH1 0x40 SWAP1 KECCAK256 PUSH1 0x1 ADD PUSH2 0x6A4 DUP4 DUP3 PUSH2 0x1D43 JUMP JUMPDEST PUSH1 0x0 DUP1 MLOAD PUSH1 0x20 PUSH2 0x1F08 DUP4 CODECOPY DUP2 MLOAD SWAP2 MSTORE PUSH2 0xD53 DUP2 PUSH2 0x116D JUMP JUMPDEST PUSH1 0x0 DUP4 DUP2 MSTORE PUSH1 0x7 PUSH1 0x20 MSTORE PUSH1 0x40 SWAP1 KECCAK256 PUSH1 0x2 ADD PUSH2 0x6A4 DUP4 DUP3 PUSH2 0x1D43 JUMP JUMPDEST PUSH2 0xD79 DUP5 DUP5 DUP5 PUSH2 0x61A JUMP JUMPDEST PUSH2 0x6A4 DUP5 DUP5 DUP5 DUP5 PUSH2 0x136F JUMP JUMPDEST PUSH1 0x60 PUSH2 0xD90 DUP3 PUSH2 0x102E JUMP JUMPDEST POP PUSH1 0x9 SLOAD PUSH1 0x1 PUSH1 0x1 PUSH1 0xA0 SHL SUB AND PUSH2 0xDB5 JUMPI POP POP PUSH1 0x40 DUP1 MLOAD PUSH1 0x20 DUP2 ADD SWAP1 SWAP2 MSTORE PUSH1 0x0 DUP2 MSTORE SWAP1 JUMP JUMPDEST PUSH1 0x9 SLOAD PUSH1 0x40 MLOAD PUSH4 0xC87B56DD PUSH1 0xE0 SHL DUP2 MSTORE PUSH1 0x4 DUP2 ADD DUP5 SWAP1 MSTORE PUSH1 0x1 PUSH1 0x1 PUSH1 0xA0 SHL SUB SWAP1 SWAP2 AND SWAP1 PUSH4 0xC87B56DD SWAP1 PUSH1 0x24 ADD PUSH1 0x0 PUSH1 0x40 MLOAD DUP1 DUP4 SUB DUP2 DUP7 GAS STATICCALL ISZERO DUP1 ISZERO PUSH2 0xDFE JUMPI RETURNDATASIZE PUSH1 0x0 DUP1 RETURNDATACOPY RETURNDATASIZE PUSH1 0x0 REVERT JUMPDEST POP POP POP POP PUSH1 0x40 MLOAD RETURNDATASIZE PUSH1 0x0 DUP3 RETURNDATACOPY PUSH1 0x1F RETURNDATASIZE SWAP1 DUP2 ADD PUSH1 0x1F NOT AND DUP3 ADD PUSH1 0x40 MSTORE PUSH2 0x54A SWAP2 SWAP1 DUP2 ADD SWAP1 PUSH2 0x1E03 JUMP JUMPDEST PUSH1 0x0 DUP3 DUP2 MSTORE PUSH1 0x6 PUSH1 0x20 MSTORE PUSH1 0x40 SWAP1 KECCAK256 PUSH1 0x1 ADD SLOAD PUSH2 0xE41 DUP2 PUSH2 0x116D JUMP JUMPDEST PUSH2 0x6A4 DUP4 DUP4 PUSH2 0x120E JUMP JUMPDEST PUSH1 0x8 SLOAD PUSH1 0x40 MLOAD PUSH4 0x3DE9D8F1 PUSH1 0xE2 SHL DUP2 MSTORE PUSH1 0x4 DUP2 ADD DUP4 SWAP1 MSTORE PUSH1 0x60 SWAP2 PUSH1 0x0 SWAP2 PUSH1 0x1 PUSH1 0x1 PUSH1 0xA0 SHL SUB SWAP1 SWAP2 AND SWAP1 PUSH4 0xF7A763C4 SWAP1 PUSH1 0x24 ADD PUSH1 0x20 PUSH1 0x40 MLOAD DUP1 DUP4 SUB DUP2 DUP7 GAS STATICCALL ISZERO DUP1 ISZERO PUSH2 0xE9A JUMPI RETURNDATASIZE PUSH1 0x0 DUP1 RETURNDATACOPY RETURNDATASIZE PUSH1 0x0 REVERT JUMPDEST POP POP POP POP PUSH1 0x40 MLOAD RETURNDATASIZE PUSH1 0x1F NOT PUSH1 0x1F DUP3 ADD AND DUP3 ADD DUP1 PUSH1 0x40 MSTORE POP DUP2 ADD SWAP1 PUSH2 0xEBE SWAP2 SWAP1 PUSH2 0x1CBE JUMP JUMPDEST PUSH1 0x7 DUP2 GT ISZERO PUSH2 0xECF JUMPI PUSH2 0xECF PUSH2 0x1CDF JUMP JUMPDEST PUSH1 0x0 DUP2 DUP2 MSTORE PUSH1 0x7 PUSH1 0x20 MSTORE PUSH1 0x40 DUP2 KECCAK256 DUP1 SLOAD SWAP3 SWAP4 POP SWAP1 SWAP2 PUSH2 0xEED SWAP1 PUSH2 0x1C84 JUMP JUMPDEST DUP1 PUSH1 0x1F ADD PUSH1 0x20 DUP1 SWAP2 DIV MUL PUSH1 0x20 ADD PUSH1 0x40 MLOAD SWAP1 DUP2 ADD PUSH1 0x40 MSTORE DUP1 SWAP3 SWAP2 SWAP1 DUP2 DUP2 MSTORE PUSH1 0x20 ADD DUP3 DUP1 SLOAD PUSH2 0xF19 SWAP1 PUSH2 0x1C84 JUMP JUMPDEST DUP1 ISZERO PUSH2 0xF66 JUMPI DUP1 PUSH1 0x1F LT PUSH2 0xF3B JUMPI PUSH2 0x100 DUP1 DUP4 SLOAD DIV MUL DUP4 MSTORE SWAP2 PUSH1 0x20 ADD SWAP2 PUSH2 0xF66 JUMP JUMPDEST DUP3 ADD SWAP2 SWAP1 PUSH1 0x0 MSTORE PUSH1 0x20 PUSH1 0x0 KECCAK256 SWAP1 JUMPDEST DUP2 SLOAD DUP2 MSTORE SWAP1 PUSH1 0x1 ADD SWAP1 PUSH1 0x20 ADD DUP1 DUP4 GT PUSH2 0xF49 JUMPI DUP3 SWAP1 SUB PUSH1 0x1F AND DUP3 ADD SWAP2 JUMPDEST POP POP POP POP POP SWAP1 POP DUP1 PUSH2 0xF77 DUP6 PUSH2 0x1498 JUMP JUMPDEST PUSH1 0x40 MLOAD PUSH1 0x20 ADD PUSH2 0xF88 SWAP3 SWAP2 SWAP1 PUSH2 0x1E7A JUMP JUMPDEST PUSH1 0x40 MLOAD PUSH1 0x20 DUP2 DUP4 SUB SUB DUP2 MSTORE SWAP1 PUSH1 0x40 MSTORE SWAP3 POP POP POP SWAP2 SWAP1 POP JUMP JUMPDEST PUSH1 0x1 PUSH1 0x1 PUSH1 0xA0 SHL SUB SWAP2 DUP3 AND PUSH1 0x0 SWAP1 DUP2 MSTORE PUSH1 0x5 PUSH1 0x20 SWAP1 DUP2 MSTORE PUSH1 0x40 DUP1 DUP4 KECCAK256 SWAP4 SWAP1 SWAP5 AND DUP3 MSTORE SWAP2 SWAP1 SWAP2 MSTORE KECCAK256 SLOAD PUSH1 0xFF AND SWAP1 JUMP JUMPDEST PUSH1 0x0 DUP1 MLOAD PUSH1 0x20 PUSH2 0x1F08 DUP4 CODECOPY DUP2 MLOAD SWAP2 MSTORE PUSH2 0xFE6 DUP2 PUSH2 0x116D JUMP JUMPDEST POP PUSH1 0x9 DUP1 SLOAD PUSH1 0x1 PUSH1 0x1 PUSH1 0xA0 SHL SUB NOT AND PUSH1 0x1 PUSH1 0x1 PUSH1 0xA0 SHL SUB SWAP3 SWAP1 SWAP3 AND SWAP2 SWAP1 SWAP2 OR SWAP1 SSTORE JUMP JUMPDEST PUSH1 0x0 PUSH1 0x1 PUSH1 0x1 PUSH1 0xE0 SHL SUB NOT DUP3 AND PUSH4 0x7965DB0B PUSH1 0xE0 SHL EQ DUP1 PUSH2 0x54A JUMPI POP PUSH2 0x54A DUP3 PUSH2 0x152B JUMP JUMPDEST PUSH1 0x0 DUP2 DUP2 MSTORE PUSH1 0x2 PUSH1 0x20 MSTORE PUSH1 0x40 DUP2 KECCAK256 SLOAD PUSH1 0x1 PUSH1 0x1 PUSH1 0xA0 SHL SUB AND DUP1 PUSH2 0x54A JUMPI PUSH1 0x40 MLOAD PUSH4 0x7E273289 PUSH1 0xE0 SHL DUP2 MSTORE PUSH1 0x4 DUP2 ADD DUP5 SWAP1 MSTORE PUSH1 0x24 ADD PUSH2 0x640 JUMP JUMPDEST PUSH2 0x8D0 DUP4 DUP4 DUP4 PUSH1 0x1 PUSH2 0x157B JUMP JUMPDEST PUSH1 0x0 DUP3 DUP2 MSTORE PUSH1 0x2 PUSH1 0x20 MSTORE PUSH1 0x40 DUP2 KECCAK256 SLOAD PUSH1 0x1 PUSH1 0x1 PUSH1 0xA0 SHL SUB SWAP1 DUP2 AND SWAP1 DUP4 AND ISZERO PUSH2 0x10A1 JUMPI PUSH2 0x10A1 DUP2 DUP5 DUP7 PUSH2 0x1681 JUMP JUMPDEST PUSH1 0x1 PUSH1 0x1 PUSH1 0xA0 SHL SUB DUP2 AND ISZERO PUSH2 0x10DF JUMPI PUSH2 0x10BE PUSH1 0x0 DUP6 PUSH1 0x0 DUP1 PUSH2 0x157B JUMP JUMPDEST PUSH1 0x1 PUSH1 0x1 PUSH1 0xA0 SHL SUB DUP2 AND PUSH1 0x0 SWAP1 DUP2 MSTORE PUSH1 0x3 PUSH1 0x20 MSTORE PUSH1 0x40 SWAP1 KECCAK256 DUP1 SLOAD PUSH1 0x0 NOT ADD SWAP1 SSTORE JUMPDEST PUSH1 0x1 PUSH1 0x1 PUSH1 0xA0 SHL SUB DUP6 AND ISZERO PUSH2 0x110E JUMPI PUSH1 0x1 PUSH1 0x1 PUSH1 0xA0 SHL SUB DUP6 AND PUSH1 0x0 SWAP1 DUP2 MSTORE PUSH1 0x3 PUSH1 0x20 MSTORE PUSH1 0x40 SWAP1 KECCAK256 DUP1 SLOAD PUSH1 0x1 ADD SWAP1 SSTORE JUMPDEST PUSH1 0x0 DUP5 DUP2 MSTORE PUSH1 0x2 PUSH1 0x20 MSTORE PUSH1 0x40 DUP1 DUP3 KECCAK256 DUP1 SLOAD PUSH1 0x1 PUSH1 0x1 PUSH1 0xA0 SHL SUB NOT AND PUSH1 0x1 PUSH1 0x1 PUSH1 0xA0 SHL SUB DUP10 DUP2 AND SWAP2 DUP3 OR SWAP1 SWAP3 SSTORE SWAP2 MLOAD DUP8 SWAP4 SWAP2 DUP6 AND SWAP2 PUSH32 0xDDF252AD1BE2C89B69C2B068FC378DAA952BA7F163C4A11628F55A4DF523B3EF SWAP2 LOG4 SWAP5 SWAP4 POP POP POP POP JUMP JUMPDEST PUSH2 0x1177 DUP2 CALLER PUSH2 0x16E5 JUMP JUMPDEST POP JUMP JUMPDEST PUSH1 0x0 PUSH2 0x1186 DUP4 DUP4 PUSH2 0xC22 JUMP JUMPDEST PUSH2 0x1206 JUMPI PUSH1 0x0 DUP4 DUP2 MSTORE PUSH1 0x6 PUSH1 0x20 SWAP1 DUP2 MSTORE PUSH1 0x40 DUP1 DUP4 KECCAK256 PUSH1 0x1 PUSH1 0x1 PUSH1 0xA0 SHL SUB DUP7 AND DUP5 MSTORE SWAP1 SWAP2 MSTORE SWAP1 KECCAK256 DUP1 SLOAD PUSH1 0xFF NOT AND PUSH1 0x1 OR SWAP1 SSTORE PUSH2 0x11BE CALLER SWAP1 JUMP JUMPDEST PUSH1 0x1 PUSH1 0x1 PUSH1 0xA0 SHL SUB AND DUP3 PUSH1 0x1 PUSH1 0x1 PUSH1 0xA0 SHL SUB AND DUP5 PUSH32 0x2F8788117E7EFF1D82E926EC794901D17C78024A50270940304540A733656F0D PUSH1 0x40 MLOAD PUSH1 0x40 MLOAD DUP1 SWAP2 SUB SWAP1 LOG4 POP PUSH1 0x1 PUSH2 0x54A JUMP JUMPDEST POP PUSH1 0x0 PUSH2 0x54A JUMP JUMPDEST PUSH1 0x0 PUSH2 0x121A DUP4 DUP4 PUSH2 0xC22 JUMP JUMPDEST ISZERO PUSH2 0x1206 JUMPI PUSH1 0x0 DUP4 DUP2 MSTORE PUSH1 0x6 PUSH1 0x20 SWAP1 DUP2 MSTORE PUSH1 0x40 DUP1 DUP4 KECCAK256 PUSH1 0x1 PUSH1 0x1 PUSH1 0xA0 SHL SUB DUP7 AND DUP1 DUP6 MSTORE SWAP3 MSTORE DUP1 DUP4 KECCAK256 DUP1 SLOAD PUSH1 0xFF NOT AND SWAP1 SSTORE MLOAD CALLER SWAP3 DUP7 SWAP2 PUSH32 0xF6391F5C32D9C69D2A47EA670B442974B53935D1EDC7FD64EB21E047A839171B SWAP2 SWAP1 LOG4 POP PUSH1 0x1 PUSH2 0x54A JUMP JUMPDEST PUSH1 0x0 PUSH2 0x128A PUSH1 0x0 DUP4 PUSH1 0x0 PUSH2 0x1074 JUMP JUMPDEST SWAP1 POP PUSH1 0x1 PUSH1 0x1 PUSH1 0xA0 SHL SUB DUP2 AND PUSH2 0x616 JUMPI PUSH1 0x40 MLOAD PUSH4 0x7E273289 PUSH1 0xE0 SHL DUP2 MSTORE PUSH1 0x4 DUP2 ADD DUP4 SWAP1 MSTORE PUSH1 0x24 ADD PUSH2 0x640 JUMP JUMPDEST PUSH2 0x616 DUP3 DUP3 PUSH1 0x40 MLOAD DUP1 PUSH1 0x20 ADD PUSH1 0x40 MSTORE DUP1 PUSH1 0x0 DUP2 MSTORE POP PUSH2 0x171E JUMP JUMPDEST PUSH1 0x1 PUSH1 0x1 PUSH1 0xA0 SHL SUB DUP3 AND PUSH2 0x1302 JUMPI PUSH1 0x40 MLOAD PUSH4 0xB611743 PUSH1 0xE3 SHL DUP2 MSTORE PUSH1 0x1 PUSH1 0x1 PUSH1 0xA0 SHL SUB DUP4 AND PUSH1 0x4 DUP3 ADD MSTORE PUSH1 0x24 ADD PUSH2 0x640 JUMP JUMPDEST PUSH1 0x1 PUSH1 0x1 PUSH1 0xA0 SHL SUB DUP4 DUP2 AND PUSH1 0x0 DUP2 DUP2 MSTORE PUSH1 0x5 PUSH1 0x20 SWAP1 DUP2 MSTORE PUSH1 0x40 DUP1 DUP4 KECCAK256 SWAP5 DUP8 AND DUP1 DUP5 MSTORE SWAP5 DUP3 MSTORE SWAP2 DUP3 SWAP1 KECCAK256 DUP1 SLOAD PUSH1 0xFF NOT AND DUP7 ISZERO ISZERO SWAP1 DUP2 OR SWAP1 SWAP2 SSTORE SWAP2 MLOAD SWAP2 DUP3 MSTORE PUSH32 0x17307EAB39AB6107E8899845AD3D59BD9653F200F220920489CA2B5937696C31 SWAP2 ADD PUSH1 0x40 MLOAD DUP1 SWAP2 SUB SWAP1 LOG3 POP POP POP JUMP JUMPDEST PUSH1 0x1 PUSH1 0x1 PUSH1 0xA0 SHL SUB DUP4 AND EXTCODESIZE ISZERO PUSH2 0x6A4 JUMPI PUSH1 0x40 MLOAD PUSH4 0xA85BD01 PUSH1 0xE1 SHL DUP2 MSTORE PUSH1 0x1 PUSH1 0x1 PUSH1 0xA0 SHL SUB DUP5 AND SWAP1 PUSH4 0x150B7A02 SWAP1 PUSH2 0x13B1 SWAP1 CALLER SWAP1 DUP9 SWAP1 DUP8 SWAP1 DUP8 SWAP1 PUSH1 0x4 ADD PUSH2 0x1EB7 JUMP JUMPDEST PUSH1 0x20 PUSH1 0x40 MLOAD DUP1 DUP4 SUB DUP2 PUSH1 0x0 DUP8 GAS CALL SWAP3 POP POP POP DUP1 ISZERO PUSH2 0x13EC JUMPI POP PUSH1 0x40 DUP1 MLOAD PUSH1 0x1F RETURNDATASIZE SWAP1 DUP2 ADD PUSH1 0x1F NOT AND DUP3 ADD SWAP1 SWAP3 MSTORE PUSH2 0x13E9 SWAP2 DUP2 ADD SWAP1 PUSH2 0x1EEA JUMP JUMPDEST PUSH1 0x1 JUMPDEST PUSH2 0x1455 JUMPI RETURNDATASIZE DUP1 DUP1 ISZERO PUSH2 0x141A JUMPI PUSH1 0x40 MLOAD SWAP2 POP PUSH1 0x1F NOT PUSH1 0x3F RETURNDATASIZE ADD AND DUP3 ADD PUSH1 0x40 MSTORE RETURNDATASIZE DUP3 MSTORE RETURNDATASIZE PUSH1 0x0 PUSH1 0x20 DUP5 ADD RETURNDATACOPY PUSH2 0x141F JUMP JUMPDEST PUSH1 0x60 SWAP2 POP JUMPDEST POP DUP1 MLOAD PUSH1 0x0 SUB PUSH2 0x144D JUMPI PUSH1 0x40 MLOAD PUSH4 0x32505749 PUSH1 0xE1 SHL DUP2 MSTORE PUSH1 0x1 PUSH1 0x1 PUSH1 0xA0 SHL SUB DUP6 AND PUSH1 0x4 DUP3 ADD MSTORE PUSH1 0x24 ADD PUSH2 0x640 JUMP JUMPDEST DUP1 MLOAD DUP2 PUSH1 0x20 ADD REVERT JUMPDEST PUSH1 0x1 PUSH1 0x1 PUSH1 0xE0 SHL SUB NOT DUP2 AND PUSH4 0xA85BD01 PUSH1 0xE1 SHL EQ PUSH2 0x1491 JUMPI PUSH1 0x40 MLOAD PUSH4 0x32505749 PUSH1 0xE1 SHL DUP2 MSTORE PUSH1 0x1 PUSH1 0x1 PUSH1 0xA0 SHL SUB DUP6 AND PUSH1 0x4 DUP3 ADD MSTORE PUSH1 0x24 ADD PUSH2 0x640 JUMP JUMPDEST POP POP POP POP POP JUMP JUMPDEST PUSH1 0x60 PUSH1 0x0 PUSH2 0x14A5 DUP4 PUSH2 0x1735 JUMP JUMPDEST PUSH1 0x1 ADD SWAP1 POP PUSH1 0x0 DUP2 PUSH8 0xFFFFFFFFFFFFFFFF DUP2 GT ISZERO PUSH2 0x14C5 JUMPI PUSH2 0x14C5 PUSH2 0x1A3C JUMP JUMPDEST PUSH1 0x40 MLOAD SWAP1 DUP1 DUP3 MSTORE DUP1 PUSH1 0x1F ADD PUSH1 0x1F NOT AND PUSH1 0x20 ADD DUP3 ADD PUSH1 0x40 MSTORE DUP1 ISZERO PUSH2 0x14EF JUMPI PUSH1 0x20 DUP3 ADD DUP2 DUP1 CALLDATASIZE DUP4 CALLDATACOPY ADD SWAP1 POP JUMPDEST POP SWAP1 POP DUP2 DUP2 ADD PUSH1 0x20 ADD JUMPDEST PUSH1 0x0 NOT ADD PUSH16 0x181899199A1A9B1B9C1CB0B131B232B3 PUSH1 0x81 SHL PUSH1 0xA DUP7 MOD BYTE DUP2 MSTORE8 PUSH1 0xA DUP6 DIV SWAP5 POP DUP5 PUSH2 0x14F9 JUMPI POP SWAP4 SWAP3 POP POP POP JUMP JUMPDEST PUSH1 0x0 PUSH1 0x1 PUSH1 0x1 PUSH1 0xE0 SHL SUB NOT DUP3 AND PUSH4 0x80AC58CD PUSH1 0xE0 SHL EQ DUP1 PUSH2 0x155C JUMPI POP PUSH1 0x1 PUSH1 0x1 PUSH1 0xE0 SHL SUB NOT DUP3 AND PUSH4 0x5B5E139F PUSH1 0xE0 SHL EQ JUMPDEST DUP1 PUSH2 0x54A JUMPI POP PUSH4 0x1FFC9A7 PUSH1 0xE0 SHL PUSH1 0x1 PUSH1 0x1 PUSH1 0xE0 SHL SUB NOT DUP4 AND EQ PUSH2 0x54A JUMP JUMPDEST DUP1 DUP1 PUSH2 0x158F JUMPI POP PUSH1 0x1 PUSH1 0x1 PUSH1 0xA0 SHL SUB DUP3 AND ISZERO ISZERO JUMPDEST ISZERO PUSH2 0x1651 JUMPI PUSH1 0x0 PUSH2 0x159F DUP5 PUSH2 0x102E JUMP JUMPDEST SWAP1 POP PUSH1 0x1 PUSH1 0x1 PUSH1 0xA0 SHL SUB DUP4 AND ISZERO DUP1 ISZERO SWAP1 PUSH2 0x15CB JUMPI POP DUP3 PUSH1 0x1 PUSH1 0x1 PUSH1 0xA0 SHL SUB AND DUP2 PUSH1 0x1 PUSH1 0x1 PUSH1 0xA0 SHL SUB AND EQ ISZERO JUMPDEST DUP1 ISZERO PUSH2 0x15DE JUMPI POP PUSH2 0x15DC DUP2 DUP5 PUSH2 0xFA0 JUMP JUMPDEST ISZERO JUMPDEST ISZERO PUSH2 0x1607 JUMPI PUSH1 0x40 MLOAD PUSH4 0xA9FBF51F PUSH1 0xE0 SHL DUP2 MSTORE PUSH1 0x1 PUSH1 0x1 PUSH1 0xA0 SHL SUB DUP5 AND PUSH1 0x4 DUP3 ADD MSTORE PUSH1 0x24 ADD PUSH2 0x640 JUMP JUMPDEST DUP2 ISZERO PUSH2 0x164F JUMPI DUP4 DUP6 PUSH1 0x1 PUSH1 0x1 PUSH1 0xA0 SHL SUB AND DUP3 PUSH1 0x1 PUSH1 0x1 PUSH1 0xA0 SHL SUB AND PUSH32 0x8C5BE1E5EBEC7D5BD14F71427D1E84F3DD0314C0F7B2291E5B200AC8C7C3B925 PUSH1 0x40 MLOAD PUSH1 0x40 MLOAD DUP1 SWAP2 SUB SWAP1 LOG4 JUMPDEST POP JUMPDEST POP POP PUSH1 0x0 SWAP1 DUP2 MSTORE PUSH1 0x4 PUSH1 0x20 MSTORE PUSH1 0x40 SWAP1 KECCAK256 DUP1 SLOAD PUSH1 0x1 PUSH1 0x1 PUSH1 0xA0 SHL SUB NOT AND PUSH1 0x1 PUSH1 0x1 PUSH1 0xA0 SHL SUB SWAP3 SWAP1 SWAP3 AND SWAP2 SWAP1 SWAP2 OR SWAP1 SSTORE JUMP JUMPDEST PUSH2 0x168C DUP4 DUP4 DUP4 PUSH2 0x180D JUMP JUMPDEST PUSH2 0x8D0 JUMPI PUSH1 0x1 PUSH1 0x1 PUSH1 0xA0 SHL SUB DUP4 AND PUSH2 0x16BA JUMPI PUSH1 0x40 MLOAD PUSH4 0x7E273289 PUSH1 0xE0 SHL DUP2 MSTORE PUSH1 0x4 DUP2 ADD DUP3 SWAP1 MSTORE PUSH1 0x24 ADD PUSH2 0x640 JUMP JUMPDEST PUSH1 0x40 MLOAD PUSH4 0x177E802F PUSH1 0xE0 SHL DUP2 MSTORE PUSH1 0x1 PUSH1 0x1 PUSH1 0xA0 SHL SUB DUP4 AND PUSH1 0x4 DUP3 ADD MSTORE PUSH1 0x24 DUP2 ADD DUP3 SWAP1 MSTORE PUSH1 0x44 ADD PUSH2 0x640 JUMP JUMPDEST PUSH2 0x16EF DUP3 DUP3 PUSH2 0xC22 JUMP JUMPDEST PUSH2 0x616 JUMPI PUSH1 0x40 MLOAD PUSH4 0xE2517D3F PUSH1 0xE0 SHL DUP2 MSTORE PUSH1 0x1 PUSH1 0x1 PUSH1 0xA0 SHL SUB DUP3 AND PUSH1 0x4 DUP3 ADD MSTORE PUSH1 0x24 DUP2 ADD DUP4 SWAP1 MSTORE PUSH1 0x44 ADD PUSH2 0x640 JUMP JUMPDEST PUSH2 0x1728 DUP4 DUP4 PUSH2 0x1873 JUMP JUMPDEST PUSH2 0x8D0 PUSH1 0x0 DUP5 DUP5 DUP5 PUSH2 0x136F JUMP JUMPDEST PUSH1 0x0 DUP1 PUSH19 0x184F03E93FF9F4DAA797ED6E38ED64BF6A1F01 PUSH1 0x40 SHL DUP4 LT PUSH2 0x1774 JUMPI PUSH19 0x184F03E93FF9F4DAA797ED6E38ED64BF6A1F01 PUSH1 0x40 SHL DUP4 DIV SWAP3 POP PUSH1 0x40 ADD JUMPDEST PUSH14 0x4EE2D6D415B85ACEF8100000000 DUP4 LT PUSH2 0x17A0 JUMPI PUSH14 0x4EE2D6D415B85ACEF8100000000 DUP4 DIV SWAP3 POP PUSH1 0x20 ADD JUMPDEST PUSH7 0x2386F26FC10000 DUP4 LT PUSH2 0x17BE JUMPI PUSH7 0x2386F26FC10000 DUP4 DIV SWAP3 POP PUSH1 0x10 ADD JUMPDEST PUSH4 0x5F5E100 DUP4 LT PUSH2 0x17D6 JUMPI PUSH4 0x5F5E100 DUP4 DIV SWAP3 POP PUSH1 0x8 ADD JUMPDEST PUSH2 0x2710 DUP4 LT PUSH2 0x17EA JUMPI PUSH2 0x2710 DUP4 DIV SWAP3 POP PUSH1 0x4 ADD JUMPDEST PUSH1 0x64 DUP4 LT PUSH2 0x17FC JUMPI PUSH1 0x64 DUP4 DIV SWAP3 POP PUSH1 0x2 ADD JUMPDEST PUSH1 0xA DUP4 LT PUSH2 0x54A JUMPI PUSH1 0x1 ADD SWAP3 SWAP2 POP POP JUMP JUMPDEST PUSH1 0x0 PUSH1 0x1 PUSH1 0x1 PUSH1 0xA0 SHL SUB DUP4 AND ISZERO DUP1 ISZERO SWAP1 PUSH2 0x186B JUMPI POP DUP3 PUSH1 0x1 PUSH1 0x1 PUSH1 0xA0 SHL SUB AND DUP5 PUSH1 0x1 PUSH1 0x1 PUSH1 0xA0 SHL SUB AND EQ DUP1 PUSH2 0x1847 JUMPI POP PUSH2 0x1847 DUP5 DUP5 PUSH2 0xFA0 JUMP JUMPDEST DUP1 PUSH2 0x186B JUMPI POP PUSH1 0x0 DUP3 DUP2 MSTORE PUSH1 0x4 PUSH1 0x20 MSTORE PUSH1 0x40 SWAP1 KECCAK256 SLOAD PUSH1 0x1 PUSH1 0x1 PUSH1 0xA0 SHL SUB DUP5 DUP2 AND SWAP2 AND EQ JUMPDEST SWAP5 SWAP4 POP POP POP POP JUMP JUMPDEST PUSH1 0x1 PUSH1 0x1 PUSH1 0xA0 SHL SUB DUP3 AND PUSH2 0x189D JUMPI PUSH1 0x40 MLOAD PUSH4 0x32505749 PUSH1 0xE1 SHL DUP2 MSTORE PUSH1 0x0 PUSH1 0x4 DUP3 ADD MSTORE PUSH1 0x24 ADD PUSH2 0x640 JUMP JUMPDEST PUSH1 0x0 PUSH2 0x18AB DUP4 DUP4 PUSH1 0x0 PUSH2 0x1074 JUMP JUMPDEST SWAP1 POP PUSH1 0x1 PUSH1 0x1 PUSH1 0xA0 SHL SUB DUP2 AND ISZERO PUSH2 0x8D0 JUMPI PUSH1 0x40 MLOAD PUSH4 0x39E35637 PUSH1 0xE1 SHL DUP2 MSTORE PUSH1 0x0 PUSH1 0x4 DUP3 ADD MSTORE PUSH1 0x24 ADD PUSH2 0x640 JUMP JUMPDEST PUSH1 0x1 PUSH1 0x1 PUSH1 0xE0 SHL SUB NOT DUP2 AND DUP2 EQ PUSH2 0x1177 JUMPI PUSH1 0x0 DUP1 REVERT JUMPDEST PUSH1 0x0 PUSH1 0x20 DUP3 DUP5 SUB SLT ISZERO PUSH2 0x1900 JUMPI PUSH1 0x0 DUP1 REVERT JUMPDEST DUP2 CALLDATALOAD PUSH2 0x190B DUP2 PUSH2 0x18D8 JUMP JUMPDEST SWAP4 SWAP3 POP POP POP JUMP JUMPDEST PUSH1 0x0 JUMPDEST DUP4 DUP2 LT ISZERO PUSH2 0x192D JUMPI DUP2 DUP2 ADD MLOAD DUP4 DUP3 ADD MSTORE PUSH1 0x20 ADD PUSH2 0x1915 JUMP JUMPDEST POP POP PUSH1 0x0 SWAP2 ADD MSTORE JUMP JUMPDEST PUSH1 0x0 DUP2 MLOAD DUP1 DUP5 MSTORE PUSH2 0x194E DUP2 PUSH1 0x20 DUP7 ADD PUSH1 0x20 DUP7 ADD PUSH2 0x1912 JUMP JUMPDEST PUSH1 0x1F ADD PUSH1 0x1F NOT AND SWAP3 SWAP1 SWAP3 ADD PUSH1 0x20 ADD SWAP3 SWAP2 POP POP JUMP JUMPDEST PUSH1 0x20 DUP2 MSTORE PUSH1 0x0 PUSH2 0x190B PUSH1 0x20 DUP4 ADD DUP5 PUSH2 0x1936 JUMP JUMPDEST PUSH1 0x0 PUSH1 0x20 DUP3 DUP5 SUB SLT ISZERO PUSH2 0x1987 JUMPI PUSH1 0x0 DUP1 REVERT JUMPDEST POP CALLDATALOAD SWAP2 SWAP1 POP JUMP JUMPDEST DUP1 CALLDATALOAD PUSH1 0x1 PUSH1 0x1 PUSH1 0xA0 SHL SUB DUP2 AND DUP2 EQ PUSH2 0x19A5 JUMPI PUSH1 0x0 DUP1 REVERT JUMPDEST SWAP2 SWAP1 POP JUMP JUMPDEST PUSH1 0x0 DUP1 PUSH1 0x40 DUP4 DUP6 SUB SLT ISZERO PUSH2 0x19BD JUMPI PUSH1 0x0 DUP1 REVERT JUMPDEST PUSH2 0x19C6 DUP4 PUSH2 0x198E JUMP JUMPDEST SWAP5 PUSH1 0x20 SWAP4 SWAP1 SWAP4 ADD CALLDATALOAD SWAP4 POP POP POP JUMP JUMPDEST PUSH1 0x0 DUP1 PUSH1 0x0 PUSH1 0x60 DUP5 DUP7 SUB SLT ISZERO PUSH2 0x19E9 JUMPI PUSH1 0x0 DUP1 REVERT JUMPDEST PUSH2 0x19F2 DUP5 PUSH2 0x198E JUMP JUMPDEST SWAP3 POP PUSH2 0x1A00 PUSH1 0x20 DUP6 ADD PUSH2 0x198E JUMP JUMPDEST SWAP2 POP PUSH1 0x40 DUP5 ADD CALLDATALOAD SWAP1 POP SWAP3 POP SWAP3 POP SWAP3 JUMP JUMPDEST PUSH1 0x0 DUP1 PUSH1 0x40 DUP4 DUP6 SUB SLT ISZERO PUSH2 0x1A23 JUMPI PUSH1 0x0 DUP1 REVERT JUMPDEST DUP3 CALLDATALOAD SWAP2 POP PUSH2 0x1A33 PUSH1 0x20 DUP5 ADD PUSH2 0x198E JUMP JUMPDEST SWAP1 POP SWAP3 POP SWAP3 SWAP1 POP JUMP JUMPDEST PUSH4 0x4E487B71 PUSH1 0xE0 SHL PUSH1 0x0 MSTORE PUSH1 0x41 PUSH1 0x4 MSTORE PUSH1 0x24 PUSH1 0x0 REVERT JUMPDEST PUSH1 0x40 MLOAD PUSH1 0x1F DUP3 ADD PUSH1 0x1F NOT AND DUP2 ADD PUSH8 0xFFFFFFFFFFFFFFFF DUP2 GT DUP3 DUP3 LT OR ISZERO PUSH2 0x1A7B JUMPI PUSH2 0x1A7B PUSH2 0x1A3C JUMP JUMPDEST PUSH1 0x40 MSTORE SWAP2 SWAP1 POP JUMP JUMPDEST PUSH1 0x0 PUSH8 0xFFFFFFFFFFFFFFFF DUP3 GT ISZERO PUSH2 0x1A9D JUMPI PUSH2 0x1A9D PUSH2 0x1A3C JUMP JUMPDEST POP PUSH1 0x1F ADD PUSH1 0x1F NOT AND PUSH1 0x20 ADD SWAP1 JUMP JUMPDEST PUSH1 0x0 PUSH2 0x1ABE PUSH2 0x1AB9 DUP5 PUSH2 0x1A83 JUMP JUMPDEST PUSH2 0x1A52 JUMP JUMPDEST SWAP1 POP DUP3 DUP2 MSTORE DUP4 DUP4 DUP4 ADD GT ISZERO PUSH2 0x1AD2 JUMPI PUSH1 0x0 DUP1 REVERT JUMPDEST DUP3 DUP3 PUSH1 0x20 DUP4 ADD CALLDATACOPY PUSH1 0x0 PUSH1 0x20 DUP5 DUP4 ADD ADD MSTORE SWAP4 SWAP3 POP POP POP JUMP JUMPDEST PUSH1 0x0 DUP1 PUSH1 0x40 DUP4 DUP6 SUB SLT ISZERO PUSH2 0x1AFC JUMPI PUSH1 0x0 DUP1 REVERT JUMPDEST DUP3 CALLDATALOAD SWAP2 POP PUSH1 0x20 DUP4 ADD CALLDATALOAD PUSH8 0xFFFFFFFFFFFFFFFF DUP2 GT ISZERO PUSH2 0x1B1A JUMPI PUSH1 0x0 DUP1 REVERT JUMPDEST DUP4 ADD PUSH1 0x1F DUP2 ADD DUP6 SGT PUSH2 0x1B2B JUMPI PUSH1 0x0 DUP1 REVERT JUMPDEST PUSH2 0x1B3A DUP6 DUP3 CALLDATALOAD PUSH1 0x20 DUP5 ADD PUSH2 0x1AAB JUMP JUMPDEST SWAP2 POP POP SWAP3 POP SWAP3 SWAP1 POP JUMP JUMPDEST PUSH1 0x0 PUSH1 0x20 DUP3 DUP5 SUB SLT ISZERO PUSH2 0x1B56 JUMPI PUSH1 0x0 DUP1 REVERT JUMPDEST PUSH2 0x190B DUP3 PUSH2 0x198E JUMP JUMPDEST PUSH1 0x60 DUP2 MSTORE PUSH1 0x0 PUSH2 0x1B72 PUSH1 0x60 DUP4 ADD DUP7 PUSH2 0x1936 JUMP JUMPDEST DUP3 DUP2 SUB PUSH1 0x20 DUP5 ADD MSTORE PUSH2 0x1B84 DUP2 DUP7 PUSH2 0x1936 JUMP JUMPDEST SWAP1 POP DUP3 DUP2 SUB PUSH1 0x40 DUP5 ADD MSTORE PUSH2 0x1B98 DUP2 DUP6 PUSH2 0x1936 JUMP JUMPDEST SWAP7 SWAP6 POP POP POP POP POP POP JUMP JUMPDEST PUSH1 0x0 DUP1 PUSH1 0x40 DUP4 DUP6 SUB SLT ISZERO PUSH2 0x1BB5 JUMPI PUSH1 0x0 DUP1 REVERT JUMPDEST PUSH2 0x1BBE DUP4 PUSH2 0x198E JUMP JUMPDEST SWAP2 POP PUSH1 0x20 DUP4 ADD CALLDATALOAD DUP1 ISZERO ISZERO DUP2 EQ PUSH2 0x1BD3 JUMPI PUSH1 0x0 DUP1 REVERT JUMPDEST DUP1 SWAP2 POP POP SWAP3 POP SWAP3 SWAP1 POP JUMP JUMPDEST PUSH1 0x0 DUP1 PUSH1 0x0 DUP1 PUSH1 0x80 DUP6 DUP8 SUB SLT ISZERO PUSH2 0x1BF4 JUMPI PUSH1 0x0 DUP1 REVERT JUMPDEST PUSH2 0x1BFD DUP6 PUSH2 0x198E JUMP JUMPDEST SWAP4 POP PUSH2 0x1C0B PUSH1 0x20 DUP7 ADD PUSH2 0x198E JUMP JUMPDEST SWAP3 POP PUSH1 0x40 DUP6 ADD CALLDATALOAD SWAP2 POP PUSH1 0x60 DUP6 ADD CALLDATALOAD PUSH8 0xFFFFFFFFFFFFFFFF DUP2 GT ISZERO PUSH2 0x1C2E JUMPI PUSH1 0x0 DUP1 REVERT JUMPDEST DUP6 ADD PUSH1 0x1F DUP2 ADD DUP8 SGT PUSH2 0x1C3F JUMPI PUSH1 0x0 DUP1 REVERT JUMPDEST PUSH2 0x1C4E DUP8 DUP3 CALLDATALOAD PUSH1 0x20 DUP5 ADD PUSH2 0x1AAB JUMP JUMPDEST SWAP2 POP POP SWAP3 SWAP6 SWAP2 SWAP5 POP SWAP3 POP JUMP JUMPDEST PUSH1 0x0 DUP1 PUSH1 0x40 DUP4 DUP6 SUB SLT ISZERO PUSH2 0x1C6D JUMPI PUSH1 0x0 DUP1 REVERT JUMPDEST PUSH2 0x1C76 DUP4 PUSH2 0x198E JUMP JUMPDEST SWAP2 POP PUSH2 0x1A33 PUSH1 0x20 DUP5 ADD PUSH2 0x198E JUMP JUMPDEST PUSH1 0x1 DUP2 DUP2 SHR SWAP1 DUP3 AND DUP1 PUSH2 0x1C98 JUMPI PUSH1 0x7F DUP3 AND SWAP2 POP JUMPDEST PUSH1 0x20 DUP3 LT DUP2 SUB PUSH2 0x1CB8 JUMPI PUSH4 0x4E487B71 PUSH1 0xE0 SHL PUSH1 0x0 MSTORE PUSH1 0x22 PUSH1 0x4 MSTORE PUSH1 0x24 PUSH1 0x0 REVERT JUMPDEST POP SWAP2 SWAP1 POP JUMP JUMPDEST PUSH1 0x0 PUSH1 0x20 DUP3 DUP5 SUB SLT ISZERO PUSH2 0x1CD0 JUMPI PUSH1 0x0 DUP1 REVERT JUMPDEST DUP2 MLOAD PUSH1 0x8 DUP2 LT PUSH2 0x190B JUMPI PUSH1 0x0 DUP1 REVERT JUMPDEST PUSH4 0x4E487B71 PUSH1 0xE0 SHL PUSH1 0x0 MSTORE PUSH1 0x21 PUSH1 0x4 MSTORE PUSH1 0x24 PUSH1 0x0 REVERT JUMPDEST PUSH1 0x1F DUP3 GT ISZERO PUSH2 0x8D0 JUMPI PUSH1 0x0 DUP2 DUP2 MSTORE PUSH1 0x20 DUP2 KECCAK256 PUSH1 0x1F DUP6 ADD PUSH1 0x5 SHR DUP2 ADD PUSH1 0x20 DUP7 LT ISZERO PUSH2 0x1D1C JUMPI POP DUP1 JUMPDEST PUSH1 0x1F DUP6 ADD PUSH1 0x5 SHR DUP3 ADD SWAP2 POP JUMPDEST DUP2 DUP2 LT ISZERO PUSH2 0x1D3B JUMPI DUP3 DUP2 SSTORE PUSH1 0x1 ADD PUSH2 0x1D28 JUMP JUMPDEST POP POP POP POP POP POP JUMP JUMPDEST DUP2 MLOAD PUSH8 0xFFFFFFFFFFFFFFFF DUP2 GT ISZERO PUSH2 0x1D5D JUMPI PUSH2 0x1D5D PUSH2 0x1A3C JUMP JUMPDEST PUSH2 0x1D71 DUP2 PUSH2 0x1D6B DUP5 SLOAD PUSH2 0x1C84 JUMP JUMPDEST DUP5 PUSH2 0x1CF5 JUMP JUMPDEST PUSH1 0x20 DUP1 PUSH1 0x1F DUP4 GT PUSH1 0x1 DUP2 EQ PUSH2 0x1DA6 JUMPI PUSH1 0x0 DUP5 ISZERO PUSH2 0x1D8E JUMPI POP DUP6 DUP4 ADD MLOAD JUMPDEST PUSH1 0x0 NOT PUSH1 0x3 DUP7 SWAP1 SHL SHR NOT AND PUSH1 0x1 DUP6 SWAP1 SHL OR DUP6 SSTORE PUSH2 0x1D3B JUMP JUMPDEST PUSH1 0x0 DUP6 DUP2 MSTORE PUSH1 0x20 DUP2 KECCAK256 PUSH1 0x1F NOT DUP7 AND SWAP2 JUMPDEST DUP3 DUP2 LT ISZERO PUSH2 0x1DD5 JUMPI DUP9 DUP7 ADD MLOAD DUP3 SSTORE SWAP5 DUP5 ADD SWAP5 PUSH1 0x1 SWAP1 SWAP2 ADD SWAP1 DUP5 ADD PUSH2 0x1DB6 JUMP JUMPDEST POP DUP6 DUP3 LT ISZERO PUSH2 0x1DF3 JUMPI DUP8 DUP6 ADD MLOAD PUSH1 0x0 NOT PUSH1 0x3 DUP9 SWAP1 SHL PUSH1 0xF8 AND SHR NOT AND DUP2 SSTORE JUMPDEST POP POP POP POP POP PUSH1 0x1 SWAP1 DUP2 SHL ADD SWAP1 SSTORE POP JUMP JUMPDEST PUSH1 0x0 PUSH1 0x20 DUP3 DUP5 SUB SLT ISZERO PUSH2 0x1E15 JUMPI PUSH1 0x0 DUP1 REVERT JUMPDEST DUP2 MLOAD PUSH8 0xFFFFFFFFFFFFFFFF DUP2 GT ISZERO PUSH2 0x1E2C JUMPI PUSH1 0x0 DUP1 REVERT JUMPDEST DUP3 ADD PUSH1 0x1F DUP2 ADD DUP5 SGT PUSH2 0x1E3D JUMPI PUSH1 0x0 DUP1 REVERT JUMPDEST DUP1 MLOAD PUSH2 0x1E4B PUSH2 0x1AB9 DUP3 PUSH2 0x1A83 JUMP JUMPDEST DUP2 DUP2 MSTORE DUP6 PUSH1 0x20 DUP4 DUP6 ADD ADD GT ISZERO PUSH2 0x1E60 JUMPI PUSH1 0x0 DUP1 REVERT JUMPDEST PUSH2 0x1E71 DUP3 PUSH1 0x20 DUP4 ADD PUSH1 0x20 DUP7 ADD PUSH2 0x1912 JUMP JUMPDEST SWAP6 SWAP5 POP POP POP POP POP JUMP JUMPDEST PUSH1 0x0 DUP4 MLOAD PUSH2 0x1E8C DUP2 DUP5 PUSH1 0x20 DUP9 ADD PUSH2 0x1912 JUMP JUMPDEST PUSH2 0x2023 PUSH1 0xF0 SHL SWAP1 DUP4 ADD SWAP1 DUP2 MSTORE DUP4 MLOAD PUSH2 0x1EAB DUP2 PUSH1 0x2 DUP5 ADD PUSH1 0x20 DUP9 ADD PUSH2 0x1912 JUMP JUMPDEST ADD PUSH1 0x2 ADD SWAP5 SWAP4 POP POP POP POP JUMP JUMPDEST PUSH1 0x1 PUSH1 0x1 PUSH1 0xA0 SHL SUB DUP6 DUP2 AND DUP3 MSTORE DUP5 AND PUSH1 0x20 DUP3 ADD MSTORE PUSH1 0x40 DUP2 ADD DUP4 SWAP1 MSTORE PUSH1 0x80 PUSH1 0x60 DUP3 ADD DUP2 SWAP1 MSTORE PUSH1 0x0 SWAP1 PUSH2 0x1B98 SWAP1 DUP4 ADD DUP5 PUSH2 0x1936 JUMP JUMPDEST PUSH1 0x0 PUSH1 0x20 DUP3 DUP5 SUB SLT ISZERO PUSH2 0x1EFC JUMPI PUSH1 0x0 DUP1 REVERT JUMPDEST DUP2 MLOAD PUSH2 0x190B DUP2 PUSH2 0x18D8 JUMP INVALID 0xB1 SWAP6 CHAINID 0xDF CREATE 0x1E DUP6 PUSH16 0xB3F010C267A7B1C60363CF8A4664E21C 0xC8 SWAP13 0x26 0x22 CHAINID KECCAK256 0x21 0x4E LOG2 PUSH5 0x6970667358 0x22 SLT KECCAK256 DELEGATECALL CODECOPY REVERT XOR ISZERO 0xB2 CHAINID 0xE3 PUSH26 0xE9133EFBD9E98C72B92E6E54040BD515833AB3D4540BAB64736F PUSH13 0x63430008140033000000000000 "},"gasEstimates":{"creation":{"codeDepositCost":"1605800","executionCost":"infinite","totalCost":"infinite"},"external":{"BURNER_ROLE()":"285","DEFAULT_ADMIN_ROLE()":"262","MINTER_ROLE()":"306","OWNER_ROLE()":"infinite","approve(address,uint256)":"31560","balanceOf(address)":"2722","burn(uint256)":"infinite","characterNFTManagerContract()":"2427","classIdToCharacterData(uint256)":"infinite","getApproved(uint256)":"infinite","getClassDescription(uint256)":"infinite","getClassImage(uint256)":"infinite","getClassName(uint256)":"infinite","getRoleAdmin(bytes32)":"2512","grantRole(bytes32,address)":"infinite","hasRole(bytes32,address)":"2722","isApprovedForAll(address,address)":"infinite","mint(uint256,address)":"infinite","name()":"infinite","ownerOf(uint256)":"infinite","renounceRole(bytes32,address)":"29097","revokeRole(bytes32,address)":"infinite","safeTransferFrom(address,address,uint256)":"infinite","safeTransferFrom(address,address,uint256,bytes)":"infinite","setApprovalForAll(address,bool)":"26748","setCharacterNFTManager(address)":"infinite","setTokenUriContract(address)":"infinite","supportsInterface(bytes4)":"infinite","symbol()":"infinite","tokenName(uint256)":"infinite","tokenURI(uint256)":"infinite","tokenUriContract()":"2426","transferFrom(address,address,uint256)":"infinite","updateClassDescriptions(uint256,string)":"infinite","updateClassImages(uint256,string)":"infinite","updateClassNames(uint256,string)":"infinite"}},"methodIdentifiers":{"BURNER_ROLE()":"282c51f3","DEFAULT_ADMIN_ROLE()":"a217fddf","MINTER_ROLE()":"d5391393","OWNER_ROLE()":"e58378bb","approve(address,uint256)":"095ea7b3","balanceOf(address)":"70a08231","burn(uint256)":"42966c68","characterNFTManagerContract()":"36e67256","classIdToCharacterData(uint256)":"877b79b8","getApproved(uint256)":"081812fc","getClassDescription(uint256)":"31bcb9d8","getClassImage(uint256)":"2d537851","getClassName(uint256)":"3ddfbd8b","getRoleAdmin(bytes32)":"248a9ca3","grantRole(bytes32,address)":"2f2ff15d","hasRole(bytes32,address)":"91d14854","isApprovedForAll(address,address)":"e985e9c5","mint(uint256,address)":"94bf804d","name()":"06fdde03","ownerOf(uint256)":"6352211e","renounceRole(bytes32,address)":"36568abe","revokeRole(bytes32,address)":"d547741f","safeTransferFrom(address,address,uint256)":"42842e0e","safeTransferFrom(address,address,uint256,bytes)":"b88d4fde","setApprovalForAll(address,bool)":"a22cb465","setCharacterNFTManager(address)":"94dd3215","setTokenUriContract(address)":"f210ace4","supportsInterface(bytes4)":"01ffc9a7","symbol()":"95d89b41","tokenName(uint256)":"e725f877","tokenURI(uint256)":"c87b56dd","tokenUriContract()":"c8cc5175","transferFrom(address,address,uint256)":"23b872dd","updateClassDescriptions(uint256,string)":"ae53a1a1","updateClassImages(uint256,string)":"a41f6179","updateClassNames(uint256,string)":"58342c90"}},"storageLayout":{"storage":[{"astId":1556,"contract":"contracts/erc721/CharacterNFT.sol:CharacterNFT","label":"_name","offset":0,"slot":"0","type":"t_string_storage"},{"astId":1558,"contract":"contracts/erc721/CharacterNFT.sol:CharacterNFT","label":"_symbol","offset":0,"slot":"1","type":"t_string_storage"},{"astId":1562,"contract":"contracts/erc721/CharacterNFT.sol:CharacterNFT","label":"_owners","offset":0,"slot":"2","type":"t_mapping(t_uint256,t_address)"},{"astId":1566,"contract":"contracts/erc721/CharacterNFT.sol:CharacterNFT","label":"_balances","offset":0,"slot":"3","type":"t_mapping(t_address,t_uint256)"},{"astId":1570,"contract":"contracts/erc721/CharacterNFT.sol:CharacterNFT","label":"_tokenApprovals","offset":0,"slot":"4","type":"t_mapping(t_uint256,t_address)"},{"astId":1576,"contract":"contracts/erc721/CharacterNFT.sol:CharacterNFT","label":"_operatorApprovals","offset":0,"slot":"5","type":"t_mapping(t_address,t_mapping(t_address,t_bool))"},{"astId":1034,"contract":"contracts/erc721/CharacterNFT.sol:CharacterNFT","label":"_roles","offset":0,"slot":"6","type":"t_mapping(t_bytes32,t_struct(RoleData)1029_storage)"},{"astId":4365,"contract":"contracts/erc721/CharacterNFT.sol:CharacterNFT","label":"classIdToCharacterData","offset":0,"slot":"7","type":"t_mapping(t_uint256,t_struct(CharacterData)4360_storage)"},{"astId":4367,"contract":"contracts/erc721/CharacterNFT.sol:CharacterNFT","label":"characterNFTManagerContract","offset":0,"slot":"8","type":"t_address"},{"astId":4369,"contract":"contracts/erc721/CharacterNFT.sol:CharacterNFT","label":"tokenUriContract","offset":0,"slot":"9","type":"t_address"}],"types":{"t_address":{"encoding":"inplace","label":"address","numberOfBytes":"20"},"t_bool":{"encoding":"inplace","label":"bool","numberOfBytes":"1"},"t_bytes32":{"encoding":"inplace","label":"bytes32","numberOfBytes":"32"},"t_mapping(t_address,t_bool)":{"encoding":"mapping","key":"t_address","label":"mapping(address => bool)","numberOfBytes":"32","value":"t_bool"},"t_mapping(t_address,t_mapping(t_address,t_bool))":{"encoding":"mapping","key":"t_address","label":"mapping(address => mapping(address => bool))","numberOfBytes":"32","value":"t_mapping(t_address,t_bool)"},"t_mapping(t_address,t_uint256)":{"encoding":"mapping","key":"t_address","label":"mapping(address => uint256)","numberOfBytes":"32","value":"t_uint256"},"t_mapping(t_bytes32,t_struct(RoleData)1029_storage)":{"encoding":"mapping","key":"t_bytes32","label":"mapping(bytes32 => struct AccessControl.RoleData)","numberOfBytes":"32","value":"t_struct(RoleData)1029_storage"},"t_mapping(t_uint256,t_address)":{"encoding":"mapping","key":"t_uint256","label":"mapping(uint256 => address)","numberOfBytes":"32","value":"t_address"},"t_mapping(t_uint256,t_struct(CharacterData)4360_storage)":{"encoding":"mapping","key":"t_uint256","label":"mapping(uint256 => struct CharacterNFT.CharacterData)","numberOfBytes":"32","value":"t_struct(CharacterData)4360_storage"},"t_string_storage":{"encoding":"bytes","label":"string","numberOfBytes":"32"},"t_struct(CharacterData)4360_storage":{"encoding":"inplace","label":"struct CharacterNFT.CharacterData","members":[{"astId":4355,"contract":"contracts/erc721/CharacterNFT.sol:CharacterNFT","label":"className","offset":0,"slot":"0","type":"t_string_storage"},{"astId":4357,"contract":"contracts/erc721/CharacterNFT.sol:CharacterNFT","label":"classImage","offset":0,"slot":"1","type":"t_string_storage"},{"astId":4359,"contract":"contracts/erc721/CharacterNFT.sol:CharacterNFT","label":"classDescription","offset":0,"slot":"2","type":"t_string_storage"}],"numberOfBytes":"96"},"t_struct(RoleData)1029_storage":{"encoding":"inplace","label":"struct AccessControl.RoleData","members":[{"astId":1026,"contract":"contracts/erc721/CharacterNFT.sol:CharacterNFT","label":"hasRole","offset":0,"slot":"0","type":"t_mapping(t_address,t_bool)"},{"astId":1028,"contract":"contracts/erc721/CharacterNFT.sol:CharacterNFT","label":"adminRole","offset":0,"slot":"1","type":"t_bytes32"}],"numberOfBytes":"64"},"t_uint256":{"encoding":"inplace","label":"uint256","numberOfBytes":"32"}}},"userdoc":{"errors":{"InvalidValues()":[{"notice":"ERRORS *"}]},"kind":"user","methods":{"OWNER_ROLE()":{"notice":"ROLES *"},"constructor":{"notice":"FUNCTIONS *"}},"version":1}}}}