{
  "_format": "hh-sol-artifact-1",
  "contractName": "Akara",
  "sourceName": "contracts/merchant/Akara.sol",
  "abi": [
    {
      "inputs": [],
      "name": "AccessControlBadConfirmation",
      "type": "error"
    },
    {
      "inputs": [
        {
          "internalType": "address",
          "name": "account",
          "type": "address"
        },
        {
          "internalType": "bytes32",
          "name": "neededRole",
          "type": "bytes32"
        }
      ],
      "name": "AccessControlUnauthorizedAccount",
      "type": "error"
    },
    {
      "inputs": [],
      "name": "EnforcedPause",
      "type": "error"
    },
    {
      "inputs": [],
      "name": "ExpectedPause",
      "type": "error"
    },
    {
      "inputs": [],
      "name": "InvalidInitialization",
      "type": "error"
    },
    {
      "inputs": [],
      "name": "InvalidValues",
      "type": "error"
    },
    {
      "inputs": [],
      "name": "NotInitializing",
      "type": "error"
    },
    {
      "inputs": [],
      "name": "ReentrancyGuardReentrantCall",
      "type": "error"
    },
    {
      "inputs": [],
      "name": "UnableToPurchase",
      "type": "error"
    },
    {
      "anonymous": false,
      "inputs": [
        {
          "indexed": false,
          "internalType": "uint64",
          "name": "version",
          "type": "uint64"
        }
      ],
      "name": "Initialized",
      "type": "event"
    },
    {
      "anonymous": false,
      "inputs": [
        {
          "indexed": false,
          "internalType": "address",
          "name": "account",
          "type": "address"
        }
      ],
      "name": "Paused",
      "type": "event"
    },
    {
      "anonymous": false,
      "inputs": [
        {
          "indexed": true,
          "internalType": "uint256",
          "name": "tokenId",
          "type": "uint256"
        },
        {
          "indexed": true,
          "internalType": "address",
          "name": "buyer",
          "type": "address"
        },
        {
          "indexed": false,
          "internalType": "uint256",
          "name": "price",
          "type": "uint256"
        },
        {
          "indexed": false,
          "internalType": "uint256",
          "name": "quantity",
          "type": "uint256"
        }
      ],
      "name": "Purchased",
      "type": "event"
    },
    {
      "anonymous": false,
      "inputs": [
        {
          "indexed": true,
          "internalType": "bytes32",
          "name": "role",
          "type": "bytes32"
        },
        {
          "indexed": true,
          "internalType": "bytes32",
          "name": "previousAdminRole",
          "type": "bytes32"
        },
        {
          "indexed": true,
          "internalType": "bytes32",
          "name": "newAdminRole",
          "type": "bytes32"
        }
      ],
      "name": "RoleAdminChanged",
      "type": "event"
    },
    {
      "anonymous": false,
      "inputs": [
        {
          "indexed": true,
          "internalType": "bytes32",
          "name": "role",
          "type": "bytes32"
        },
        {
          "indexed": true,
          "internalType": "address",
          "name": "account",
          "type": "address"
        },
        {
          "indexed": true,
          "internalType": "address",
          "name": "sender",
          "type": "address"
        }
      ],
      "name": "RoleGranted",
      "type": "event"
    },
    {
      "anonymous": false,
      "inputs": [
        {
          "indexed": true,
          "internalType": "bytes32",
          "name": "role",
          "type": "bytes32"
        },
        {
          "indexed": true,
          "internalType": "address",
          "name": "account",
          "type": "address"
        },
        {
          "indexed": true,
          "internalType": "address",
          "name": "sender",
          "type": "address"
        }
      ],
      "name": "RoleRevoked",
      "type": "event"
    },
    {
      "anonymous": false,
      "inputs": [
        {
          "indexed": false,
          "internalType": "address",
          "name": "account",
          "type": "address"
        }
      ],
      "name": "Unpaused",
      "type": "event"
    },
    {
      "inputs": [],
      "name": "ADMIN_ROLE",
      "outputs": [
        {
          "internalType": "bytes32",
          "name": "",
          "type": "bytes32"
        }
      ],
      "stateMutability": "view",
      "type": "function"
    },
    {
      "inputs": [],
      "name": "DEFAULT_ADMIN_ROLE",
      "outputs": [
        {
          "internalType": "bytes32",
          "name": "",
          "type": "bytes32"
        }
      ],
      "stateMutability": "view",
      "type": "function"
    },
    {
      "inputs": [],
      "name": "MINTER_ROLE",
      "outputs": [
        {
          "internalType": "bytes32",
          "name": "",
          "type": "bytes32"
        }
      ],
      "stateMutability": "view",
      "type": "function"
    },
    {
      "inputs": [],
      "name": "OWNER_ROLE",
      "outputs": [
        {
          "internalType": "bytes32",
          "name": "",
          "type": "bytes32"
        }
      ],
      "stateMutability": "view",
      "type": "function"
    },
    {
      "inputs": [],
      "name": "PAUSER_ROLE",
      "outputs": [
        {
          "internalType": "bytes32",
          "name": "",
          "type": "bytes32"
        }
      ],
      "stateMutability": "view",
      "type": "function"
    },
    {
      "inputs": [],
      "name": "UTILITY_ROLE",
      "outputs": [
        {
          "internalType": "bytes32",
          "name": "",
          "type": "bytes32"
        }
      ],
      "stateMutability": "view",
      "type": "function"
    },
    {
      "inputs": [],
      "name": "bank",
      "outputs": [
        {
          "internalType": "address payable",
          "name": "",
          "type": "address"
        }
      ],
      "stateMutability": "view",
      "type": "function"
    },
    {
      "inputs": [
        {
          "internalType": "bytes32",
          "name": "role",
          "type": "bytes32"
        }
      ],
      "name": "getRoleAdmin",
      "outputs": [
        {
          "internalType": "bytes32",
          "name": "",
          "type": "bytes32"
        }
      ],
      "stateMutability": "view",
      "type": "function"
    },
    {
      "inputs": [],
      "name": "goldTokenAddress",
      "outputs": [
        {
          "internalType": "address",
          "name": "",
          "type": "address"
        }
      ],
      "stateMutability": "view",
      "type": "function"
    },
    {
      "inputs": [
        {
          "internalType": "bytes32",
          "name": "role",
          "type": "bytes32"
        },
        {
          "internalType": "address",
          "name": "account",
          "type": "address"
        }
      ],
      "name": "grantRole",
      "outputs": [],
      "stateMutability": "nonpayable",
      "type": "function"
    },
    {
      "inputs": [
        {
          "internalType": "bytes32",
          "name": "role",
          "type": "bytes32"
        },
        {
          "internalType": "address",
          "name": "account",
          "type": "address"
        }
      ],
      "name": "hasRole",
      "outputs": [
        {
          "internalType": "bool",
          "name": "",
          "type": "bool"
        }
      ],
      "stateMutability": "view",
      "type": "function"
    },
    {
      "inputs": [
        {
          "internalType": "address",
          "name": "initialOwner",
          "type": "address"
        }
      ],
      "name": "initialize",
      "outputs": [],
      "stateMutability": "nonpayable",
      "type": "function"
    },
    {
      "inputs": [],
      "name": "itemNFTAddress",
      "outputs": [
        {
          "internalType": "address",
          "name": "",
          "type": "address"
        }
      ],
      "stateMutability": "view",
      "type": "function"
    },
    {
      "inputs": [],
      "name": "pause",
      "outputs": [],
      "stateMutability": "nonpayable",
      "type": "function"
    },
    {
      "inputs": [],
      "name": "paused",
      "outputs": [
        {
          "internalType": "bool",
          "name": "",
          "type": "bool"
        }
      ],
      "stateMutability": "view",
      "type": "function"
    },
    {
      "inputs": [
        {
          "internalType": "uint256",
          "name": "tokenId",
          "type": "uint256"
        },
        {
          "internalType": "uint256",
          "name": "quantity",
          "type": "uint256"
        }
      ],
      "name": "purchase",
      "outputs": [],
      "stateMutability": "nonpayable",
      "type": "function"
    },
    {
      "inputs": [
        {
          "internalType": "bytes32",
          "name": "role",
          "type": "bytes32"
        },
        {
          "internalType": "address",
          "name": "callerConfirmation",
          "type": "address"
        }
      ],
      "name": "renounceRole",
      "outputs": [],
      "stateMutability": "nonpayable",
      "type": "function"
    },
    {
      "inputs": [
        {
          "internalType": "bytes32",
          "name": "role",
          "type": "bytes32"
        },
        {
          "internalType": "address",
          "name": "account",
          "type": "address"
        }
      ],
      "name": "revokeRole",
      "outputs": [],
      "stateMutability": "nonpayable",
      "type": "function"
    },
    {
      "inputs": [
        {
          "internalType": "address payable",
          "name": "_bank",
          "type": "address"
        }
      ],
      "name": "setBank",
      "outputs": [],
      "stateMutability": "nonpayable",
      "type": "function"
    },
    {
      "inputs": [
        {
          "internalType": "address",
          "name": "_goldTokenAddress",
          "type": "address"
        }
      ],
      "name": "setGoldTokenAddress",
      "outputs": [],
      "stateMutability": "nonpayable",
      "type": "function"
    },
    {
      "inputs": [
        {
          "internalType": "address",
          "name": "_itemNFTAddress",
          "type": "address"
        }
      ],
      "name": "setItemNFTAddress",
      "outputs": [],
      "stateMutability": "nonpayable",
      "type": "function"
    },
    {
      "inputs": [
        {
          "internalType": "uint256",
          "name": "tokenId",
          "type": "uint256"
        },
        {
          "internalType": "uint256",
          "name": "price",
          "type": "uint256"
        }
      ],
      "name": "setItemPrice",
      "outputs": [],
      "stateMutability": "nonpayable",
      "type": "function"
    },
    {
      "inputs": [
        {
          "internalType": "bytes4",
          "name": "interfaceId",
          "type": "bytes4"
        }
      ],
      "name": "supportsInterface",
      "outputs": [
        {
          "internalType": "bool",
          "name": "",
          "type": "bool"
        }
      ],
      "stateMutability": "view",
      "type": "function"
    },
    {
      "inputs": [
        {
          "internalType": "uint256",
          "name": "",
          "type": "uint256"
        }
      ],
      "name": "tokenIdToPrice",
      "outputs": [
        {
          "internalType": "uint256",
          "name": "",
          "type": "uint256"
        }
      ],
      "stateMutability": "view",
      "type": "function"
    },
    {
      "inputs": [],
      "name": "unpause",
      "outputs": [],
      "stateMutability": "nonpayable",
      "type": "function"
    }
  ],
  "bytecode": "0x608060405234801561001057600080fd5b50610efa806100206000396000f3fe608060405234801561001057600080fd5b50600436106101735760003560e01c806376cdb03b116100de578063c4d66de811610097578063e58378bb11610071578063e58378bb14610364578063e63ab1e914610379578063f4812eb91461038e578063ffc42782146103ae57600080fd5b8063c4d66de814610317578063d53913931461032a578063d547741f1461035157600080fd5b806376cdb03b146102a75780638456cb59146102ba578063863ba49d146102c25780638f296759146102d557806391d14854146102fc578063a217fddf1461030f57600080fd5b80633f4ba83a116101305780633f4ba83a146102275780634229c35e1461022f5780635c975abb1461024257806370876c981461025a578063733592731461026d57806375b238fc1461028057600080fd5b806301ffc9a714610178578063090d23b9146101a0578063248a9ca3146101b55780632c01c279146101d65780632f2ff15d1461020157806336568abe14610214575b600080fd5b61018b610186366004610d2f565b6103c1565b60405190151581526020015b60405180910390f35b6101b36101ae366004610d75565b6103f8565b005b6101c86101c3366004610d92565b610433565b604051908152602001610197565b6034546101e9906001600160a01b031681565b6040516001600160a01b039091168152602001610197565b6101b361020f366004610dab565b610455565b6101b3610222366004610dab565b610477565b6101b36104af565b6101b361023d366004610ddb565b6104d2565b600080516020610ea58339815191525460ff1661018b565b6101b3610268366004610ddb565b6104fd565b6101b361027b366004610d75565b6106d9565b6101c87fa49807205ce4d355092ef5a8a18f56e8913cf4a201fbe287825b095693c2177581565b6035546101e9906001600160a01b031681565b6101b3610714565b6101b36102d0366004610d75565b610734565b6101c87f35af5b5a3fb4c88a8cb5e26e8a68a53cc8f6cafcc4000a1db1ae5753e25a168e81565b61018b61030a366004610dab565b61076f565b6101c8600081565b6101b3610325366004610d75565b6107a7565b6101c87f9f2df0fed2c77648de5860a4cc508cd0818c85b8b8a1ab4ceeef8d981c8956a681565b6101b361035f366004610dab565b6108b7565b6101c8600080516020610e4583398151915281565b6101c8600080516020610e6583398151915281565b6101c861039c366004610d92565b60326020526000908152604090205481565b6033546101e9906001600160a01b031681565b60006001600160e01b03198216637965db0b60e01b14806103f257506301ffc9a760e01b6001600160e01b03198316145b92915050565b600080516020610e45833981519152610410816108d3565b50603580546001600160a01b0319166001600160a01b0392909216919091179055565b6000908152600080516020610e85833981519152602052604090206001015490565b61045e82610433565b610467816108d3565b61047183836108dd565b50505050565b6001600160a01b03811633146104a05760405163334bd91960e11b815260040160405180910390fd5b6104aa8282610982565b505050565b600080516020610e658339815191526104c7816108d3565b6104cf6109fe565b50565b600080516020610e458339815191526104ea816108d3565b5060009182526032602052604090912055565b610505610a5e565b61050d610aa8565b6000828152603260205260409020541580610526575080155b1561054457604051630122d2b760e01b815260040160405180910390fd5b6033546035546000848152603260205260409020546001600160a01b03928316926323b872dd92339291169061057b908690610dfd565b6040516001600160e01b031960e086901b1681526001600160a01b03938416600482015292909116602483015260448201526064016020604051808303816000875af11580156105cf573d6000803e3d6000fd5b505050506040513d601f19601f820116820180604052508101906105f39190610e22565b50603454604051630ab714fb60e11b815233600482015260248101849052604481018390526001600160a01b039091169063156e29f690606401600060405180830381600087803b15801561064757600080fd5b505af115801561065b573d6000803e3d6000fd5b50505060008381526032602090815260409182902054825190815290810184905233925084917f2d422c18b05e66a0b22c1c2b24e242e6c19cff65d89543692b3348f7f7ea18d4910160405180910390a36106d560017f9b779b17422d0df92223018b32b4d1fa46e071723d6817e2486d003becc55f0055565b5050565b600080516020610e458339815191526106f1816108d3565b50603480546001600160a01b0319166001600160a01b0392909216919091179055565b600080516020610e6583398151915261072c816108d3565b6104cf610b01565b600080516020610e4583398151915261074c816108d3565b50603380546001600160a01b0319166001600160a01b0392909216919091179055565b6000918252600080516020610e85833981519152602090815260408084206001600160a01b0393909316845291905290205460ff1690565b7ff0c57e16840df040f15088dc2f81fe391c3923bec73e23a9662efc9c229c6a008054600160401b810460ff16159067ffffffffffffffff166000811580156107ed5750825b905060008267ffffffffffffffff16600114801561080a5750303b155b905081158015610818575080155b156108365760405163f92ee8a960e01b815260040160405180910390fd5b845467ffffffffffffffff19166001178555831561086057845460ff60401b1916600160401b1785555b61086986610b4a565b83156108af57845460ff60401b19168555604051600181527fc7f505b2f371ae2175ee4913f4499e1f2633a7b5936321eed1cdaeb6115181d29060200160405180910390a15b505050505050565b6108c082610433565b6108c9816108d3565b6104718383610982565b6104cf8133610c28565b6000600080516020610e858339815191526108f8848461076f565b610978576000848152602082815260408083206001600160a01b03871684529091529020805460ff1916600117905561092e3390565b6001600160a01b0316836001600160a01b0316857f2f8788117e7eff1d82e926ec794901d17c78024a50270940304540a733656f0d60405160405180910390a460019150506103f2565b60009150506103f2565b6000600080516020610e8583398151915261099d848461076f565b15610978576000848152602082815260408083206001600160a01b0387168085529252808320805460ff1916905551339287917ff6391f5c32d9c69d2a47ea670b442974b53935d1edc7fd64eb21e047a839171b9190a460019150506103f2565b610a06610c65565b600080516020610ea5833981519152805460ff191681557f5db9ee0a495bf2e6ff9c91a7834c1ba4fdd244a5e8aa4e537bd38aeae4b073aa335b6040516001600160a01b03909116815260200160405180910390a150565b7f9b779b17422d0df92223018b32b4d1fa46e071723d6817e2486d003becc55f00805460011901610aa257604051633ee5aeb560e01b815260040160405180910390fd5b60029055565b600080516020610ea58339815191525460ff1615610ad95760405163d93c066560e01b815260040160405180910390fd5b565b60017f9b779b17422d0df92223018b32b4d1fa46e071723d6817e2486d003becc55f0055565b610b09610aa8565b600080516020610ea5833981519152805460ff191660011781557f62e78cea01bee320cd4e420270b5ea74000d11b0c9f74754ebdbfc544b05a25833610a40565b610b52610c95565b610b5a610cde565b610b62610cee565b610b6a610cf6565b610b756000826108dd565b50610b8e600080516020610e65833981519152826108dd565b50610ba7600080516020610e45833981519152826108dd565b50610bd27f9f2df0fed2c77648de5860a4cc508cd0818c85b8b8a1ab4ceeef8d981c8956a6826108dd565b50610bfd7fa49807205ce4d355092ef5a8a18f56e8913cf4a201fbe287825b095693c21775826108dd565b506106d57f35af5b5a3fb4c88a8cb5e26e8a68a53cc8f6cafcc4000a1db1ae5753e25a168e826108dd565b610c32828261076f565b6106d55760405163e2517d3f60e01b81526001600160a01b03821660048201526024810183905260440160405180910390fd5b600080516020610ea58339815191525460ff16610ad957604051638dfc202b60e01b815260040160405180910390fd5b7ff0c57e16840df040f15088dc2f81fe391c3923bec73e23a9662efc9c229c6a0054600160401b900460ff16610ad957604051631afcd79f60e31b815260040160405180910390fd5b610ce6610c95565b610ad9610d06565b610ad9610c95565b610cfe610c95565b610ad9610d27565b610d0e610c95565b600080516020610ea5833981519152805460ff19169055565b610adb610c95565b600060208284031215610d4157600080fd5b81356001600160e01b031981168114610d5957600080fd5b9392505050565b6001600160a01b03811681146104cf57600080fd5b600060208284031215610d8757600080fd5b8135610d5981610d60565b600060208284031215610da457600080fd5b5035919050565b60008060408385031215610dbe57600080fd5b823591506020830135610dd081610d60565b809150509250929050565b60008060408385031215610dee57600080fd5b50508035926020909101359150565b80820281158282048414176103f257634e487b7160e01b600052601160045260246000fd5b600060208284031215610e3457600080fd5b81518015158114610d5957600080fdfeb19546dff01e856fb3f010c267a7b1c60363cf8a4664e21cc89c26224620214e65d7a28e3265b37a6474929f336521b332c1681b933f6cb9f3376673440d862a02dd7bc7dec4dceedda775e58dd541e08a116c6c53815c0bd028192f7b626800cd5ed15c6e187e77e9aee88184c21f4f2182ab5827cb3b7e07fbedcd63f03300a264697066735822122028d64b79b1c8f8b572879d01c97210c1ba0e71819f35c2ca642a407ab143b33264736f6c63430008140033",
  "linkReferences": {},
  "deployedLinkReferences": {}
}